{"contracts/ResourceSharingGame.sol":{"ResourceSharingGame":{"abi":[{"anonymous":false,"inputs":[{"indexed":true,"internalType":"address","name":"from","type":"address"},{"indexed":true,"internalType":"address","name":"to","type":"address"},{"indexed":false,"internalType":"string","name":"resourceType","type":"string"},{"indexed":false,"internalType":"uint256","name":"amount","type":"uint256"}],"name":"ResourceShared","type":"event"},{"inputs":[],"name":"login","outputs":[],"stateMutability":"nonpayable","type":"function"},{"inputs":[],"name":"logout","outputs":[],"stateMutability":"nonpayable","type":"function"},{"inputs":[{"internalType":"uint256","name":"","type":"uint256"}],"name":"playerAddresses","outputs":[{"internalType":"address","name":"","type":"address"}],"stateMutability":"view","type":"function"},{"inputs":[{"internalType":"address","name":"","type":"address"}],"name":"players","outputs":[{"internalType":"uint256","name":"wool","type":"uint256"},{"internalType":"uint256","name":"sheep","type":"uint256"},{"internalType":"uint256","name":"wolves","type":"uint256"},{"internalType":"uint256","name":"grass","type":"uint256"},{"internalType":"uint256","name":"farmer","type":"uint256"},{"internalType":"uint256","name":"land","type":"uint256"},{"internalType":"bool","name":"isLoggedIn","type":"bool"}],"stateMutability":"view","type":"function"},{"inputs":[],"name":"registerPlayer","outputs":[],"stateMutability":"nonpayable","type":"function"},{"inputs":[{"internalType":"address","name":"to","type":"address"},{"internalType":"string","name":"resourceType","type":"string"},{"internalType":"uint256","name":"amount","type":"uint256"}],"name":"shareResources","outputs":[],"stateMutability":"nonpayable","type":"function"}],"evm":{"bytecode":{"linkReferences":{},"object":"608060405234801561001057600080fd5b506118a1806100206000396000f3fe608060405234801561001057600080fd5b50600436106100625760003560e01c806315c6aee2146100675780631f3c99c3146100975780635c07a4b0146100a15780637285bca9146100ab578063b34e97e8146100c7578063e2eb41ff146100d1575b600080fd5b610081600480360381019061007c9190610e83565b610107565b60405161008e9190611418565b60405180910390f35b61009f610146565b005b6100a96101a2565b005b6100c560048036038101906100c09190610e1c565b610364565b005b6100cf610c32565b005b6100eb60048036038101906100e69190610df3565b610d12565b6040516100fe97969594939291906115c3565b60405180910390f35b6001818154811061011757600080fd5b906000526020600020016000915054906101000a900473ffffffffffffffffffffffffffffffffffffffff1681565b60008060003373ffffffffffffffffffffffffffffffffffffffff1673ffffffffffffffffffffffffffffffffffffffff16815260200190815260200160002060060160006101000a81548160ff021916908315150217905550565b60008060003373ffffffffffffffffffffffffffffffffffffffff1673ffffffffffffffffffffffffffffffffffffffff1681526020019081526020016000206000015414610226576040517f08c379a000000000000000000000000000000000000000000000000000000000815260040161021d906114e3565b60405180910390fd5b6040518060e0016040528060648152602001600a815260200160058152602001603281526020016001815260200160148152602001600015158152506000803373ffffffffffffffffffffffffffffffffffffffff1673ffffffffffffffffffffffffffffffffffffffff168152602001908152602001600020600082015181600001556020820151816001015560408201518160020155606082015181600301556080820151816004015560a0820151816005015560c08201518160060160006101000a81548160ff0219169083151502179055509050506001339080600181540180825580915050600190039060005260206000200160009091909190916101000a81548173ffffffffffffffffffffffffffffffffffffffff021916908373ffffffffffffffffffffffffffffffffffffffff160217905550565b600081116103a7576040517f08c379a000000000000000000000000000000000000000000000000000000000815260040161039e90611483565b60405180910390fd5b600073ffffffffffffffffffffffffffffffffffffffff168373ffffffffffffffffffffffffffffffffffffffff161415610417576040517f08c379a000000000000000000000000000000000000000000000000000000000815260040161040e90611503565b60405180910390fd5b60405160200161042690611403565b604051602081830303815290604052805190602001208260405160200161044d9190611383565b6040516020818303038152906040528051906020012014806104b85750604051602001610479906113d9565b60405160208183030381529060405280519060200120826040516020016104a09190611383565b60405160208183030381529060405280519060200120145b8061050c57506040516020016104cd9061139a565b60405160208183030381529060405280519060200120826040516020016104f49190611383565b60405160208183030381529060405280519060200120145b806105605750604051602001610521906113c4565b60405160208183030381529060405280519060200120826040516020016105489190611383565b60405160208183030381529060405280519060200120145b806105b45750604051602001610575906113ee565b604051602081830303815290604052805190602001208260405160200161059c9190611383565b60405160208183030381529060405280519060200120145b8061060857506040516020016105c9906113af565b60405160208183030381529060405280519060200120826040516020016105f09190611383565b60405160208183030381529060405280519060200120145b610647576040517f08c379a000000000000000000000000000000000000000000000000000000000815260040161063e906114c3565b60405180910390fd5b60008060003373ffffffffffffffffffffffffffffffffffffffff1673ffffffffffffffffffffffffffffffffffffffff168152602001908152602001600020905060008060008673ffffffffffffffffffffffffffffffffffffffff1673ffffffffffffffffffffffffffffffffffffffff16815260200190815260200160002090506040516020016106da90611403565b60405160208183030381529060405280519060200120846040516020016107019190611383565b60405160208183030381529060405280519060200120141561079f578282600001541015610764576040517f08c379a000000000000000000000000000000000000000000000000000000000815260040161075b90611583565b60405180910390fd5b828260000160008282546107789190611710565b925050819055508281600001600082825461079391906116ba565b92505081905550610bc4565b6040516020016107ae906113d9565b60405160208183030381529060405280519060200120846040516020016107d59190611383565b604051602081830303815290604052805190602001201415610873578282600101541015610838576040517f08c379a000000000000000000000000000000000000000000000000000000000815260040161082f906115a3565b60405180910390fd5b8282600101600082825461084c9190611710565b925050819055508281600101600082825461086791906116ba565b92505081905550610bc3565b6040516020016108829061139a565b60405160208183030381529060405280519060200120846040516020016108a99190611383565b60405160208183030381529060405280519060200120141561094757828260020154101561090c576040517f08c379a000000000000000000000000000000000000000000000000000000000815260040161090390611523565b60405180910390fd5b828260020160008282546109209190611710565b925050819055508281600201600082825461093b91906116ba565b92505081905550610bc2565b604051602001610956906113c4565b604051602081830303815290604052805190602001208460405160200161097d9190611383565b604051602081830303815290604052805190602001201415610a1b5782826003015410156109e0576040517f08c379a00000000000000000000000000000000000000000000000000000000081526004016109d790611543565b60405180910390fd5b828260030160008282546109f49190611710565b9250508190555082816003016000828254610a0f91906116ba565b92505081905550610bc1565b604051602001610a2a906113ee565b6040516020818303038152906040528051906020012084604051602001610a519190611383565b604051602081830303815290604052805190602001201415610aef578282600401541015610ab4576040517f08c379a0000000000000000000000000000000000000000000000000000000008152600401610aab90611463565b60405180910390fd5b82826004016000828254610ac89190611710565b9250508190555082816004016000828254610ae391906116ba565b92505081905550610bc0565b604051602001610afe906113af565b6040516020818303038152906040528051906020012084604051602001610b259190611383565b604051602081830303815290604052805190602001201415610bbf578282600501541015610b88576040517f08c379a0000000000000000000000000000000000000000000000000000000008152600401610b7f906114a3565b60405180910390fd5b82826005016000828254610b9c9190611710565b9250508190555082816005016000828254610bb791906116ba565b925050819055505b5b5b5b5b5b8473ffffffffffffffffffffffffffffffffffffffff163373ffffffffffffffffffffffffffffffffffffffff167fc811233d8689f13b04a6f0ac04bef0b0c01c08026a2db0b4b33e7ceaf541d05e8686604051610c23929190611433565b60405180910390a35050505050565b60008060003373ffffffffffffffffffffffffffffffffffffffff1673ffffffffffffffffffffffffffffffffffffffff1681526020019081526020016000206000015411610cb6576040517f08c379a0000000000000000000000000000000000000000000000000000000008152600401610cad90611563565b60405180910390fd5b60016000803373ffffffffffffffffffffffffffffffffffffffff1673ffffffffffffffffffffffffffffffffffffffff16815260200190815260200160002060060160006101000a81548160ff021916908315150217905550565b60006020528060005260406000206000915090508060000154908060010154908060020154908060030154908060040154908060050154908060060160009054906101000a900460ff16905087565b6000610d74610d6f84611663565b611632565b905082815260208101848484011115610d8c57600080fd5b610d9784828561178c565b509392505050565b600081359050610dae8161183d565b92915050565b600082601f830112610dc557600080fd5b8135610dd5848260208601610d61565b91505092915050565b600081359050610ded81611854565b92915050565b600060208284031215610e0557600080fd5b6000610e1384828501610d9f565b91505092915050565b600080600060608486031215610e3157600080fd5b6000610e3f86828701610d9f565b935050602084013567ffffffffffffffff811115610e5c57600080fd5b610e6886828701610db4565b9250506040610e7986828701610dde565b9150509250925092565b600060208284031215610e9557600080fd5b6000610ea384828501610dde565b91505092915050565b610eb581611744565b82525050565b610ec481611756565b82525050565b6000610ed582611693565b610edf818561169e565b9350610eef81856020860161179b565b610ef88161182c565b840191505092915050565b6000610f0e82611693565b610f1881856116af565b9350610f2881856020860161179b565b80840191505092915050565b6000610f4160128361169e565b91507f4e6f7420656e6f756768206661726d65727300000000000000000000000000006000830152602082019050919050565b6000610f816006836116af565b91507f776f6c76657300000000000000000000000000000000000000000000000000006000830152600682019050919050565b6000610fc160208361169e565b91507f416d6f756e74206d7573742062652067726561746572207468616e207a65726f6000830152602082019050919050565b6000611001600f8361169e565b91507f4e6f7420656e6f756768206c616e6400000000000000000000000000000000006000830152602082019050919050565b60006110416004836116af565b91507f6c616e64000000000000000000000000000000000000000000000000000000006000830152600482019050919050565b600061108160158361169e565b91507f496e76616c6964207265736f75726365207479706500000000000000000000006000830152602082019050919050565b60006110c16005836116af565b91507f67726173730000000000000000000000000000000000000000000000000000006000830152600582019050919050565b60006111016005836116af565b91507f73686565700000000000000000000000000000000000000000000000000000006000830152600582019050919050565b60006111416006836116af565b91507f6661726d657200000000000000000000000000000000000000000000000000006000830152600682019050919050565b600061118160198361169e565b91507f506c6179657220616c72656164792072656769737465726564000000000000006000830152602082019050919050565b60006111c160198361169e565b91507f496e76616c696420726563697069656e742061646472657373000000000000006000830152602082019050919050565b60006112016004836116af565b91507f776f6f6c000000000000000000000000000000000000000000000000000000006000830152600482019050919050565b600061124160118361169e565b91507f4e6f7420656e6f75676820776f6c7665730000000000000000000000000000006000830152602082019050919050565b600061128160108361169e565b91507f4e6f7420656e6f756768206772617373000000000000000000000000000000006000830152602082019050919050565b60006112c160158361169e565b91507f506c61796572206e6f74207265676973746572656400000000000000000000006000830152602082019050919050565b6000611301600f8361169e565b91507f4e6f7420656e6f75676820776f6f6c00000000000000000000000000000000006000830152602082019050919050565b600061134160108361169e565b91507f4e6f7420656e6f756768207368656570000000000000000000000000000000006000830152602082019050919050565b61137d81611782565b82525050565b600061138f8284610f03565b915081905092915050565b60006113a582610f74565b9150819050919050565b60006113ba82611034565b9150819050919050565b60006113cf826110b4565b9150819050919050565b60006113e4826110f4565b9150819050919050565b60006113f982611134565b9150819050919050565b600061140e826111f4565b9150819050919050565b600060208201905061142d6000830184610eac565b92915050565b6000604082019050818103600083015261144d8185610eca565b905061145c6020830184611374565b9392505050565b6000602082019050818103600083015261147c81610f34565b9050919050565b6000602082019050818103600083015261149c81610fb4565b9050919050565b600060208201905081810360008301526114bc81610ff4565b9050919050565b600060208201905081810360008301526114dc81611074565b9050919050565b600060208201905081810360008301526114fc81611174565b9050919050565b6000602082019050818103600083015261151c816111b4565b9050919050565b6000602082019050818103600083015261153c81611234565b9050919050565b6000602082019050818103600083015261155c81611274565b9050919050565b6000602082019050818103600083015261157c816112b4565b9050919050565b6000602082019050818103600083015261159c816112f4565b9050919050565b600060208201905081810360008301526115bc81611334565b9050919050565b600060e0820190506115d8600083018a611374565b6115e56020830189611374565b6115f26040830188611374565b6115ff6060830187611374565b61160c6080830186611374565b61161960a0830185611374565b61162660c0830184610ebb565b98975050505050505050565b6000604051905081810181811067ffffffffffffffff82111715611659576116586117fd565b5b8060405250919050565b600067ffffffffffffffff82111561167e5761167d6117fd565b5b601f19601f8301169050602081019050919050565b600081519050919050565b600082825260208201905092915050565b600081905092915050565b60006116c582611782565b91506116d083611782565b9250827fffffffffffffffffffffffffffffffffffffffffffffffffffffffffffffffff03821115611705576117046117ce565b5b828201905092915050565b600061171b82611782565b915061172683611782565b925082821015611739576117386117ce565b5b828203905092915050565b600061174f82611762565b9050919050565b60008115159050919050565b600073ffffffffffffffffffffffffffffffffffffffff82169050919050565b6000819050919050565b82818337600083830152505050565b60005b838110156117b957808201518184015260208101905061179e565b838111156117c8576000848401525b50505050565b7f4e487b7100000000000000000000000000000000000000000000000000000000600052601160045260246000fd5b7f4e487b7100000000000000000000000000000000000000000000000000000000600052604160045260246000fd5b6000601f19601f8301169050919050565b61184681611744565b811461185157600080fd5b50565b61185d81611782565b811461186857600080fd5b5056fea26469706673582212201c90ae9cd523d906bce7e886a84ca72570d7e636a274f3f385c42e987263e61764736f6c63430008000033","opcodes":"PUSH1 0x80 PUSH1 0x40 MSTORE CALLVALUE DUP1 ISZERO PUSH2 0x10 JUMPI PUSH1 0x0 DUP1 REVERT JUMPDEST POP PUSH2 0x18A1 DUP1 PUSH2 0x20 PUSH1 0x0 CODECOPY PUSH1 0x0 RETURN INVALID PUSH1 0x80 PUSH1 0x40 MSTORE CALLVALUE DUP1 ISZERO PUSH2 0x10 JUMPI PUSH1 0x0 DUP1 REVERT JUMPDEST POP PUSH1 0x4 CALLDATASIZE LT PUSH2 0x62 JUMPI PUSH1 0x0 CALLDATALOAD PUSH1 0xE0 SHR DUP1 PUSH4 0x15C6AEE2 EQ PUSH2 0x67 JUMPI DUP1 PUSH4 0x1F3C99C3 EQ PUSH2 0x97 JUMPI DUP1 PUSH4 0x5C07A4B0 EQ PUSH2 0xA1 JUMPI DUP1 PUSH4 0x7285BCA9 EQ PUSH2 0xAB JUMPI DUP1 PUSH4 0xB34E97E8 EQ PUSH2 0xC7 JUMPI DUP1 PUSH4 0xE2EB41FF EQ PUSH2 0xD1 JUMPI JUMPDEST PUSH1 0x0 DUP1 REVERT JUMPDEST PUSH2 0x81 PUSH1 0x4 DUP1 CALLDATASIZE SUB DUP2 ADD SWAP1 PUSH2 0x7C SWAP2 SWAP1 PUSH2 0xE83 JUMP JUMPDEST PUSH2 0x107 JUMP JUMPDEST PUSH1 0x40 MLOAD PUSH2 0x8E SWAP2 SWAP1 PUSH2 0x1418 JUMP JUMPDEST PUSH1 0x40 MLOAD DUP1 SWAP2 SUB SWAP1 RETURN JUMPDEST PUSH2 0x9F PUSH2 0x146 JUMP JUMPDEST STOP JUMPDEST PUSH2 0xA9 PUSH2 0x1A2 JUMP JUMPDEST STOP JUMPDEST PUSH2 0xC5 PUSH1 0x4 DUP1 CALLDATASIZE SUB DUP2 ADD SWAP1 PUSH2 0xC0 SWAP2 SWAP1 PUSH2 0xE1C JUMP JUMPDEST PUSH2 0x364 JUMP JUMPDEST STOP JUMPDEST PUSH2 0xCF PUSH2 0xC32 JUMP JUMPDEST STOP JUMPDEST PUSH2 0xEB PUSH1 0x4 DUP1 CALLDATASIZE SUB DUP2 ADD SWAP1 PUSH2 0xE6 SWAP2 SWAP1 PUSH2 0xDF3 JUMP JUMPDEST PUSH2 0xD12 JUMP JUMPDEST PUSH1 0x40 MLOAD PUSH2 0xFE SWAP8 SWAP7 SWAP6 SWAP5 SWAP4 SWAP3 SWAP2 SWAP1 PUSH2 0x15C3 JUMP JUMPDEST PUSH1 0x40 MLOAD DUP1 SWAP2 SUB SWAP1 RETURN JUMPDEST PUSH1 0x1 DUP2 DUP2 SLOAD DUP2 LT PUSH2 0x117 JUMPI PUSH1 0x0 DUP1 REVERT JUMPDEST SWAP1 PUSH1 0x0 MSTORE PUSH1 0x20 PUSH1 0x0 KECCAK256 ADD PUSH1 0x0 SWAP2 POP SLOAD SWAP1 PUSH2 0x100 EXP SWAP1 DIV PUSH20 0xFFFFFFFFFFFFFFFFFFFFFFFFFFFFFFFFFFFFFFFF AND DUP2 JUMP JUMPDEST PUSH1 0x0 DUP1 PUSH1 0x0 CALLER PUSH20 0xFFFFFFFFFFFFFFFFFFFFFFFFFFFFFFFFFFFFFFFF AND PUSH20 0xFFFFFFFFFFFFFFFFFFFFFFFFFFFFFFFFFFFFFFFF AND DUP2 MSTORE PUSH1 0x20 ADD SWAP1 DUP2 MSTORE PUSH1 0x20 ADD PUSH1 0x0 KECCAK256 PUSH1 0x6 ADD PUSH1 0x0 PUSH2 0x100 EXP DUP2 SLOAD DUP2 PUSH1 0xFF MUL NOT AND SWAP1 DUP4 ISZERO ISZERO MUL OR SWAP1 SSTORE POP JUMP JUMPDEST PUSH1 0x0 DUP1 PUSH1 0x0 CALLER PUSH20 0xFFFFFFFFFFFFFFFFFFFFFFFFFFFFFFFFFFFFFFFF AND PUSH20 0xFFFFFFFFFFFFFFFFFFFFFFFFFFFFFFFFFFFFFFFF AND DUP2 MSTORE PUSH1 0x20 ADD SWAP1 DUP2 MSTORE PUSH1 0x20 ADD PUSH1 0x0 KECCAK256 PUSH1 0x0 ADD SLOAD EQ PUSH2 0x226 JUMPI PUSH1 0x40 MLOAD PUSH32 0x8C379A000000000000000000000000000000000000000000000000000000000 DUP2 MSTORE PUSH1 0x4 ADD PUSH2 0x21D SWAP1 PUSH2 0x14E3 JUMP JUMPDEST PUSH1 0x40 MLOAD DUP1 SWAP2 SUB SWAP1 REVERT JUMPDEST PUSH1 0x40 MLOAD DUP1 PUSH1 0xE0 ADD PUSH1 0x40 MSTORE DUP1 PUSH1 0x64 DUP2 MSTORE PUSH1 0x20 ADD PUSH1 0xA DUP2 MSTORE PUSH1 0x20 ADD PUSH1 0x5 DUP2 MSTORE PUSH1 0x20 ADD PUSH1 0x32 DUP2 MSTORE PUSH1 0x20 ADD PUSH1 0x1 DUP2 MSTORE PUSH1 0x20 ADD PUSH1 0x14 DUP2 MSTORE PUSH1 0x20 ADD PUSH1 0x0 ISZERO ISZERO DUP2 MSTORE POP PUSH1 0x0 DUP1 CALLER PUSH20 0xFFFFFFFFFFFFFFFFFFFFFFFFFFFFFFFFFFFFFFFF AND PUSH20 0xFFFFFFFFFFFFFFFFFFFFFFFFFFFFFFFFFFFFFFFF AND DUP2 MSTORE PUSH1 0x20 ADD SWAP1 DUP2 MSTORE PUSH1 0x20 ADD PUSH1 0x0 KECCAK256 PUSH1 0x0 DUP3 ADD MLOAD DUP2 PUSH1 0x0 ADD SSTORE PUSH1 0x20 DUP3 ADD MLOAD DUP2 PUSH1 0x1 ADD SSTORE PUSH1 0x40 DUP3 ADD MLOAD DUP2 PUSH1 0x2 ADD SSTORE PUSH1 0x60 DUP3 ADD MLOAD DUP2 PUSH1 0x3 ADD SSTORE PUSH1 0x80 DUP3 ADD MLOAD DUP2 PUSH1 0x4 ADD SSTORE PUSH1 0xA0 DUP3 ADD MLOAD DUP2 PUSH1 0x5 ADD SSTORE PUSH1 0xC0 DUP3 ADD MLOAD DUP2 PUSH1 0x6 ADD PUSH1 0x0 PUSH2 0x100 EXP DUP2 SLOAD DUP2 PUSH1 0xFF MUL NOT AND SWAP1 DUP4 ISZERO ISZERO MUL OR SWAP1 SSTORE POP SWAP1 POP POP PUSH1 0x1 CALLER SWAP1 DUP1 PUSH1 0x1 DUP2 SLOAD ADD DUP1 DUP3 SSTORE DUP1 SWAP2 POP POP PUSH1 0x1 SWAP1 SUB SWAP1 PUSH1 0x0 MSTORE PUSH1 0x20 PUSH1 0x0 KECCAK256 ADD PUSH1 0x0 SWAP1 SWAP2 SWAP1 SWAP2 SWAP1 SWAP2 PUSH2 0x100 EXP DUP2 SLOAD DUP2 PUSH20 0xFFFFFFFFFFFFFFFFFFFFFFFFFFFFFFFFFFFFFFFF MUL NOT AND SWAP1 DUP4 PUSH20 0xFFFFFFFFFFFFFFFFFFFFFFFFFFFFFFFFFFFFFFFF AND MUL OR SWAP1 SSTORE POP JUMP JUMPDEST PUSH1 0x0 DUP2 GT PUSH2 0x3A7 JUMPI PUSH1 0x40 MLOAD PUSH32 0x8C379A000000000000000000000000000000000000000000000000000000000 DUP2 MSTORE PUSH1 0x4 ADD PUSH2 0x39E SWAP1 PUSH2 0x1483 JUMP JUMPDEST PUSH1 0x40 MLOAD DUP1 SWAP2 SUB SWAP1 REVERT JUMPDEST PUSH1 0x0 PUSH20 0xFFFFFFFFFFFFFFFFFFFFFFFFFFFFFFFFFFFFFFFF AND DUP4 PUSH20 0xFFFFFFFFFFFFFFFFFFFFFFFFFFFFFFFFFFFFFFFF AND EQ ISZERO PUSH2 0x417 JUMPI PUSH1 0x40 MLOAD PUSH32 0x8C379A000000000000000000000000000000000000000000000000000000000 DUP2 MSTORE PUSH1 0x4 ADD PUSH2 0x40E SWAP1 PUSH2 0x1503 JUMP JUMPDEST PUSH1 0x40 MLOAD DUP1 SWAP2 SUB SWAP1 REVERT JUMPDEST PUSH1 0x40 MLOAD PUSH1 0x20 ADD PUSH2 0x426 SWAP1 PUSH2 0x1403 JUMP JUMPDEST PUSH1 0x40 MLOAD PUSH1 0x20 DUP2 DUP4 SUB SUB DUP2 MSTORE SWAP1 PUSH1 0x40 MSTORE DUP1 MLOAD SWAP1 PUSH1 0x20 ADD KECCAK256 DUP3 PUSH1 0x40 MLOAD PUSH1 0x20 ADD PUSH2 0x44D SWAP2 SWAP1 PUSH2 0x1383 JUMP JUMPDEST PUSH1 0x40 MLOAD PUSH1 0x20 DUP2 DUP4 SUB SUB DUP2 MSTORE SWAP1 PUSH1 0x40 MSTORE DUP1 MLOAD SWAP1 PUSH1 0x20 ADD KECCAK256 EQ DUP1 PUSH2 0x4B8 JUMPI POP PUSH1 0x40 MLOAD PUSH1 0x20 ADD PUSH2 0x479 SWAP1 PUSH2 0x13D9 JUMP JUMPDEST PUSH1 0x40 MLOAD PUSH1 0x20 DUP2 DUP4 SUB SUB DUP2 MSTORE SWAP1 PUSH1 0x40 MSTORE DUP1 MLOAD SWAP1 PUSH1 0x20 ADD KECCAK256 DUP3 PUSH1 0x40 MLOAD PUSH1 0x20 ADD PUSH2 0x4A0 SWAP2 SWAP1 PUSH2 0x1383 JUMP JUMPDEST PUSH1 0x40 MLOAD PUSH1 0x20 DUP2 DUP4 SUB SUB DUP2 MSTORE SWAP1 PUSH1 0x40 MSTORE DUP1 MLOAD SWAP1 PUSH1 0x20 ADD KECCAK256 EQ JUMPDEST DUP1 PUSH2 0x50C JUMPI POP PUSH1 0x40 MLOAD PUSH1 0x20 ADD PUSH2 0x4CD SWAP1 PUSH2 0x139A JUMP JUMPDEST PUSH1 0x40 MLOAD PUSH1 0x20 DUP2 DUP4 SUB SUB DUP2 MSTORE SWAP1 PUSH1 0x40 MSTORE DUP1 MLOAD SWAP1 PUSH1 0x20 ADD KECCAK256 DUP3 PUSH1 0x40 MLOAD PUSH1 0x20 ADD PUSH2 0x4F4 SWAP2 SWAP1 PUSH2 0x1383 JUMP JUMPDEST PUSH1 0x40 MLOAD PUSH1 0x20 DUP2 DUP4 SUB SUB DUP2 MSTORE SWAP1 PUSH1 0x40 MSTORE DUP1 MLOAD SWAP1 PUSH1 0x20 ADD KECCAK256 EQ JUMPDEST DUP1 PUSH2 0x560 JUMPI POP PUSH1 0x40 MLOAD PUSH1 0x20 ADD PUSH2 0x521 SWAP1 PUSH2 0x13C4 JUMP JUMPDEST PUSH1 0x40 MLOAD PUSH1 0x20 DUP2 DUP4 SUB SUB DUP2 MSTORE SWAP1 PUSH1 0x40 MSTORE DUP1 MLOAD SWAP1 PUSH1 0x20 ADD KECCAK256 DUP3 PUSH1 0x40 MLOAD PUSH1 0x20 ADD PUSH2 0x548 SWAP2 SWAP1 PUSH2 0x1383 JUMP JUMPDEST PUSH1 0x40 MLOAD PUSH1 0x20 DUP2 DUP4 SUB SUB DUP2 MSTORE SWAP1 PUSH1 0x40 MSTORE DUP1 MLOAD SWAP1 PUSH1 0x20 ADD KECCAK256 EQ JUMPDEST DUP1 PUSH2 0x5B4 JUMPI POP PUSH1 0x40 MLOAD PUSH1 0x20 ADD PUSH2 0x575 SWAP1 PUSH2 0x13EE JUMP JUMPDEST PUSH1 0x40 MLOAD PUSH1 0x20 DUP2 DUP4 SUB SUB DUP2 MSTORE SWAP1 PUSH1 0x40 MSTORE DUP1 MLOAD SWAP1 PUSH1 0x20 ADD KECCAK256 DUP3 PUSH1 0x40 MLOAD PUSH1 0x20 ADD PUSH2 0x59C SWAP2 SWAP1 PUSH2 0x1383 JUMP JUMPDEST PUSH1 0x40 MLOAD PUSH1 0x20 DUP2 DUP4 SUB SUB DUP2 MSTORE SWAP1 PUSH1 0x40 MSTORE DUP1 MLOAD SWAP1 PUSH1 0x20 ADD KECCAK256 EQ JUMPDEST DUP1 PUSH2 0x608 JUMPI POP PUSH1 0x40 MLOAD PUSH1 0x20 ADD PUSH2 0x5C9 SWAP1 PUSH2 0x13AF JUMP JUMPDEST PUSH1 0x40 MLOAD PUSH1 0x20 DUP2 DUP4 SUB SUB DUP2 MSTORE SWAP1 PUSH1 0x40 MSTORE DUP1 MLOAD SWAP1 PUSH1 0x20 ADD KECCAK256 DUP3 PUSH1 0x40 MLOAD PUSH1 0x20 ADD PUSH2 0x5F0 SWAP2 SWAP1 PUSH2 0x1383 JUMP JUMPDEST PUSH1 0x40 MLOAD PUSH1 0x20 DUP2 DUP4 SUB SUB DUP2 MSTORE SWAP1 PUSH1 0x40 MSTORE DUP1 MLOAD SWAP1 PUSH1 0x20 ADD KECCAK256 EQ JUMPDEST PUSH2 0x647 JUMPI PUSH1 0x40 MLOAD PUSH32 0x8C379A000000000000000000000000000000000000000000000000000000000 DUP2 MSTORE PUSH1 0x4 ADD PUSH2 0x63E SWAP1 PUSH2 0x14C3 JUMP JUMPDEST PUSH1 0x40 MLOAD DUP1 SWAP2 SUB SWAP1 REVERT JUMPDEST PUSH1 0x0 DUP1 PUSH1 0x0 CALLER PUSH20 0xFFFFFFFFFFFFFFFFFFFFFFFFFFFFFFFFFFFFFFFF AND PUSH20 0xFFFFFFFFFFFFFFFFFFFFFFFFFFFFFFFFFFFFFFFF AND DUP2 MSTORE PUSH1 0x20 ADD SWAP1 DUP2 MSTORE PUSH1 0x20 ADD PUSH1 0x0 KECCAK256 SWAP1 POP PUSH1 0x0 DUP1 PUSH1 0x0 DUP7 PUSH20 0xFFFFFFFFFFFFFFFFFFFFFFFFFFFFFFFFFFFFFFFF AND PUSH20 0xFFFFFFFFFFFFFFFFFFFFFFFFFFFFFFFFFFFFFFFF AND DUP2 MSTORE PUSH1 0x20 ADD SWAP1 DUP2 MSTORE PUSH1 0x20 ADD PUSH1 0x0 KECCAK256 SWAP1 POP PUSH1 0x40 MLOAD PUSH1 0x20 ADD PUSH2 0x6DA SWAP1 PUSH2 0x1403 JUMP JUMPDEST PUSH1 0x40 MLOAD PUSH1 0x20 DUP2 DUP4 SUB SUB DUP2 MSTORE SWAP1 PUSH1 0x40 MSTORE DUP1 MLOAD SWAP1 PUSH1 0x20 ADD KECCAK256 DUP5 PUSH1 0x40 MLOAD PUSH1 0x20 ADD PUSH2 0x701 SWAP2 SWAP1 PUSH2 0x1383 JUMP JUMPDEST PUSH1 0x40 MLOAD PUSH1 0x20 DUP2 DUP4 SUB SUB DUP2 MSTORE SWAP1 PUSH1 0x40 MSTORE DUP1 MLOAD SWAP1 PUSH1 0x20 ADD KECCAK256 EQ ISZERO PUSH2 0x79F JUMPI DUP3 DUP3 PUSH1 0x0 ADD SLOAD LT ISZERO PUSH2 0x764 JUMPI PUSH1 0x40 MLOAD PUSH32 0x8C379A000000000000000000000000000000000000000000000000000000000 DUP2 MSTORE PUSH1 0x4 ADD PUSH2 0x75B SWAP1 PUSH2 0x1583 JUMP JUMPDEST PUSH1 0x40 MLOAD DUP1 SWAP2 SUB SWAP1 REVERT JUMPDEST DUP3 DUP3 PUSH1 0x0 ADD PUSH1 0x0 DUP3 DUP3 SLOAD PUSH2 0x778 SWAP2 SWAP1 PUSH2 0x1710 JUMP JUMPDEST SWAP3 POP POP DUP2 SWAP1 SSTORE POP DUP3 DUP2 PUSH1 0x0 ADD PUSH1 0x0 DUP3 DUP3 SLOAD PUSH2 0x793 SWAP2 SWAP1 PUSH2 0x16BA JUMP JUMPDEST SWAP3 POP POP DUP2 SWAP1 SSTORE POP PUSH2 0xBC4 JUMP JUMPDEST PUSH1 0x40 MLOAD PUSH1 0x20 ADD PUSH2 0x7AE SWAP1 PUSH2 0x13D9 JUMP JUMPDEST PUSH1 0x40 MLOAD PUSH1 0x20 DUP2 DUP4 SUB SUB DUP2 MSTORE SWAP1 PUSH1 0x40 MSTORE DUP1 MLOAD SWAP1 PUSH1 0x20 ADD KECCAK256 DUP5 PUSH1 0x40 MLOAD PUSH1 0x20 ADD PUSH2 0x7D5 SWAP2 SWAP1 PUSH2 0x1383 JUMP JUMPDEST PUSH1 0x40 MLOAD PUSH1 0x20 DUP2 DUP4 SUB SUB DUP2 MSTORE SWAP1 PUSH1 0x40 MSTORE DUP1 MLOAD SWAP1 PUSH1 0x20 ADD KECCAK256 EQ ISZERO PUSH2 0x873 JUMPI DUP3 DUP3 PUSH1 0x1 ADD SLOAD LT ISZERO PUSH2 0x838 JUMPI PUSH1 0x40 MLOAD PUSH32 0x8C379A000000000000000000000000000000000000000000000000000000000 DUP2 MSTORE PUSH1 0x4 ADD PUSH2 0x82F SWAP1 PUSH2 0x15A3 JUMP JUMPDEST PUSH1 0x40 MLOAD DUP1 SWAP2 SUB SWAP1 REVERT JUMPDEST DUP3 DUP3 PUSH1 0x1 ADD PUSH1 0x0 DUP3 DUP3 SLOAD PUSH2 0x84C SWAP2 SWAP1 PUSH2 0x1710 JUMP JUMPDEST SWAP3 POP POP DUP2 SWAP1 SSTORE POP DUP3 DUP2 PUSH1 0x1 ADD PUSH1 0x0 DUP3 DUP3 SLOAD PUSH2 0x867 SWAP2 SWAP1 PUSH2 0x16BA JUMP JUMPDEST SWAP3 POP POP DUP2 SWAP1 SSTORE POP PUSH2 0xBC3 JUMP JUMPDEST PUSH1 0x40 MLOAD PUSH1 0x20 ADD PUSH2 0x882 SWAP1 PUSH2 0x139A JUMP JUMPDEST PUSH1 0x40 MLOAD PUSH1 0x20 DUP2 DUP4 SUB SUB DUP2 MSTORE SWAP1 PUSH1 0x40 MSTORE DUP1 MLOAD SWAP1 PUSH1 0x20 ADD KECCAK256 DUP5 PUSH1 0x40 MLOAD PUSH1 0x20 ADD PUSH2 0x8A9 SWAP2 SWAP1 PUSH2 0x1383 JUMP JUMPDEST PUSH1 0x40 MLOAD PUSH1 0x20 DUP2 DUP4 SUB SUB DUP2 MSTORE SWAP1 PUSH1 0x40 MSTORE DUP1 MLOAD SWAP1 PUSH1 0x20 ADD KECCAK256 EQ ISZERO PUSH2 0x947 JUMPI DUP3 DUP3 PUSH1 0x2 ADD SLOAD LT ISZERO PUSH2 0x90C JUMPI PUSH1 0x40 MLOAD PUSH32 0x8C379A000000000000000000000000000000000000000000000000000000000 DUP2 MSTORE PUSH1 0x4 ADD PUSH2 0x903 SWAP1 PUSH2 0x1523 JUMP JUMPDEST PUSH1 0x40 MLOAD DUP1 SWAP2 SUB SWAP1 REVERT JUMPDEST DUP3 DUP3 PUSH1 0x2 ADD PUSH1 0x0 DUP3 DUP3 SLOAD PUSH2 0x920 SWAP2 SWAP1 PUSH2 0x1710 JUMP JUMPDEST SWAP3 POP POP DUP2 SWAP1 SSTORE POP DUP3 DUP2 PUSH1 0x2 ADD PUSH1 0x0 DUP3 DUP3 SLOAD PUSH2 0x93B SWAP2 SWAP1 PUSH2 0x16BA JUMP JUMPDEST SWAP3 POP POP DUP2 SWAP1 SSTORE POP PUSH2 0xBC2 JUMP JUMPDEST PUSH1 0x40 MLOAD PUSH1 0x20 ADD PUSH2 0x956 SWAP1 PUSH2 0x13C4 JUMP JUMPDEST PUSH1 0x40 MLOAD PUSH1 0x20 DUP2 DUP4 SUB SUB DUP2 MSTORE SWAP1 PUSH1 0x40 MSTORE DUP1 MLOAD SWAP1 PUSH1 0x20 ADD KECCAK256 DUP5 PUSH1 0x40 MLOAD PUSH1 0x20 ADD PUSH2 0x97D SWAP2 SWAP1 PUSH2 0x1383 JUMP JUMPDEST PUSH1 0x40 MLOAD PUSH1 0x20 DUP2 DUP4 SUB SUB DUP2 MSTORE SWAP1 PUSH1 0x40 MSTORE DUP1 MLOAD SWAP1 PUSH1 0x20 ADD KECCAK256 EQ ISZERO PUSH2 0xA1B JUMPI DUP3 DUP3 PUSH1 0x3 ADD SLOAD LT ISZERO PUSH2 0x9E0 JUMPI PUSH1 0x40 MLOAD PUSH32 0x8C379A000000000000000000000000000000000000000000000000000000000 DUP2 MSTORE PUSH1 0x4 ADD PUSH2 0x9D7 SWAP1 PUSH2 0x1543 JUMP JUMPDEST PUSH1 0x40 MLOAD DUP1 SWAP2 SUB SWAP1 REVERT JUMPDEST DUP3 DUP3 PUSH1 0x3 ADD PUSH1 0x0 DUP3 DUP3 SLOAD PUSH2 0x9F4 SWAP2 SWAP1 PUSH2 0x1710 JUMP JUMPDEST SWAP3 POP POP DUP2 SWAP1 SSTORE POP DUP3 DUP2 PUSH1 0x3 ADD PUSH1 0x0 DUP3 DUP3 SLOAD PUSH2 0xA0F SWAP2 SWAP1 PUSH2 0x16BA JUMP JUMPDEST SWAP3 POP POP DUP2 SWAP1 SSTORE POP PUSH2 0xBC1 JUMP JUMPDEST PUSH1 0x40 MLOAD PUSH1 0x20 ADD PUSH2 0xA2A SWAP1 PUSH2 0x13EE JUMP JUMPDEST PUSH1 0x40 MLOAD PUSH1 0x20 DUP2 DUP4 SUB SUB DUP2 MSTORE SWAP1 PUSH1 0x40 MSTORE DUP1 MLOAD SWAP1 PUSH1 0x20 ADD KECCAK256 DUP5 PUSH1 0x40 MLOAD PUSH1 0x20 ADD PUSH2 0xA51 SWAP2 SWAP1 PUSH2 0x1383 JUMP JUMPDEST PUSH1 0x40 MLOAD PUSH1 0x20 DUP2 DUP4 SUB SUB DUP2 MSTORE SWAP1 PUSH1 0x40 MSTORE DUP1 MLOAD SWAP1 PUSH1 0x20 ADD KECCAK256 EQ ISZERO PUSH2 0xAEF JUMPI DUP3 DUP3 PUSH1 0x4 ADD SLOAD LT ISZERO PUSH2 0xAB4 JUMPI PUSH1 0x40 MLOAD PUSH32 0x8C379A000000000000000000000000000000000000000000000000000000000 DUP2 MSTORE PUSH1 0x4 ADD PUSH2 0xAAB SWAP1 PUSH2 0x1463 JUMP JUMPDEST PUSH1 0x40 MLOAD DUP1 SWAP2 SUB SWAP1 REVERT JUMPDEST DUP3 DUP3 PUSH1 0x4 ADD PUSH1 0x0 DUP3 DUP3 SLOAD PUSH2 0xAC8 SWAP2 SWAP1 PUSH2 0x1710 JUMP JUMPDEST SWAP3 POP POP DUP2 SWAP1 SSTORE POP DUP3 DUP2 PUSH1 0x4 ADD PUSH1 0x0 DUP3 DUP3 SLOAD PUSH2 0xAE3 SWAP2 SWAP1 PUSH2 0x16BA JUMP JUMPDEST SWAP3 POP POP DUP2 SWAP1 SSTORE POP PUSH2 0xBC0 JUMP JUMPDEST PUSH1 0x40 MLOAD PUSH1 0x20 ADD PUSH2 0xAFE SWAP1 PUSH2 0x13AF JUMP JUMPDEST PUSH1 0x40 MLOAD PUSH1 0x20 DUP2 DUP4 SUB SUB DUP2 MSTORE SWAP1 PUSH1 0x40 MSTORE DUP1 MLOAD SWAP1 PUSH1 0x20 ADD KECCAK256 DUP5 PUSH1 0x40 MLOAD PUSH1 0x20 ADD PUSH2 0xB25 SWAP2 SWAP1 PUSH2 0x1383 JUMP JUMPDEST PUSH1 0x40 MLOAD PUSH1 0x20 DUP2 DUP4 SUB SUB DUP2 MSTORE SWAP1 PUSH1 0x40 MSTORE DUP1 MLOAD SWAP1 PUSH1 0x20 ADD KECCAK256 EQ ISZERO PUSH2 0xBBF JUMPI DUP3 DUP3 PUSH1 0x5 ADD SLOAD LT ISZERO PUSH2 0xB88 JUMPI PUSH1 0x40 MLOAD PUSH32 0x8C379A000000000000000000000000000000000000000000000000000000000 DUP2 MSTORE PUSH1 0x4 ADD PUSH2 0xB7F SWAP1 PUSH2 0x14A3 JUMP JUMPDEST PUSH1 0x40 MLOAD DUP1 SWAP2 SUB SWAP1 REVERT JUMPDEST DUP3 DUP3 PUSH1 0x5 ADD PUSH1 0x0 DUP3 DUP3 SLOAD PUSH2 0xB9C SWAP2 SWAP1 PUSH2 0x1710 JUMP JUMPDEST SWAP3 POP POP DUP2 SWAP1 SSTORE POP DUP3 DUP2 PUSH1 0x5 ADD PUSH1 0x0 DUP3 DUP3 SLOAD PUSH2 0xBB7 SWAP2 SWAP1 PUSH2 0x16BA JUMP JUMPDEST SWAP3 POP POP DUP2 SWAP1 SSTORE POP JUMPDEST JUMPDEST JUMPDEST JUMPDEST JUMPDEST JUMPDEST DUP5 PUSH20 0xFFFFFFFFFFFFFFFFFFFFFFFFFFFFFFFFFFFFFFFF AND CALLER PUSH20 0xFFFFFFFFFFFFFFFFFFFFFFFFFFFFFFFFFFFFFFFF AND PUSH32 0xC811233D8689F13B04A6F0AC04BEF0B0C01C08026A2DB0B4B33E7CEAF541D05E DUP7 DUP7 PUSH1 0x40 MLOAD PUSH2 0xC23 SWAP3 SWAP2 SWAP1 PUSH2 0x1433 JUMP JUMPDEST PUSH1 0x40 MLOAD DUP1 SWAP2 SUB SWAP1 LOG3 POP POP POP POP POP JUMP JUMPDEST PUSH1 0x0 DUP1 PUSH1 0x0 CALLER PUSH20 0xFFFFFFFFFFFFFFFFFFFFFFFFFFFFFFFFFFFFFFFF AND PUSH20 0xFFFFFFFFFFFFFFFFFFFFFFFFFFFFFFFFFFFFFFFF AND DUP2 MSTORE PUSH1 0x20 ADD SWAP1 DUP2 MSTORE PUSH1 0x20 ADD PUSH1 0x0 KECCAK256 PUSH1 0x0 ADD SLOAD GT PUSH2 0xCB6 JUMPI PUSH1 0x40 MLOAD PUSH32 0x8C379A000000000000000000000000000000000000000000000000000000000 DUP2 MSTORE PUSH1 0x4 ADD PUSH2 0xCAD SWAP1 PUSH2 0x1563 JUMP JUMPDEST PUSH1 0x40 MLOAD DUP1 SWAP2 SUB SWAP1 REVERT JUMPDEST PUSH1 0x1 PUSH1 0x0 DUP1 CALLER PUSH20 0xFFFFFFFFFFFFFFFFFFFFFFFFFFFFFFFFFFFFFFFF AND PUSH20 0xFFFFFFFFFFFFFFFFFFFFFFFFFFFFFFFFFFFFFFFF AND DUP2 MSTORE PUSH1 0x20 ADD SWAP1 DUP2 MSTORE PUSH1 0x20 ADD PUSH1 0x0 KECCAK256 PUSH1 0x6 ADD PUSH1 0x0 PUSH2 0x100 EXP DUP2 SLOAD DUP2 PUSH1 0xFF MUL NOT AND SWAP1 DUP4 ISZERO ISZERO MUL OR SWAP1 SSTORE POP JUMP JUMPDEST PUSH1 0x0 PUSH1 0x20 MSTORE DUP1 PUSH1 0x0 MSTORE PUSH1 0x40 PUSH1 0x0 KECCAK256 PUSH1 0x0 SWAP2 POP SWAP1 POP DUP1 PUSH1 0x0 ADD SLOAD SWAP1 DUP1 PUSH1 0x1 ADD SLOAD SWAP1 DUP1 PUSH1 0x2 ADD SLOAD SWAP1 DUP1 PUSH1 0x3 ADD SLOAD SWAP1 DUP1 PUSH1 0x4 ADD SLOAD SWAP1 DUP1 PUSH1 0x5 ADD SLOAD SWAP1 DUP1 PUSH1 0x6 ADD PUSH1 0x0 SWAP1 SLOAD SWAP1 PUSH2 0x100 EXP SWAP1 DIV PUSH1 0xFF AND SWAP1 POP DUP8 JUMP JUMPDEST PUSH1 0x0 PUSH2 0xD74 PUSH2 0xD6F DUP5 PUSH2 0x1663 JUMP JUMPDEST PUSH2 0x1632 JUMP JUMPDEST SWAP1 POP DUP3 DUP2 MSTORE PUSH1 0x20 DUP2 ADD DUP5 DUP5 DUP5 ADD GT ISZERO PUSH2 0xD8C JUMPI PUSH1 0x0 DUP1 REVERT JUMPDEST PUSH2 0xD97 DUP5 DUP3 DUP6 PUSH2 0x178C JUMP JUMPDEST POP SWAP4 SWAP3 POP POP POP JUMP JUMPDEST PUSH1 0x0 DUP2 CALLDATALOAD SWAP1 POP PUSH2 0xDAE DUP2 PUSH2 0x183D JUMP JUMPDEST SWAP3 SWAP2 POP POP JUMP JUMPDEST PUSH1 0x0 DUP3 PUSH1 0x1F DUP4 ADD SLT PUSH2 0xDC5 JUMPI PUSH1 0x0 DUP1 REVERT JUMPDEST DUP2 CALLDATALOAD PUSH2 0xDD5 DUP5 DUP3 PUSH1 0x20 DUP7 ADD PUSH2 0xD61 JUMP JUMPDEST SWAP2 POP POP SWAP3 SWAP2 POP POP JUMP JUMPDEST PUSH1 0x0 DUP2 CALLDATALOAD SWAP1 POP PUSH2 0xDED DUP2 PUSH2 0x1854 JUMP JUMPDEST SWAP3 SWAP2 POP POP JUMP JUMPDEST PUSH1 0x0 PUSH1 0x20 DUP3 DUP5 SUB SLT ISZERO PUSH2 0xE05 JUMPI PUSH1 0x0 DUP1 REVERT JUMPDEST PUSH1 0x0 PUSH2 0xE13 DUP5 DUP3 DUP6 ADD PUSH2 0xD9F JUMP JUMPDEST SWAP2 POP POP SWAP3 SWAP2 POP POP JUMP JUMPDEST PUSH1 0x0 DUP1 PUSH1 0x0 PUSH1 0x60 DUP5 DUP7 SUB SLT ISZERO PUSH2 0xE31 JUMPI PUSH1 0x0 DUP1 REVERT JUMPDEST PUSH1 0x0 PUSH2 0xE3F DUP7 DUP3 DUP8 ADD PUSH2 0xD9F JUMP JUMPDEST SWAP4 POP POP PUSH1 0x20 DUP5 ADD CALLDATALOAD PUSH8 0xFFFFFFFFFFFFFFFF DUP2 GT ISZERO PUSH2 0xE5C JUMPI PUSH1 0x0 DUP1 REVERT JUMPDEST PUSH2 0xE68 DUP7 DUP3 DUP8 ADD PUSH2 0xDB4 JUMP JUMPDEST SWAP3 POP POP PUSH1 0x40 PUSH2 0xE79 DUP7 DUP3 DUP8 ADD PUSH2 0xDDE JUMP JUMPDEST SWAP2 POP POP SWAP3 POP SWAP3 POP SWAP3 JUMP JUMPDEST PUSH1 0x0 PUSH1 0x20 DUP3 DUP5 SUB SLT ISZERO PUSH2 0xE95 JUMPI PUSH1 0x0 DUP1 REVERT JUMPDEST PUSH1 0x0 PUSH2 0xEA3 DUP5 DUP3 DUP6 ADD PUSH2 0xDDE JUMP JUMPDEST SWAP2 POP POP SWAP3 SWAP2 POP POP JUMP JUMPDEST PUSH2 0xEB5 DUP2 PUSH2 0x1744 JUMP JUMPDEST DUP3 MSTORE POP POP JUMP JUMPDEST PUSH2 0xEC4 DUP2 PUSH2 0x1756 JUMP JUMPDEST DUP3 MSTORE POP POP JUMP JUMPDEST PUSH1 0x0 PUSH2 0xED5 DUP3 PUSH2 0x1693 JUMP JUMPDEST PUSH2 0xEDF DUP2 DUP6 PUSH2 0x169E JUMP JUMPDEST SWAP4 POP PUSH2 0xEEF DUP2 DUP6 PUSH1 0x20 DUP7 ADD PUSH2 0x179B JUMP JUMPDEST PUSH2 0xEF8 DUP2 PUSH2 0x182C JUMP JUMPDEST DUP5 ADD SWAP2 POP POP SWAP3 SWAP2 POP POP JUMP JUMPDEST PUSH1 0x0 PUSH2 0xF0E DUP3 PUSH2 0x1693 JUMP JUMPDEST PUSH2 0xF18 DUP2 DUP6 PUSH2 0x16AF JUMP JUMPDEST SWAP4 POP PUSH2 0xF28 DUP2 DUP6 PUSH1 0x20 DUP7 ADD PUSH2 0x179B JUMP JUMPDEST DUP1 DUP5 ADD SWAP2 POP POP SWAP3 SWAP2 POP POP JUMP JUMPDEST PUSH1 0x0 PUSH2 0xF41 PUSH1 0x12 DUP4 PUSH2 0x169E JUMP JUMPDEST SWAP2 POP PUSH32 0x4E6F7420656E6F756768206661726D6572730000000000000000000000000000 PUSH1 0x0 DUP4 ADD MSTORE PUSH1 0x20 DUP3 ADD SWAP1 POP SWAP2 SWAP1 POP JUMP JUMPDEST PUSH1 0x0 PUSH2 0xF81 PUSH1 0x6 DUP4 PUSH2 0x16AF JUMP JUMPDEST SWAP2 POP PUSH32 0x776F6C7665730000000000000000000000000000000000000000000000000000 PUSH1 0x0 DUP4 ADD MSTORE PUSH1 0x6 DUP3 ADD SWAP1 POP SWAP2 SWAP1 POP JUMP JUMPDEST PUSH1 0x0 PUSH2 0xFC1 PUSH1 0x20 DUP4 PUSH2 0x169E JUMP JUMPDEST SWAP2 POP PUSH32 0x416D6F756E74206D7573742062652067726561746572207468616E207A65726F PUSH1 0x0 DUP4 ADD MSTORE PUSH1 0x20 DUP3 ADD SWAP1 POP SWAP2 SWAP1 POP JUMP JUMPDEST PUSH1 0x0 PUSH2 0x1001 PUSH1 0xF DUP4 PUSH2 0x169E JUMP JUMPDEST SWAP2 POP PUSH32 0x4E6F7420656E6F756768206C616E640000000000000000000000000000000000 PUSH1 0x0 DUP4 ADD MSTORE PUSH1 0x20 DUP3 ADD SWAP1 POP SWAP2 SWAP1 POP JUMP JUMPDEST PUSH1 0x0 PUSH2 0x1041 PUSH1 0x4 DUP4 PUSH2 0x16AF JUMP JUMPDEST SWAP2 POP PUSH32 0x6C616E6400000000000000000000000000000000000000000000000000000000 PUSH1 0x0 DUP4 ADD MSTORE PUSH1 0x4 DUP3 ADD SWAP1 POP SWAP2 SWAP1 POP JUMP JUMPDEST PUSH1 0x0 PUSH2 0x1081 PUSH1 0x15 DUP4 PUSH2 0x169E JUMP JUMPDEST SWAP2 POP PUSH32 0x496E76616C6964207265736F7572636520747970650000000000000000000000 PUSH1 0x0 DUP4 ADD MSTORE PUSH1 0x20 DUP3 ADD SWAP1 POP SWAP2 SWAP1 POP JUMP JUMPDEST PUSH1 0x0 PUSH2 0x10C1 PUSH1 0x5 DUP4 PUSH2 0x16AF JUMP JUMPDEST SWAP2 POP PUSH32 0x6772617373000000000000000000000000000000000000000000000000000000 PUSH1 0x0 DUP4 ADD MSTORE PUSH1 0x5 DUP3 ADD SWAP1 POP SWAP2 SWAP1 POP JUMP JUMPDEST PUSH1 0x0 PUSH2 0x1101 PUSH1 0x5 DUP4 PUSH2 0x16AF JUMP JUMPDEST SWAP2 POP PUSH32 0x7368656570000000000000000000000000000000000000000000000000000000 PUSH1 0x0 DUP4 ADD MSTORE PUSH1 0x5 DUP3 ADD SWAP1 POP SWAP2 SWAP1 POP JUMP JUMPDEST PUSH1 0x0 PUSH2 0x1141 PUSH1 0x6 DUP4 PUSH2 0x16AF JUMP JUMPDEST SWAP2 POP PUSH32 0x6661726D65720000000000000000000000000000000000000000000000000000 PUSH1 0x0 DUP4 ADD MSTORE PUSH1 0x6 DUP3 ADD SWAP1 POP SWAP2 SWAP1 POP JUMP JUMPDEST PUSH1 0x0 PUSH2 0x1181 PUSH1 0x19 DUP4 PUSH2 0x169E JUMP JUMPDEST SWAP2 POP PUSH32 0x506C6179657220616C7265616479207265676973746572656400000000000000 PUSH1 0x0 DUP4 ADD MSTORE PUSH1 0x20 DUP3 ADD SWAP1 POP SWAP2 SWAP1 POP JUMP JUMPDEST PUSH1 0x0 PUSH2 0x11C1 PUSH1 0x19 DUP4 PUSH2 0x169E JUMP JUMPDEST SWAP2 POP PUSH32 0x496E76616C696420726563697069656E74206164647265737300000000000000 PUSH1 0x0 DUP4 ADD MSTORE PUSH1 0x20 DUP3 ADD SWAP1 POP SWAP2 SWAP1 POP JUMP JUMPDEST PUSH1 0x0 PUSH2 0x1201 PUSH1 0x4 DUP4 PUSH2 0x16AF JUMP JUMPDEST SWAP2 POP PUSH32 0x776F6F6C00000000000000000000000000000000000000000000000000000000 PUSH1 0x0 DUP4 ADD MSTORE PUSH1 0x4 DUP3 ADD SWAP1 POP SWAP2 SWAP1 POP JUMP JUMPDEST PUSH1 0x0 PUSH2 0x1241 PUSH1 0x11 DUP4 PUSH2 0x169E JUMP JUMPDEST SWAP2 POP PUSH32 0x4E6F7420656E6F75676820776F6C766573000000000000000000000000000000 PUSH1 0x0 DUP4 ADD MSTORE PUSH1 0x20 DUP3 ADD SWAP1 POP SWAP2 SWAP1 POP JUMP JUMPDEST PUSH1 0x0 PUSH2 0x1281 PUSH1 0x10 DUP4 PUSH2 0x169E JUMP JUMPDEST SWAP2 POP PUSH32 0x4E6F7420656E6F75676820677261737300000000000000000000000000000000 PUSH1 0x0 DUP4 ADD MSTORE PUSH1 0x20 DUP3 ADD SWAP1 POP SWAP2 SWAP1 POP JUMP JUMPDEST PUSH1 0x0 PUSH2 0x12C1 PUSH1 0x15 DUP4 PUSH2 0x169E JUMP JUMPDEST SWAP2 POP PUSH32 0x506C61796572206E6F7420726567697374657265640000000000000000000000 PUSH1 0x0 DUP4 ADD MSTORE PUSH1 0x20 DUP3 ADD SWAP1 POP SWAP2 SWAP1 POP JUMP JUMPDEST PUSH1 0x0 PUSH2 0x1301 PUSH1 0xF DUP4 PUSH2 0x169E JUMP JUMPDEST SWAP2 POP PUSH32 0x4E6F7420656E6F75676820776F6F6C0000000000000000000000000000000000 PUSH1 0x0 DUP4 ADD MSTORE PUSH1 0x20 DUP3 ADD SWAP1 POP SWAP2 SWAP1 POP JUMP JUMPDEST PUSH1 0x0 PUSH2 0x1341 PUSH1 0x10 DUP4 PUSH2 0x169E JUMP JUMPDEST SWAP2 POP PUSH32 0x4E6F7420656E6F75676820736865657000000000000000000000000000000000 PUSH1 0x0 DUP4 ADD MSTORE PUSH1 0x20 DUP3 ADD SWAP1 POP SWAP2 SWAP1 POP JUMP JUMPDEST PUSH2 0x137D DUP2 PUSH2 0x1782 JUMP JUMPDEST DUP3 MSTORE POP POP JUMP JUMPDEST PUSH1 0x0 PUSH2 0x138F DUP3 DUP5 PUSH2 0xF03 JUMP JUMPDEST SWAP2 POP DUP2 SWAP1 POP SWAP3 SWAP2 POP POP JUMP JUMPDEST PUSH1 0x0 PUSH2 0x13A5 DUP3 PUSH2 0xF74 JUMP JUMPDEST SWAP2 POP DUP2 SWAP1 POP SWAP2 SWAP1 POP JUMP JUMPDEST PUSH1 0x0 PUSH2 0x13BA DUP3 PUSH2 0x1034 JUMP JUMPDEST SWAP2 POP DUP2 SWAP1 POP SWAP2 SWAP1 POP JUMP JUMPDEST PUSH1 0x0 PUSH2 0x13CF DUP3 PUSH2 0x10B4 JUMP JUMPDEST SWAP2 POP DUP2 SWAP1 POP SWAP2 SWAP1 POP JUMP JUMPDEST PUSH1 0x0 PUSH2 0x13E4 DUP3 PUSH2 0x10F4 JUMP JUMPDEST SWAP2 POP DUP2 SWAP1 POP SWAP2 SWAP1 POP JUMP JUMPDEST PUSH1 0x0 PUSH2 0x13F9 DUP3 PUSH2 0x1134 JUMP JUMPDEST SWAP2 POP DUP2 SWAP1 POP SWAP2 SWAP1 POP JUMP JUMPDEST PUSH1 0x0 PUSH2 0x140E DUP3 PUSH2 0x11F4 JUMP JUMPDEST SWAP2 POP DUP2 SWAP1 POP SWAP2 SWAP1 POP JUMP JUMPDEST PUSH1 0x0 PUSH1 0x20 DUP3 ADD SWAP1 POP PUSH2 0x142D PUSH1 0x0 DUP4 ADD DUP5 PUSH2 0xEAC JUMP JUMPDEST SWAP3 SWAP2 POP POP JUMP JUMPDEST PUSH1 0x0 PUSH1 0x40 DUP3 ADD SWAP1 POP DUP2 DUP2 SUB PUSH1 0x0 DUP4 ADD MSTORE PUSH2 0x144D DUP2 DUP6 PUSH2 0xECA JUMP JUMPDEST SWAP1 POP PUSH2 0x145C PUSH1 0x20 DUP4 ADD DUP5 PUSH2 0x1374 JUMP JUMPDEST SWAP4 SWAP3 POP POP POP JUMP JUMPDEST PUSH1 0x0 PUSH1 0x20 DUP3 ADD SWAP1 POP DUP2 DUP2 SUB PUSH1 0x0 DUP4 ADD MSTORE PUSH2 0x147C DUP2 PUSH2 0xF34 JUMP JUMPDEST SWAP1 POP SWAP2 SWAP1 POP JUMP JUMPDEST PUSH1 0x0 PUSH1 0x20 DUP3 ADD SWAP1 POP DUP2 DUP2 SUB PUSH1 0x0 DUP4 ADD MSTORE PUSH2 0x149C DUP2 PUSH2 0xFB4 JUMP JUMPDEST SWAP1 POP SWAP2 SWAP1 POP JUMP JUMPDEST PUSH1 0x0 PUSH1 0x20 DUP3 ADD SWAP1 POP DUP2 DUP2 SUB PUSH1 0x0 DUP4 ADD MSTORE PUSH2 0x14BC DUP2 PUSH2 0xFF4 JUMP JUMPDEST SWAP1 POP SWAP2 SWAP1 POP JUMP JUMPDEST PUSH1 0x0 PUSH1 0x20 DUP3 ADD SWAP1 POP DUP2 DUP2 SUB PUSH1 0x0 DUP4 ADD MSTORE PUSH2 0x14DC DUP2 PUSH2 0x1074 JUMP JUMPDEST SWAP1 POP SWAP2 SWAP1 POP JUMP JUMPDEST PUSH1 0x0 PUSH1 0x20 DUP3 ADD SWAP1 POP DUP2 DUP2 SUB PUSH1 0x0 DUP4 ADD MSTORE PUSH2 0x14FC DUP2 PUSH2 0x1174 JUMP JUMPDEST SWAP1 POP SWAP2 SWAP1 POP JUMP JUMPDEST PUSH1 0x0 PUSH1 0x20 DUP3 ADD SWAP1 POP DUP2 DUP2 SUB PUSH1 0x0 DUP4 ADD MSTORE PUSH2 0x151C DUP2 PUSH2 0x11B4 JUMP JUMPDEST SWAP1 POP SWAP2 SWAP1 POP JUMP JUMPDEST PUSH1 0x0 PUSH1 0x20 DUP3 ADD SWAP1 POP DUP2 DUP2 SUB PUSH1 0x0 DUP4 ADD MSTORE PUSH2 0x153C DUP2 PUSH2 0x1234 JUMP JUMPDEST SWAP1 POP SWAP2 SWAP1 POP JUMP JUMPDEST PUSH1 0x0 PUSH1 0x20 DUP3 ADD SWAP1 POP DUP2 DUP2 SUB PUSH1 0x0 DUP4 ADD MSTORE PUSH2 0x155C DUP2 PUSH2 0x1274 JUMP JUMPDEST SWAP1 POP SWAP2 SWAP1 POP JUMP JUMPDEST PUSH1 0x0 PUSH1 0x20 DUP3 ADD SWAP1 POP DUP2 DUP2 SUB PUSH1 0x0 DUP4 ADD MSTORE PUSH2 0x157C DUP2 PUSH2 0x12B4 JUMP JUMPDEST SWAP1 POP SWAP2 SWAP1 POP JUMP JUMPDEST PUSH1 0x0 PUSH1 0x20 DUP3 ADD SWAP1 POP DUP2 DUP2 SUB PUSH1 0x0 DUP4 ADD MSTORE PUSH2 0x159C DUP2 PUSH2 0x12F4 JUMP JUMPDEST SWAP1 POP SWAP2 SWAP1 POP JUMP JUMPDEST PUSH1 0x0 PUSH1 0x20 DUP3 ADD SWAP1 POP DUP2 DUP2 SUB PUSH1 0x0 DUP4 ADD MSTORE PUSH2 0x15BC DUP2 PUSH2 0x1334 JUMP JUMPDEST SWAP1 POP SWAP2 SWAP1 POP JUMP JUMPDEST PUSH1 0x0 PUSH1 0xE0 DUP3 ADD SWAP1 POP PUSH2 0x15D8 PUSH1 0x0 DUP4 ADD DUP11 PUSH2 0x1374 JUMP JUMPDEST PUSH2 0x15E5 PUSH1 0x20 DUP4 ADD DUP10 PUSH2 0x1374 JUMP JUMPDEST PUSH2 0x15F2 PUSH1 0x40 DUP4 ADD DUP9 PUSH2 0x1374 JUMP JUMPDEST PUSH2 0x15FF PUSH1 0x60 DUP4 ADD DUP8 PUSH2 0x1374 JUMP JUMPDEST PUSH2 0x160C PUSH1 0x80 DUP4 ADD DUP7 PUSH2 0x1374 JUMP JUMPDEST PUSH2 0x1619 PUSH1 0xA0 DUP4 ADD DUP6 PUSH2 0x1374 JUMP JUMPDEST PUSH2 0x1626 PUSH1 0xC0 DUP4 ADD DUP5 PUSH2 0xEBB JUMP JUMPDEST SWAP9 SWAP8 POP POP POP POP POP POP POP POP JUMP JUMPDEST PUSH1 0x0 PUSH1 0x40 MLOAD SWAP1 POP DUP2 DUP2 ADD DUP2 DUP2 LT PUSH8 0xFFFFFFFFFFFFFFFF DUP3 GT OR ISZERO PUSH2 0x1659 JUMPI PUSH2 0x1658 PUSH2 0x17FD JUMP JUMPDEST JUMPDEST DUP1 PUSH1 0x40 MSTORE POP SWAP2 SWAP1 POP JUMP JUMPDEST PUSH1 0x0 PUSH8 0xFFFFFFFFFFFFFFFF DUP3 GT ISZERO PUSH2 0x167E JUMPI PUSH2 0x167D PUSH2 0x17FD JUMP JUMPDEST JUMPDEST PUSH1 0x1F NOT PUSH1 0x1F DUP4 ADD AND SWAP1 POP PUSH1 0x20 DUP2 ADD SWAP1 POP SWAP2 SWAP1 POP JUMP JUMPDEST PUSH1 0x0 DUP2 MLOAD SWAP1 POP SWAP2 SWAP1 POP JUMP JUMPDEST PUSH1 0x0 DUP3 DUP3 MSTORE PUSH1 0x20 DUP3 ADD SWAP1 POP SWAP3 SWAP2 POP POP JUMP JUMPDEST PUSH1 0x0 DUP2 SWAP1 POP SWAP3 SWAP2 POP POP JUMP JUMPDEST PUSH1 0x0 PUSH2 0x16C5 DUP3 PUSH2 0x1782 JUMP JUMPDEST SWAP2 POP PUSH2 0x16D0 DUP4 PUSH2 0x1782 JUMP JUMPDEST SWAP3 POP DUP3 PUSH32 0xFFFFFFFFFFFFFFFFFFFFFFFFFFFFFFFFFFFFFFFFFFFFFFFFFFFFFFFFFFFFFFFF SUB DUP3 GT ISZERO PUSH2 0x1705 JUMPI PUSH2 0x1704 PUSH2 0x17CE JUMP JUMPDEST JUMPDEST DUP3 DUP3 ADD SWAP1 POP SWAP3 SWAP2 POP POP JUMP JUMPDEST PUSH1 0x0 PUSH2 0x171B DUP3 PUSH2 0x1782 JUMP JUMPDEST SWAP2 POP PUSH2 0x1726 DUP4 PUSH2 0x1782 JUMP JUMPDEST SWAP3 POP DUP3 DUP3 LT ISZERO PUSH2 0x1739 JUMPI PUSH2 0x1738 PUSH2 0x17CE JUMP JUMPDEST JUMPDEST DUP3 DUP3 SUB SWAP1 POP SWAP3 SWAP2 POP POP JUMP JUMPDEST PUSH1 0x0 PUSH2 0x174F DUP3 PUSH2 0x1762 JUMP JUMPDEST SWAP1 POP SWAP2 SWAP1 POP JUMP JUMPDEST PUSH1 0x0 DUP2 ISZERO ISZERO SWAP1 POP SWAP2 SWAP1 POP JUMP JUMPDEST PUSH1 0x0 PUSH20 0xFFFFFFFFFFFFFFFFFFFFFFFFFFFFFFFFFFFFFFFF DUP3 AND SWAP1 POP SWAP2 SWAP1 POP JUMP JUMPDEST PUSH1 0x0 DUP2 SWAP1 POP SWAP2 SWAP1 POP JUMP JUMPDEST DUP3 DUP2 DUP4 CALLDATACOPY PUSH1 0x0 DUP4 DUP4 ADD MSTORE POP POP POP JUMP JUMPDEST PUSH1 0x0 JUMPDEST DUP4 DUP2 LT ISZERO PUSH2 0x17B9 JUMPI DUP1 DUP3 ADD MLOAD DUP2 DUP5 ADD MSTORE PUSH1 0x20 DUP2 ADD SWAP1 POP PUSH2 0x179E JUMP JUMPDEST DUP4 DUP2 GT ISZERO PUSH2 0x17C8 JUMPI PUSH1 0x0 DUP5 DUP5 ADD MSTORE JUMPDEST POP POP POP POP JUMP JUMPDEST PUSH32 0x4E487B7100000000000000000000000000000000000000000000000000000000 PUSH1 0x0 MSTORE PUSH1 0x11 PUSH1 0x4 MSTORE PUSH1 0x24 PUSH1 0x0 REVERT JUMPDEST PUSH32 0x4E487B7100000000000000000000000000000000000000000000000000000000 PUSH1 0x0 MSTORE PUSH1 0x41 PUSH1 0x4 MSTORE PUSH1 0x24 PUSH1 0x0 REVERT JUMPDEST PUSH1 0x0 PUSH1 0x1F NOT PUSH1 0x1F DUP4 ADD AND SWAP1 POP SWAP2 SWAP1 POP JUMP JUMPDEST PUSH2 0x1846 DUP2 PUSH2 0x1744 JUMP JUMPDEST DUP2 EQ PUSH2 0x1851 JUMPI PUSH1 0x0 DUP1 REVERT JUMPDEST POP JUMP JUMPDEST PUSH2 0x185D DUP2 PUSH2 0x1782 JUMP JUMPDEST DUP2 EQ PUSH2 0x1868 JUMPI PUSH1 0x0 DUP1 REVERT JUMPDEST POP JUMP INVALID LOG2 PUSH5 0x6970667358 0x22 SLT KECCAK256 SHR SWAP1 0xAE SWAP13 0xD5 0x23 0xD9 MOD 0xBC 0xE7 0xE8 DUP7 0xA8 0x4C 0xA7 0x25 PUSH17 0xD7E636A274F3F385C42E987263E6176473 PUSH16 0x6C634300080000330000000000000000 "},"methodIdentifiers":{"login()":"b34e97e8","logout()":"1f3c99c3","playerAddresses(uint256)":"15c6aee2","players(address)":"e2eb41ff","registerPlayer()":"5c07a4b0","shareResources(address,string,uint256)":"7285bca9"}}}}}