{"contracts/ResourceSharingGame.sol":{"ResourceSharingGame":{"abi":[{"anonymous":false,"inputs":[{"indexed":true,"internalType":"address","name":"player","type":"address"}],"name":"PlayerLoggedIn","type":"event"},{"anonymous":false,"inputs":[{"indexed":true,"internalType":"address","name":"player","type":"address"}],"name":"PlayerLoggedOut","type":"event"},{"anonymous":false,"inputs":[{"indexed":true,"internalType":"address","name":"player","type":"address"}],"name":"PlayerRegistered","type":"event"},{"anonymous":false,"inputs":[{"indexed":true,"internalType":"address","name":"from","type":"address"},{"indexed":true,"internalType":"address","name":"to","type":"address"},{"indexed":false,"internalType":"string","name":"resourceType","type":"string"},{"indexed":false,"internalType":"uint256","name":"amount","type":"uint256"}],"name":"ResourceShared","type":"event"},{"anonymous":false,"inputs":[{"indexed":true,"internalType":"address","name":"player","type":"address"},{"indexed":false,"internalType":"string","name":"resourceType","type":"string"},{"indexed":false,"internalType":"uint256","name":"amount","type":"uint256"}],"name":"ResourcesAdded","type":"event"},{"inputs":[{"internalType":"string","name":"resourceType","type":"string"},{"internalType":"uint256","name":"amount","type":"uint256"}],"name":"addResources","outputs":[],"stateMutability":"nonpayable","type":"function"},{"inputs":[{"internalType":"address","name":"playerAddress","type":"address"}],"name":"getPlayer","outputs":[{"components":[{"internalType":"uint256","name":"id","type":"uint256"},{"internalType":"uint256","name":"wool","type":"uint256"},{"internalType":"uint256","name":"sheep","type":"uint256"},{"internalType":"uint256","name":"wolves","type":"uint256"},{"internalType":"uint256","name":"grass","type":"uint256"},{"internalType":"uint256","name":"farmer","type":"uint256"},{"internalType":"uint256","name":"land","type":"uint256"},{"internalType":"bool","name":"isLoggedIn","type":"bool"},{"internalType":"bool","name":"isRegistered","type":"bool"}],"internalType":"struct ResourceSharingGame.Player","name":"","type":"tuple"}],"stateMutability":"view","type":"function"},{"inputs":[],"name":"login","outputs":[],"stateMutability":"nonpayable","type":"function"},{"inputs":[],"name":"logout","outputs":[],"stateMutability":"nonpayable","type":"function"},{"inputs":[{"internalType":"uint256","name":"","type":"uint256"}],"name":"playerAddresses","outputs":[{"internalType":"address","name":"","type":"address"}],"stateMutability":"view","type":"function"},{"inputs":[],"name":"playerCount","outputs":[{"internalType":"uint256","name":"","type":"uint256"}],"stateMutability":"view","type":"function"},{"inputs":[{"internalType":"address","name":"","type":"address"}],"name":"players","outputs":[{"internalType":"uint256","name":"id","type":"uint256"},{"internalType":"uint256","name":"wool","type":"uint256"},{"internalType":"uint256","name":"sheep","type":"uint256"},{"internalType":"uint256","name":"wolves","type":"uint256"},{"internalType":"uint256","name":"grass","type":"uint256"},{"internalType":"uint256","name":"farmer","type":"uint256"},{"internalType":"uint256","name":"land","type":"uint256"},{"internalType":"bool","name":"isLoggedIn","type":"bool"},{"internalType":"bool","name":"isRegistered","type":"bool"}],"stateMutability":"view","type":"function"},{"inputs":[],"name":"registerPlayer","outputs":[],"stateMutability":"nonpayable","type":"function"},{"inputs":[{"internalType":"address","name":"to","type":"address"},{"internalType":"string","name":"resourceType","type":"string"},{"internalType":"uint256","name":"amount","type":"uint256"}],"name":"shareResources","outputs":[],"stateMutability":"nonpayable","type":"function"}],"evm":{"bytecode":{"linkReferences":{},"object":"608060405234801561001057600080fd5b506121f4806100206000396000f3fe608060405234801561001057600080fd5b50600436106100935760003560e01c80635c12cd4b116100665780635c12cd4b146100fa5780637285bca91461012a5780638a805d3514610146578063b34e97e814610162578063e2eb41ff1461016c57610093565b806315c6aee2146100985780631f3c99c3146100c8578063302bcc57146100d25780635c07a4b0146100f0575b600080fd5b6100b260048036038101906100ad9190611603565b6101a4565b6040516100bf9190611cad565b60405180910390f35b6100d06101e3565b005b6100da610312565b6040516100e79190611e94565b60405180910390f35b6100f8610318565b005b610114600480360381019061010f919061151f565b61057e565b6040516101219190611e78565b60405180910390f35b610144600480360381019061013f9190611548565b610654565b005b610160600480360381019061015b91906115af565b610e51565b005b61016a6112a7565b005b6101866004803603810190610181919061151f565b6113d5565b60405161019b99989796959493929190611eaf565b60405180910390f35b600281815481106101b457600080fd5b906000526020600020016000915054906101000a900473ffffffffffffffffffffffffffffffffffffffff1681565b600160003373ffffffffffffffffffffffffffffffffffffffff1673ffffffffffffffffffffffffffffffffffffffff16815260200190815260200160002060070160019054906101000a900460ff16610272576040517f08c379a000000000000000000000000000000000000000000000000000000000815260040161026990611e18565b60405180910390fd5b6000600160003373ffffffffffffffffffffffffffffffffffffffff1673ffffffffffffffffffffffffffffffffffffffff16815260200190815260200160002060070160006101000a81548160ff0219169083151502179055503373ffffffffffffffffffffffffffffffffffffffff167fbc9bb1519929a287abb5d2804891a6eb91e80e365a0d6dbad73b835e14ba63fe60405160405180910390a2565b60005481565b600160003373ffffffffffffffffffffffffffffffffffffffff1673ffffffffffffffffffffffffffffffffffffffff16815260200190815260200160002060070160019054906101000a900460ff16156103a8576040517f08c379a000000000000000000000000000000000000000000000000000000000815260040161039f90611d78565b60405180910390fd5b6000808154809291906103ba906120d8565b9190505550604051806101200160405280600054815260200160648152602001600a81526020016005815260200160328152602001600181526020016014815260200160001515815260200160011515815250600160003373ffffffffffffffffffffffffffffffffffffffff1673ffffffffffffffffffffffffffffffffffffffff168152602001908152602001600020600082015181600001556020820151816001015560408201518160020155606082015181600301556080820151816004015560a0820151816005015560c0820151816006015560e08201518160070160006101000a81548160ff0219169083151502179055506101008201518160070160016101000a81548160ff0219169083151502179055509050506002339080600181540180825580915050600190039060005260206000200160009091909190916101000a81548173ffffffffffffffffffffffffffffffffffffffff021916908373ffffffffffffffffffffffffffffffffffffffff1602179055503373ffffffffffffffffffffffffffffffffffffffff167f8cd3331e32cec677d80b82cf0f71496605e7ed6ff864a3ccedc7d5d11d838c8360405160405180910390a2565b61058661143d565b600160008373ffffffffffffffffffffffffffffffffffffffff1673ffffffffffffffffffffffffffffffffffffffff16815260200190815260200160002060405180610120016040529081600082015481526020016001820154815260200160028201548152602001600382015481526020016004820154815260200160058201548152602001600682015481526020016007820160009054906101000a900460ff161515151581526020016007820160019054906101000a900460ff1615151515815250509050919050565b600160003373ffffffffffffffffffffffffffffffffffffffff1673ffffffffffffffffffffffffffffffffffffffff16815260200190815260200160002060070160019054906101000a900460ff166106e3576040517f08c379a00000000000000000000000000000000000000000000000000000000081526004016106da90611e18565b60405180910390fd5b600160008473ffffffffffffffffffffffffffffffffffffffff1673ffffffffffffffffffffffffffffffffffffffff16815260200190815260200160002060070160019054906101000a900460ff16610772576040517f08c379a000000000000000000000000000000000000000000000000000000000815260040161076990611db8565b60405180910390fd5b600081116107b5576040517f08c379a00000000000000000000000000000000000000000000000000000000081526004016107ac90611d18565b60405180910390fd5b600073ffffffffffffffffffffffffffffffffffffffff168373ffffffffffffffffffffffffffffffffffffffff161415610825576040517f08c379a000000000000000000000000000000000000000000000000000000000815260040161081c90611d98565b60405180910390fd5b6000600160003373ffffffffffffffffffffffffffffffffffffffff1673ffffffffffffffffffffffffffffffffffffffff16815260200190815260200160002090506000600160008673ffffffffffffffffffffffffffffffffffffffff1673ffffffffffffffffffffffffffffffffffffffff16815260200190815260200160002090506040516020016108ba90611c98565b60405160208183030381529060405280519060200120846040516020016108e19190611c18565b60405160208183030381529060405280519060200120141561097f578282600101541015610944576040517f08c379a000000000000000000000000000000000000000000000000000000000815260040161093b90611e38565b60405180910390fd5b82826001016000828254610958919061201a565b92505081905550828160010160008282546109739190611fc4565b92505081905550610de3565b60405160200161098e90611c6e565b60405160208183030381529060405280519060200120846040516020016109b59190611c18565b604051602081830303815290604052805190602001201415610a53578282600201541015610a18576040517f08c379a0000000000000000000000000000000000000000000000000000000008152600401610a0f90611e58565b60405180910390fd5b82826002016000828254610a2c919061201a565b9250508190555082816002016000828254610a479190611fc4565b92505081905550610de2565b604051602001610a6290611c2f565b6040516020818303038152906040528051906020012084604051602001610a899190611c18565b604051602081830303815290604052805190602001201415610b27578282600301541015610aec576040517f08c379a0000000000000000000000000000000000000000000000000000000008152600401610ae390611dd8565b60405180910390fd5b82826003016000828254610b00919061201a565b9250508190555082816003016000828254610b1b9190611fc4565b92505081905550610de1565b604051602001610b3690611c59565b6040516020818303038152906040528051906020012084604051602001610b5d9190611c18565b604051602081830303815290604052805190602001201415610bfb578282600401541015610bc0576040517f08c379a0000000000000000000000000000000000000000000000000000000008152600401610bb790611df8565b60405180910390fd5b82826004016000828254610bd4919061201a565b9250508190555082816004016000828254610bef9190611fc4565b92505081905550610de0565b604051602001610c0a90611c83565b6040516020818303038152906040528051906020012084604051602001610c319190611c18565b604051602081830303815290604052805190602001201415610ccf578282600501541015610c94576040517f08c379a0000000000000000000000000000000000000000000000000000000008152600401610c8b90611cf8565b60405180910390fd5b82826005016000828254610ca8919061201a565b9250508190555082816005016000828254610cc39190611fc4565b92505081905550610ddf565b604051602001610cde90611c44565b6040516020818303038152906040528051906020012084604051602001610d059190611c18565b604051602081830303815290604052805190602001201415610da3578282600601541015610d68576040517f08c379a0000000000000000000000000000000000000000000000000000000008152600401610d5f90611d38565b60405180910390fd5b82826006016000828254610d7c919061201a565b9250508190555082816006016000828254610d979190611fc4565b92505081905550610dde565b6040517f08c379a0000000000000000000000000000000000000000000000000000000008152600401610dd590611d58565b60405180910390fd5b5b5b5b5b5b8473ffffffffffffffffffffffffffffffffffffffff163373ffffffffffffffffffffffffffffffffffffffff167fc811233d8689f13b04a6f0ac04bef0b0c01c08026a2db0b4b33e7ceaf541d05e8686604051610e42929190611cc8565b60405180910390a35050505050565b600160003373ffffffffffffffffffffffffffffffffffffffff1673ffffffffffffffffffffffffffffffffffffffff16815260200190815260200160002060070160019054906101000a900460ff16610ee0576040517f08c379a0000000000000000000000000000000000000000000000000000000008152600401610ed790611e18565b60405180910390fd5b60008111610f23576040517f08c379a0000000000000000000000000000000000000000000000000000000008152600401610f1a90611d18565b60405180910390fd5b6000600160003373ffffffffffffffffffffffffffffffffffffffff1673ffffffffffffffffffffffffffffffffffffffff1681526020019081526020016000209050604051602001610f7590611c98565b6040516020818303038152906040528051906020012083604051602001610f9c9190611c18565b604051602081830303815290604052805190602001201415610fd85781816001016000828254610fcc9190611fc4565b92505081905550611252565b604051602001610fe790611c6e565b604051602081830303815290604052805190602001208360405160200161100e9190611c18565b60405160208183030381529060405280519060200120141561104a578181600201600082825461103e9190611fc4565b92505081905550611251565b60405160200161105990611c2f565b60405160208183030381529060405280519060200120836040516020016110809190611c18565b6040516020818303038152906040528051906020012014156110bc57818160030160008282546110b09190611fc4565b92505081905550611250565b6040516020016110cb90611c59565b60405160208183030381529060405280519060200120836040516020016110f29190611c18565b60405160208183030381529060405280519060200120141561112e57818160040160008282546111229190611fc4565b9250508190555061124f565b60405160200161113d90611c83565b60405160208183030381529060405280519060200120836040516020016111649190611c18565b6040516020818303038152906040528051906020012014156111a057818160050160008282546111949190611fc4565b9250508190555061124e565b6040516020016111af90611c44565b60405160208183030381529060405280519060200120836040516020016111d69190611c18565b60405160208183030381529060405280519060200120141561121257818160060160008282546112069190611fc4565b9250508190555061124d565b6040517f08c379a000000000000000000000000000000000000000000000000000000000815260040161124490611d58565b60405180910390fd5b5b5b5b5b5b3373ffffffffffffffffffffffffffffffffffffffff167fc16e1e417f4c60fb9e214e8ea73831f7d3f7c87de1db8aeba31987e4d47763cc848460405161129a929190611cc8565b60405180910390a2505050565b600160003373ffffffffffffffffffffffffffffffffffffffff1673ffffffffffffffffffffffffffffffffffffffff16815260200190815260200160002060070160019054906101000a900460ff16611336576040517f08c379a000000000000000000000000000000000000000000000000000000000815260040161132d90611e18565b60405180910390fd5b60018060003373ffffffffffffffffffffffffffffffffffffffff1673ffffffffffffffffffffffffffffffffffffffff16815260200190815260200160002060070160006101000a81548160ff0219169083151502179055503373ffffffffffffffffffffffffffffffffffffffff167f5faeea7b4be271b047391ace93d7fc0b9c7873623609011165b0eb6009c307ee60405160405180910390a2565b60016020528060005260406000206000915090508060000154908060010154908060020154908060030154908060040154908060050154908060060154908060070160009054906101000a900460ff16908060070160019054906101000a900460ff16905089565b604051806101200160405280600081526020016000815260200160008152602001600081526020016000815260200160008152602001600081526020016000151581526020016000151581525090565b60006114a061149b84611f6d565b611f3c565b9050828152602081018484840111156114b857600080fd5b6114c3848285612096565b509392505050565b6000813590506114da81612190565b92915050565b600082601f8301126114f157600080fd5b813561150184826020860161148d565b91505092915050565b600081359050611519816121a7565b92915050565b60006020828403121561153157600080fd5b600061153f848285016114cb565b91505092915050565b60008060006060848603121561155d57600080fd5b600061156b868287016114cb565b935050602084013567ffffffffffffffff81111561158857600080fd5b611594868287016114e0565b92505060406115a58682870161150a565b9150509250925092565b600080604083850312156115c257600080fd5b600083013567ffffffffffffffff8111156115dc57600080fd5b6115e8858286016114e0565b92505060206115f98582860161150a565b9150509250929050565b60006020828403121561161557600080fd5b60006116238482850161150a565b91505092915050565b6116358161204e565b82525050565b61164481612060565b82525050565b61165381612060565b82525050565b600061166482611f9d565b61166e8185611fa8565b935061167e8185602086016120a5565b6116878161217f565b840191505092915050565b600061169d82611f9d565b6116a78185611fb9565b93506116b78185602086016120a5565b80840191505092915050565b60006116d0601283611fa8565b91507f4e6f7420656e6f756768206661726d65727300000000000000000000000000006000830152602082019050919050565b6000611710600683611fb9565b91507f776f6c76657300000000000000000000000000000000000000000000000000006000830152600682019050919050565b6000611750602083611fa8565b91507f416d6f756e74206d7573742062652067726561746572207468616e207a65726f6000830152602082019050919050565b6000611790600f83611fa8565b91507f4e6f7420656e6f756768206c616e6400000000000000000000000000000000006000830152602082019050919050565b60006117d0600483611fb9565b91507f6c616e64000000000000000000000000000000000000000000000000000000006000830152600482019050919050565b6000611810601583611fa8565b91507f496e76616c6964207265736f75726365207479706500000000000000000000006000830152602082019050919050565b6000611850600583611fb9565b91507f67726173730000000000000000000000000000000000000000000000000000006000830152600582019050919050565b6000611890600583611fb9565b91507f73686565700000000000000000000000000000000000000000000000000000006000830152600582019050919050565b60006118d0600683611fb9565b91507f6661726d657200000000000000000000000000000000000000000000000000006000830152600682019050919050565b6000611910601983611fa8565b91507f506c6179657220616c72656164792072656769737465726564000000000000006000830152602082019050919050565b6000611950601983611fa8565b91507f496e76616c696420726563697069656e742061646472657373000000000000006000830152602082019050919050565b6000611990601883611fa8565b91507f526563697069656e74206e6f74207265676973746572656400000000000000006000830152602082019050919050565b60006119d0600483611fb9565b91507f776f6f6c000000000000000000000000000000000000000000000000000000006000830152600482019050919050565b6000611a10601183611fa8565b91507f4e6f7420656e6f75676820776f6c7665730000000000000000000000000000006000830152602082019050919050565b6000611a50601083611fa8565b91507f4e6f7420656e6f756768206772617373000000000000000000000000000000006000830152602082019050919050565b6000611a90601583611fa8565b91507f506c61796572206e6f74207265676973746572656400000000000000000000006000830152602082019050919050565b6000611ad0600f83611fa8565b91507f4e6f7420656e6f75676820776f6f6c00000000000000000000000000000000006000830152602082019050919050565b6000611b10601083611fa8565b91507f4e6f7420656e6f756768207368656570000000000000000000000000000000006000830152602082019050919050565b61012082016000820151611b5a6000850182611bfa565b506020820151611b6d6020850182611bfa565b506040820151611b806040850182611bfa565b506060820151611b936060850182611bfa565b506080820151611ba66080850182611bfa565b5060a0820151611bb960a0850182611bfa565b5060c0820151611bcc60c0850182611bfa565b5060e0820151611bdf60e085018261163b565b50610100820151611bf461010085018261163b565b50505050565b611c038161208c565b82525050565b611c128161208c565b82525050565b6000611c248284611692565b915081905092915050565b6000611c3a82611703565b9150819050919050565b6000611c4f826117c3565b9150819050919050565b6000611c6482611843565b9150819050919050565b6000611c7982611883565b9150819050919050565b6000611c8e826118c3565b9150819050919050565b6000611ca3826119c3565b9150819050919050565b6000602082019050611cc2600083018461162c565b92915050565b60006040820190508181036000830152611ce28185611659565b9050611cf16020830184611c09565b9392505050565b60006020820190508181036000830152611d11816116c3565b9050919050565b60006020820190508181036000830152611d3181611743565b9050919050565b60006020820190508181036000830152611d5181611783565b9050919050565b60006020820190508181036000830152611d7181611803565b9050919050565b60006020820190508181036000830152611d9181611903565b9050919050565b60006020820190508181036000830152611db181611943565b9050919050565b60006020820190508181036000830152611dd181611983565b9050919050565b60006020820190508181036000830152611df181611a03565b9050919050565b60006020820190508181036000830152611e1181611a43565b9050919050565b60006020820190508181036000830152611e3181611a83565b9050919050565b60006020820190508181036000830152611e5181611ac3565b9050919050565b60006020820190508181036000830152611e7181611b03565b9050919050565b600061012082019050611e8e6000830184611b43565b92915050565b6000602082019050611ea96000830184611c09565b92915050565b600061012082019050611ec5600083018c611c09565b611ed2602083018b611c09565b611edf604083018a611c09565b611eec6060830189611c09565b611ef96080830188611c09565b611f0660a0830187611c09565b611f1360c0830186611c09565b611f2060e083018561164a565b611f2e61010083018461164a565b9a9950505050505050505050565b6000604051905081810181811067ffffffffffffffff82111715611f6357611f62612150565b5b8060405250919050565b600067ffffffffffffffff821115611f8857611f87612150565b5b601f19601f8301169050602081019050919050565b600081519050919050565b600082825260208201905092915050565b600081905092915050565b6000611fcf8261208c565b9150611fda8361208c565b9250827fffffffffffffffffffffffffffffffffffffffffffffffffffffffffffffffff0382111561200f5761200e612121565b5b828201905092915050565b60006120258261208c565b91506120308361208c565b92508282101561204357612042612121565b5b828203905092915050565b60006120598261206c565b9050919050565b60008115159050919050565b600073ffffffffffffffffffffffffffffffffffffffff82169050919050565b6000819050919050565b82818337600083830152505050565b60005b838110156120c35780820151818401526020810190506120a8565b838111156120d2576000848401525b50505050565b60006120e38261208c565b91507fffffffffffffffffffffffffffffffffffffffffffffffffffffffffffffffff82141561211657612115612121565b5b600182019050919050565b7f4e487b7100000000000000000000000000000000000000000000000000000000600052601160045260246000fd5b7f4e487b7100000000000000000000000000000000000000000000000000000000600052604160045260246000fd5b6000601f19601f8301169050919050565b6121998161204e565b81146121a457600080fd5b50565b6121b08161208c565b81146121bb57600080fd5b5056fea2646970667358221220f95bd0424529f613f7cda648dc700a17e28e434dd666faa256c7915e576faf7c64736f6c63430008000033","opcodes":"PUSH1 0x80 PUSH1 0x40 MSTORE CALLVALUE DUP1 ISZERO PUSH2 0x10 JUMPI PUSH1 0x0 DUP1 REVERT JUMPDEST POP PUSH2 0x21F4 DUP1 PUSH2 0x20 PUSH1 0x0 CODECOPY PUSH1 0x0 RETURN INVALID PUSH1 0x80 PUSH1 0x40 MSTORE CALLVALUE DUP1 ISZERO PUSH2 0x10 JUMPI PUSH1 0x0 DUP1 REVERT JUMPDEST POP PUSH1 0x4 CALLDATASIZE LT PUSH2 0x93 JUMPI PUSH1 0x0 CALLDATALOAD PUSH1 0xE0 SHR DUP1 PUSH4 0x5C12CD4B GT PUSH2 0x66 JUMPI DUP1 PUSH4 0x5C12CD4B EQ PUSH2 0xFA JUMPI DUP1 PUSH4 0x7285BCA9 EQ PUSH2 0x12A JUMPI DUP1 PUSH4 0x8A805D35 EQ PUSH2 0x146 JUMPI DUP1 PUSH4 0xB34E97E8 EQ PUSH2 0x162 JUMPI DUP1 PUSH4 0xE2EB41FF EQ PUSH2 0x16C JUMPI PUSH2 0x93 JUMP JUMPDEST DUP1 PUSH4 0x15C6AEE2 EQ PUSH2 0x98 JUMPI DUP1 PUSH4 0x1F3C99C3 EQ PUSH2 0xC8 JUMPI DUP1 PUSH4 0x302BCC57 EQ PUSH2 0xD2 JUMPI DUP1 PUSH4 0x5C07A4B0 EQ PUSH2 0xF0 JUMPI JUMPDEST PUSH1 0x0 DUP1 REVERT JUMPDEST PUSH2 0xB2 PUSH1 0x4 DUP1 CALLDATASIZE SUB DUP2 ADD SWAP1 PUSH2 0xAD SWAP2 SWAP1 PUSH2 0x1603 JUMP JUMPDEST PUSH2 0x1A4 JUMP JUMPDEST PUSH1 0x40 MLOAD PUSH2 0xBF SWAP2 SWAP1 PUSH2 0x1CAD JUMP JUMPDEST PUSH1 0x40 MLOAD DUP1 SWAP2 SUB SWAP1 RETURN JUMPDEST PUSH2 0xD0 PUSH2 0x1E3 JUMP JUMPDEST STOP JUMPDEST PUSH2 0xDA PUSH2 0x312 JUMP JUMPDEST PUSH1 0x40 MLOAD PUSH2 0xE7 SWAP2 SWAP1 PUSH2 0x1E94 JUMP JUMPDEST PUSH1 0x40 MLOAD DUP1 SWAP2 SUB SWAP1 RETURN JUMPDEST PUSH2 0xF8 PUSH2 0x318 JUMP JUMPDEST STOP JUMPDEST PUSH2 0x114 PUSH1 0x4 DUP1 CALLDATASIZE SUB DUP2 ADD SWAP1 PUSH2 0x10F SWAP2 SWAP1 PUSH2 0x151F JUMP JUMPDEST PUSH2 0x57E JUMP JUMPDEST PUSH1 0x40 MLOAD PUSH2 0x121 SWAP2 SWAP1 PUSH2 0x1E78 JUMP JUMPDEST PUSH1 0x40 MLOAD DUP1 SWAP2 SUB SWAP1 RETURN JUMPDEST PUSH2 0x144 PUSH1 0x4 DUP1 CALLDATASIZE SUB DUP2 ADD SWAP1 PUSH2 0x13F SWAP2 SWAP1 PUSH2 0x1548 JUMP JUMPDEST PUSH2 0x654 JUMP JUMPDEST STOP JUMPDEST PUSH2 0x160 PUSH1 0x4 DUP1 CALLDATASIZE SUB DUP2 ADD SWAP1 PUSH2 0x15B SWAP2 SWAP1 PUSH2 0x15AF JUMP JUMPDEST PUSH2 0xE51 JUMP JUMPDEST STOP JUMPDEST PUSH2 0x16A PUSH2 0x12A7 JUMP JUMPDEST STOP JUMPDEST PUSH2 0x186 PUSH1 0x4 DUP1 CALLDATASIZE SUB DUP2 ADD SWAP1 PUSH2 0x181 SWAP2 SWAP1 PUSH2 0x151F JUMP JUMPDEST PUSH2 0x13D5 JUMP JUMPDEST PUSH1 0x40 MLOAD PUSH2 0x19B SWAP10 SWAP9 SWAP8 SWAP7 SWAP6 SWAP5 SWAP4 SWAP3 SWAP2 SWAP1 PUSH2 0x1EAF JUMP JUMPDEST PUSH1 0x40 MLOAD DUP1 SWAP2 SUB SWAP1 RETURN JUMPDEST PUSH1 0x2 DUP2 DUP2 SLOAD DUP2 LT PUSH2 0x1B4 JUMPI PUSH1 0x0 DUP1 REVERT JUMPDEST SWAP1 PUSH1 0x0 MSTORE PUSH1 0x20 PUSH1 0x0 KECCAK256 ADD PUSH1 0x0 SWAP2 POP SLOAD SWAP1 PUSH2 0x100 EXP SWAP1 DIV PUSH20 0xFFFFFFFFFFFFFFFFFFFFFFFFFFFFFFFFFFFFFFFF AND DUP2 JUMP JUMPDEST PUSH1 0x1 PUSH1 0x0 CALLER PUSH20 0xFFFFFFFFFFFFFFFFFFFFFFFFFFFFFFFFFFFFFFFF AND PUSH20 0xFFFFFFFFFFFFFFFFFFFFFFFFFFFFFFFFFFFFFFFF AND DUP2 MSTORE PUSH1 0x20 ADD SWAP1 DUP2 MSTORE PUSH1 0x20 ADD PUSH1 0x0 KECCAK256 PUSH1 0x7 ADD PUSH1 0x1 SWAP1 SLOAD SWAP1 PUSH2 0x100 EXP SWAP1 DIV PUSH1 0xFF AND PUSH2 0x272 JUMPI PUSH1 0x40 MLOAD PUSH32 0x8C379A000000000000000000000000000000000000000000000000000000000 DUP2 MSTORE PUSH1 0x4 ADD PUSH2 0x269 SWAP1 PUSH2 0x1E18 JUMP JUMPDEST PUSH1 0x40 MLOAD DUP1 SWAP2 SUB SWAP1 REVERT JUMPDEST PUSH1 0x0 PUSH1 0x1 PUSH1 0x0 CALLER PUSH20 0xFFFFFFFFFFFFFFFFFFFFFFFFFFFFFFFFFFFFFFFF AND PUSH20 0xFFFFFFFFFFFFFFFFFFFFFFFFFFFFFFFFFFFFFFFF AND DUP2 MSTORE PUSH1 0x20 ADD SWAP1 DUP2 MSTORE PUSH1 0x20 ADD PUSH1 0x0 KECCAK256 PUSH1 0x7 ADD PUSH1 0x0 PUSH2 0x100 EXP DUP2 SLOAD DUP2 PUSH1 0xFF MUL NOT AND SWAP1 DUP4 ISZERO ISZERO MUL OR SWAP1 SSTORE POP CALLER PUSH20 0xFFFFFFFFFFFFFFFFFFFFFFFFFFFFFFFFFFFFFFFF AND PUSH32 0xBC9BB1519929A287ABB5D2804891A6EB91E80E365A0D6DBAD73B835E14BA63FE PUSH1 0x40 MLOAD PUSH1 0x40 MLOAD DUP1 SWAP2 SUB SWAP1 LOG2 JUMP JUMPDEST PUSH1 0x0 SLOAD DUP2 JUMP JUMPDEST PUSH1 0x1 PUSH1 0x0 CALLER PUSH20 0xFFFFFFFFFFFFFFFFFFFFFFFFFFFFFFFFFFFFFFFF AND PUSH20 0xFFFFFFFFFFFFFFFFFFFFFFFFFFFFFFFFFFFFFFFF AND DUP2 MSTORE PUSH1 0x20 ADD SWAP1 DUP2 MSTORE PUSH1 0x20 ADD PUSH1 0x0 KECCAK256 PUSH1 0x7 ADD PUSH1 0x1 SWAP1 SLOAD SWAP1 PUSH2 0x100 EXP SWAP1 DIV PUSH1 0xFF AND ISZERO PUSH2 0x3A8 JUMPI PUSH1 0x40 MLOAD PUSH32 0x8C379A000000000000000000000000000000000000000000000000000000000 DUP2 MSTORE PUSH1 0x4 ADD PUSH2 0x39F SWAP1 PUSH2 0x1D78 JUMP JUMPDEST PUSH1 0x40 MLOAD DUP1 SWAP2 SUB SWAP1 REVERT JUMPDEST PUSH1 0x0 DUP1 DUP2 SLOAD DUP1 SWAP3 SWAP2 SWAP1 PUSH2 0x3BA SWAP1 PUSH2 0x20D8 JUMP JUMPDEST SWAP2 SWAP1 POP SSTORE POP PUSH1 0x40 MLOAD DUP1 PUSH2 0x120 ADD PUSH1 0x40 MSTORE DUP1 PUSH1 0x0 SLOAD DUP2 MSTORE PUSH1 0x20 ADD PUSH1 0x64 DUP2 MSTORE PUSH1 0x20 ADD PUSH1 0xA DUP2 MSTORE PUSH1 0x20 ADD PUSH1 0x5 DUP2 MSTORE PUSH1 0x20 ADD PUSH1 0x32 DUP2 MSTORE PUSH1 0x20 ADD PUSH1 0x1 DUP2 MSTORE PUSH1 0x20 ADD PUSH1 0x14 DUP2 MSTORE PUSH1 0x20 ADD PUSH1 0x0 ISZERO ISZERO DUP2 MSTORE PUSH1 0x20 ADD PUSH1 0x1 ISZERO ISZERO DUP2 MSTORE POP PUSH1 0x1 PUSH1 0x0 CALLER PUSH20 0xFFFFFFFFFFFFFFFFFFFFFFFFFFFFFFFFFFFFFFFF AND PUSH20 0xFFFFFFFFFFFFFFFFFFFFFFFFFFFFFFFFFFFFFFFF AND DUP2 MSTORE PUSH1 0x20 ADD SWAP1 DUP2 MSTORE PUSH1 0x20 ADD PUSH1 0x0 KECCAK256 PUSH1 0x0 DUP3 ADD MLOAD DUP2 PUSH1 0x0 ADD SSTORE PUSH1 0x20 DUP3 ADD MLOAD DUP2 PUSH1 0x1 ADD SSTORE PUSH1 0x40 DUP3 ADD MLOAD DUP2 PUSH1 0x2 ADD SSTORE PUSH1 0x60 DUP3 ADD MLOAD DUP2 PUSH1 0x3 ADD SSTORE PUSH1 0x80 DUP3 ADD MLOAD DUP2 PUSH1 0x4 ADD SSTORE PUSH1 0xA0 DUP3 ADD MLOAD DUP2 PUSH1 0x5 ADD SSTORE PUSH1 0xC0 DUP3 ADD MLOAD DUP2 PUSH1 0x6 ADD SSTORE PUSH1 0xE0 DUP3 ADD MLOAD DUP2 PUSH1 0x7 ADD PUSH1 0x0 PUSH2 0x100 EXP DUP2 SLOAD DUP2 PUSH1 0xFF MUL NOT AND SWAP1 DUP4 ISZERO ISZERO MUL OR SWAP1 SSTORE POP PUSH2 0x100 DUP3 ADD MLOAD DUP2 PUSH1 0x7 ADD PUSH1 0x1 PUSH2 0x100 EXP DUP2 SLOAD DUP2 PUSH1 0xFF MUL NOT AND SWAP1 DUP4 ISZERO ISZERO MUL OR SWAP1 SSTORE POP SWAP1 POP POP PUSH1 0x2 CALLER SWAP1 DUP1 PUSH1 0x1 DUP2 SLOAD ADD DUP1 DUP3 SSTORE DUP1 SWAP2 POP POP PUSH1 0x1 SWAP1 SUB SWAP1 PUSH1 0x0 MSTORE PUSH1 0x20 PUSH1 0x0 KECCAK256 ADD PUSH1 0x0 SWAP1 SWAP2 SWAP1 SWAP2 SWAP1 SWAP2 PUSH2 0x100 EXP DUP2 SLOAD DUP2 PUSH20 0xFFFFFFFFFFFFFFFFFFFFFFFFFFFFFFFFFFFFFFFF MUL NOT AND SWAP1 DUP4 PUSH20 0xFFFFFFFFFFFFFFFFFFFFFFFFFFFFFFFFFFFFFFFF AND MUL OR SWAP1 SSTORE POP CALLER PUSH20 0xFFFFFFFFFFFFFFFFFFFFFFFFFFFFFFFFFFFFFFFF AND PUSH32 0x8CD3331E32CEC677D80B82CF0F71496605E7ED6FF864A3CCEDC7D5D11D838C83 PUSH1 0x40 MLOAD PUSH1 0x40 MLOAD DUP1 SWAP2 SUB SWAP1 LOG2 JUMP JUMPDEST PUSH2 0x586 PUSH2 0x143D JUMP JUMPDEST PUSH1 0x1 PUSH1 0x0 DUP4 PUSH20 0xFFFFFFFFFFFFFFFFFFFFFFFFFFFFFFFFFFFFFFFF AND PUSH20 0xFFFFFFFFFFFFFFFFFFFFFFFFFFFFFFFFFFFFFFFF AND DUP2 MSTORE PUSH1 0x20 ADD SWAP1 DUP2 MSTORE PUSH1 0x20 ADD PUSH1 0x0 KECCAK256 PUSH1 0x40 MLOAD DUP1 PUSH2 0x120 ADD PUSH1 0x40 MSTORE SWAP1 DUP2 PUSH1 0x0 DUP3 ADD SLOAD DUP2 MSTORE PUSH1 0x20 ADD PUSH1 0x1 DUP3 ADD SLOAD DUP2 MSTORE PUSH1 0x20 ADD PUSH1 0x2 DUP3 ADD SLOAD DUP2 MSTORE PUSH1 0x20 ADD PUSH1 0x3 DUP3 ADD SLOAD DUP2 MSTORE PUSH1 0x20 ADD PUSH1 0x4 DUP3 ADD SLOAD DUP2 MSTORE PUSH1 0x20 ADD PUSH1 0x5 DUP3 ADD SLOAD DUP2 MSTORE PUSH1 0x20 ADD PUSH1 0x6 DUP3 ADD SLOAD DUP2 MSTORE PUSH1 0x20 ADD PUSH1 0x7 DUP3 ADD PUSH1 0x0 SWAP1 SLOAD SWAP1 PUSH2 0x100 EXP SWAP1 DIV PUSH1 0xFF AND ISZERO ISZERO ISZERO ISZERO DUP2 MSTORE PUSH1 0x20 ADD PUSH1 0x7 DUP3 ADD PUSH1 0x1 SWAP1 SLOAD SWAP1 PUSH2 0x100 EXP SWAP1 DIV PUSH1 0xFF AND ISZERO ISZERO ISZERO ISZERO DUP2 MSTORE POP POP SWAP1 POP SWAP2 SWAP1 POP JUMP JUMPDEST PUSH1 0x1 PUSH1 0x0 CALLER PUSH20 0xFFFFFFFFFFFFFFFFFFFFFFFFFFFFFFFFFFFFFFFF AND PUSH20 0xFFFFFFFFFFFFFFFFFFFFFFFFFFFFFFFFFFFFFFFF AND DUP2 MSTORE PUSH1 0x20 ADD SWAP1 DUP2 MSTORE PUSH1 0x20 ADD PUSH1 0x0 KECCAK256 PUSH1 0x7 ADD PUSH1 0x1 SWAP1 SLOAD SWAP1 PUSH2 0x100 EXP SWAP1 DIV PUSH1 0xFF AND PUSH2 0x6E3 JUMPI PUSH1 0x40 MLOAD PUSH32 0x8C379A000000000000000000000000000000000000000000000000000000000 DUP2 MSTORE PUSH1 0x4 ADD PUSH2 0x6DA SWAP1 PUSH2 0x1E18 JUMP JUMPDEST PUSH1 0x40 MLOAD DUP1 SWAP2 SUB SWAP1 REVERT JUMPDEST PUSH1 0x1 PUSH1 0x0 DUP5 PUSH20 0xFFFFFFFFFFFFFFFFFFFFFFFFFFFFFFFFFFFFFFFF AND PUSH20 0xFFFFFFFFFFFFFFFFFFFFFFFFFFFFFFFFFFFFFFFF AND DUP2 MSTORE PUSH1 0x20 ADD SWAP1 DUP2 MSTORE PUSH1 0x20 ADD PUSH1 0x0 KECCAK256 PUSH1 0x7 ADD PUSH1 0x1 SWAP1 SLOAD SWAP1 PUSH2 0x100 EXP SWAP1 DIV PUSH1 0xFF AND PUSH2 0x772 JUMPI PUSH1 0x40 MLOAD PUSH32 0x8C379A000000000000000000000000000000000000000000000000000000000 DUP2 MSTORE PUSH1 0x4 ADD PUSH2 0x769 SWAP1 PUSH2 0x1DB8 JUMP JUMPDEST PUSH1 0x40 MLOAD DUP1 SWAP2 SUB SWAP1 REVERT JUMPDEST PUSH1 0x0 DUP2 GT PUSH2 0x7B5 JUMPI PUSH1 0x40 MLOAD PUSH32 0x8C379A000000000000000000000000000000000000000000000000000000000 DUP2 MSTORE PUSH1 0x4 ADD PUSH2 0x7AC SWAP1 PUSH2 0x1D18 JUMP JUMPDEST PUSH1 0x40 MLOAD DUP1 SWAP2 SUB SWAP1 REVERT JUMPDEST PUSH1 0x0 PUSH20 0xFFFFFFFFFFFFFFFFFFFFFFFFFFFFFFFFFFFFFFFF AND DUP4 PUSH20 0xFFFFFFFFFFFFFFFFFFFFFFFFFFFFFFFFFFFFFFFF AND EQ ISZERO PUSH2 0x825 JUMPI PUSH1 0x40 MLOAD PUSH32 0x8C379A000000000000000000000000000000000000000000000000000000000 DUP2 MSTORE PUSH1 0x4 ADD PUSH2 0x81C SWAP1 PUSH2 0x1D98 JUMP JUMPDEST PUSH1 0x40 MLOAD DUP1 SWAP2 SUB SWAP1 REVERT JUMPDEST PUSH1 0x0 PUSH1 0x1 PUSH1 0x0 CALLER PUSH20 0xFFFFFFFFFFFFFFFFFFFFFFFFFFFFFFFFFFFFFFFF AND PUSH20 0xFFFFFFFFFFFFFFFFFFFFFFFFFFFFFFFFFFFFFFFF AND DUP2 MSTORE PUSH1 0x20 ADD SWAP1 DUP2 MSTORE PUSH1 0x20 ADD PUSH1 0x0 KECCAK256 SWAP1 POP PUSH1 0x0 PUSH1 0x1 PUSH1 0x0 DUP7 PUSH20 0xFFFFFFFFFFFFFFFFFFFFFFFFFFFFFFFFFFFFFFFF AND PUSH20 0xFFFFFFFFFFFFFFFFFFFFFFFFFFFFFFFFFFFFFFFF AND DUP2 MSTORE PUSH1 0x20 ADD SWAP1 DUP2 MSTORE PUSH1 0x20 ADD PUSH1 0x0 KECCAK256 SWAP1 POP PUSH1 0x40 MLOAD PUSH1 0x20 ADD PUSH2 0x8BA SWAP1 PUSH2 0x1C98 JUMP JUMPDEST PUSH1 0x40 MLOAD PUSH1 0x20 DUP2 DUP4 SUB SUB DUP2 MSTORE SWAP1 PUSH1 0x40 MSTORE DUP1 MLOAD SWAP1 PUSH1 0x20 ADD KECCAK256 DUP5 PUSH1 0x40 MLOAD PUSH1 0x20 ADD PUSH2 0x8E1 SWAP2 SWAP1 PUSH2 0x1C18 JUMP JUMPDEST PUSH1 0x40 MLOAD PUSH1 0x20 DUP2 DUP4 SUB SUB DUP2 MSTORE SWAP1 PUSH1 0x40 MSTORE DUP1 MLOAD SWAP1 PUSH1 0x20 ADD KECCAK256 EQ ISZERO PUSH2 0x97F JUMPI DUP3 DUP3 PUSH1 0x1 ADD SLOAD LT ISZERO PUSH2 0x944 JUMPI PUSH1 0x40 MLOAD PUSH32 0x8C379A000000000000000000000000000000000000000000000000000000000 DUP2 MSTORE PUSH1 0x4 ADD PUSH2 0x93B SWAP1 PUSH2 0x1E38 JUMP JUMPDEST PUSH1 0x40 MLOAD DUP1 SWAP2 SUB SWAP1 REVERT JUMPDEST DUP3 DUP3 PUSH1 0x1 ADD PUSH1 0x0 DUP3 DUP3 SLOAD PUSH2 0x958 SWAP2 SWAP1 PUSH2 0x201A JUMP JUMPDEST SWAP3 POP POP DUP2 SWAP1 SSTORE POP DUP3 DUP2 PUSH1 0x1 ADD PUSH1 0x0 DUP3 DUP3 SLOAD PUSH2 0x973 SWAP2 SWAP1 PUSH2 0x1FC4 JUMP JUMPDEST SWAP3 POP POP DUP2 SWAP1 SSTORE POP PUSH2 0xDE3 JUMP JUMPDEST PUSH1 0x40 MLOAD PUSH1 0x20 ADD PUSH2 0x98E SWAP1 PUSH2 0x1C6E JUMP JUMPDEST PUSH1 0x40 MLOAD PUSH1 0x20 DUP2 DUP4 SUB SUB DUP2 MSTORE SWAP1 PUSH1 0x40 MSTORE DUP1 MLOAD SWAP1 PUSH1 0x20 ADD KECCAK256 DUP5 PUSH1 0x40 MLOAD PUSH1 0x20 ADD PUSH2 0x9B5 SWAP2 SWAP1 PUSH2 0x1C18 JUMP JUMPDEST PUSH1 0x40 MLOAD PUSH1 0x20 DUP2 DUP4 SUB SUB DUP2 MSTORE SWAP1 PUSH1 0x40 MSTORE DUP1 MLOAD SWAP1 PUSH1 0x20 ADD KECCAK256 EQ ISZERO PUSH2 0xA53 JUMPI DUP3 DUP3 PUSH1 0x2 ADD SLOAD LT ISZERO PUSH2 0xA18 JUMPI PUSH1 0x40 MLOAD PUSH32 0x8C379A000000000000000000000000000000000000000000000000000000000 DUP2 MSTORE PUSH1 0x4 ADD PUSH2 0xA0F SWAP1 PUSH2 0x1E58 JUMP JUMPDEST PUSH1 0x40 MLOAD DUP1 SWAP2 SUB SWAP1 REVERT JUMPDEST DUP3 DUP3 PUSH1 0x2 ADD PUSH1 0x0 DUP3 DUP3 SLOAD PUSH2 0xA2C SWAP2 SWAP1 PUSH2 0x201A JUMP JUMPDEST SWAP3 POP POP DUP2 SWAP1 SSTORE POP DUP3 DUP2 PUSH1 0x2 ADD PUSH1 0x0 DUP3 DUP3 SLOAD PUSH2 0xA47 SWAP2 SWAP1 PUSH2 0x1FC4 JUMP JUMPDEST SWAP3 POP POP DUP2 SWAP1 SSTORE POP PUSH2 0xDE2 JUMP JUMPDEST PUSH1 0x40 MLOAD PUSH1 0x20 ADD PUSH2 0xA62 SWAP1 PUSH2 0x1C2F JUMP JUMPDEST PUSH1 0x40 MLOAD PUSH1 0x20 DUP2 DUP4 SUB SUB DUP2 MSTORE SWAP1 PUSH1 0x40 MSTORE DUP1 MLOAD SWAP1 PUSH1 0x20 ADD KECCAK256 DUP5 PUSH1 0x40 MLOAD PUSH1 0x20 ADD PUSH2 0xA89 SWAP2 SWAP1 PUSH2 0x1C18 JUMP JUMPDEST PUSH1 0x40 MLOAD PUSH1 0x20 DUP2 DUP4 SUB SUB DUP2 MSTORE SWAP1 PUSH1 0x40 MSTORE DUP1 MLOAD SWAP1 PUSH1 0x20 ADD KECCAK256 EQ ISZERO PUSH2 0xB27 JUMPI DUP3 DUP3 PUSH1 0x3 ADD SLOAD LT ISZERO PUSH2 0xAEC JUMPI PUSH1 0x40 MLOAD PUSH32 0x8C379A000000000000000000000000000000000000000000000000000000000 DUP2 MSTORE PUSH1 0x4 ADD PUSH2 0xAE3 SWAP1 PUSH2 0x1DD8 JUMP JUMPDEST PUSH1 0x40 MLOAD DUP1 SWAP2 SUB SWAP1 REVERT JUMPDEST DUP3 DUP3 PUSH1 0x3 ADD PUSH1 0x0 DUP3 DUP3 SLOAD PUSH2 0xB00 SWAP2 SWAP1 PUSH2 0x201A JUMP JUMPDEST SWAP3 POP POP DUP2 SWAP1 SSTORE POP DUP3 DUP2 PUSH1 0x3 ADD PUSH1 0x0 DUP3 DUP3 SLOAD PUSH2 0xB1B SWAP2 SWAP1 PUSH2 0x1FC4 JUMP JUMPDEST SWAP3 POP POP DUP2 SWAP1 SSTORE POP PUSH2 0xDE1 JUMP JUMPDEST PUSH1 0x40 MLOAD PUSH1 0x20 ADD PUSH2 0xB36 SWAP1 PUSH2 0x1C59 JUMP JUMPDEST PUSH1 0x40 MLOAD PUSH1 0x20 DUP2 DUP4 SUB SUB DUP2 MSTORE SWAP1 PUSH1 0x40 MSTORE DUP1 MLOAD SWAP1 PUSH1 0x20 ADD KECCAK256 DUP5 PUSH1 0x40 MLOAD PUSH1 0x20 ADD PUSH2 0xB5D SWAP2 SWAP1 PUSH2 0x1C18 JUMP JUMPDEST PUSH1 0x40 MLOAD PUSH1 0x20 DUP2 DUP4 SUB SUB DUP2 MSTORE SWAP1 PUSH1 0x40 MSTORE DUP1 MLOAD SWAP1 PUSH1 0x20 ADD KECCAK256 EQ ISZERO PUSH2 0xBFB JUMPI DUP3 DUP3 PUSH1 0x4 ADD SLOAD LT ISZERO PUSH2 0xBC0 JUMPI PUSH1 0x40 MLOAD PUSH32 0x8C379A000000000000000000000000000000000000000000000000000000000 DUP2 MSTORE PUSH1 0x4 ADD PUSH2 0xBB7 SWAP1 PUSH2 0x1DF8 JUMP JUMPDEST PUSH1 0x40 MLOAD DUP1 SWAP2 SUB SWAP1 REVERT JUMPDEST DUP3 DUP3 PUSH1 0x4 ADD PUSH1 0x0 DUP3 DUP3 SLOAD PUSH2 0xBD4 SWAP2 SWAP1 PUSH2 0x201A JUMP JUMPDEST SWAP3 POP POP DUP2 SWAP1 SSTORE POP DUP3 DUP2 PUSH1 0x4 ADD PUSH1 0x0 DUP3 DUP3 SLOAD PUSH2 0xBEF SWAP2 SWAP1 PUSH2 0x1FC4 JUMP JUMPDEST SWAP3 POP POP DUP2 SWAP1 SSTORE POP PUSH2 0xDE0 JUMP JUMPDEST PUSH1 0x40 MLOAD PUSH1 0x20 ADD PUSH2 0xC0A SWAP1 PUSH2 0x1C83 JUMP JUMPDEST PUSH1 0x40 MLOAD PUSH1 0x20 DUP2 DUP4 SUB SUB DUP2 MSTORE SWAP1 PUSH1 0x40 MSTORE DUP1 MLOAD SWAP1 PUSH1 0x20 ADD KECCAK256 DUP5 PUSH1 0x40 MLOAD PUSH1 0x20 ADD PUSH2 0xC31 SWAP2 SWAP1 PUSH2 0x1C18 JUMP JUMPDEST PUSH1 0x40 MLOAD PUSH1 0x20 DUP2 DUP4 SUB SUB DUP2 MSTORE SWAP1 PUSH1 0x40 MSTORE DUP1 MLOAD SWAP1 PUSH1 0x20 ADD KECCAK256 EQ ISZERO PUSH2 0xCCF JUMPI DUP3 DUP3 PUSH1 0x5 ADD SLOAD LT ISZERO PUSH2 0xC94 JUMPI PUSH1 0x40 MLOAD PUSH32 0x8C379A000000000000000000000000000000000000000000000000000000000 DUP2 MSTORE PUSH1 0x4 ADD PUSH2 0xC8B SWAP1 PUSH2 0x1CF8 JUMP JUMPDEST PUSH1 0x40 MLOAD DUP1 SWAP2 SUB SWAP1 REVERT JUMPDEST DUP3 DUP3 PUSH1 0x5 ADD PUSH1 0x0 DUP3 DUP3 SLOAD PUSH2 0xCA8 SWAP2 SWAP1 PUSH2 0x201A JUMP JUMPDEST SWAP3 POP POP DUP2 SWAP1 SSTORE POP DUP3 DUP2 PUSH1 0x5 ADD PUSH1 0x0 DUP3 DUP3 SLOAD PUSH2 0xCC3 SWAP2 SWAP1 PUSH2 0x1FC4 JUMP JUMPDEST SWAP3 POP POP DUP2 SWAP1 SSTORE POP PUSH2 0xDDF JUMP JUMPDEST PUSH1 0x40 MLOAD PUSH1 0x20 ADD PUSH2 0xCDE SWAP1 PUSH2 0x1C44 JUMP JUMPDEST PUSH1 0x40 MLOAD PUSH1 0x20 DUP2 DUP4 SUB SUB DUP2 MSTORE SWAP1 PUSH1 0x40 MSTORE DUP1 MLOAD SWAP1 PUSH1 0x20 ADD KECCAK256 DUP5 PUSH1 0x40 MLOAD PUSH1 0x20 ADD PUSH2 0xD05 SWAP2 SWAP1 PUSH2 0x1C18 JUMP JUMPDEST PUSH1 0x40 MLOAD PUSH1 0x20 DUP2 DUP4 SUB SUB DUP2 MSTORE SWAP1 PUSH1 0x40 MSTORE DUP1 MLOAD SWAP1 PUSH1 0x20 ADD KECCAK256 EQ ISZERO PUSH2 0xDA3 JUMPI DUP3 DUP3 PUSH1 0x6 ADD SLOAD LT ISZERO PUSH2 0xD68 JUMPI PUSH1 0x40 MLOAD PUSH32 0x8C379A000000000000000000000000000000000000000000000000000000000 DUP2 MSTORE PUSH1 0x4 ADD PUSH2 0xD5F SWAP1 PUSH2 0x1D38 JUMP JUMPDEST PUSH1 0x40 MLOAD DUP1 SWAP2 SUB SWAP1 REVERT JUMPDEST DUP3 DUP3 PUSH1 0x6 ADD PUSH1 0x0 DUP3 DUP3 SLOAD PUSH2 0xD7C SWAP2 SWAP1 PUSH2 0x201A JUMP JUMPDEST SWAP3 POP POP DUP2 SWAP1 SSTORE POP DUP3 DUP2 PUSH1 0x6 ADD PUSH1 0x0 DUP3 DUP3 SLOAD PUSH2 0xD97 SWAP2 SWAP1 PUSH2 0x1FC4 JUMP JUMPDEST SWAP3 POP POP DUP2 SWAP1 SSTORE POP PUSH2 0xDDE JUMP JUMPDEST PUSH1 0x40 MLOAD PUSH32 0x8C379A000000000000000000000000000000000000000000000000000000000 DUP2 MSTORE PUSH1 0x4 ADD PUSH2 0xDD5 SWAP1 PUSH2 0x1D58 JUMP JUMPDEST PUSH1 0x40 MLOAD DUP1 SWAP2 SUB SWAP1 REVERT JUMPDEST JUMPDEST JUMPDEST JUMPDEST JUMPDEST JUMPDEST DUP5 PUSH20 0xFFFFFFFFFFFFFFFFFFFFFFFFFFFFFFFFFFFFFFFF AND CALLER PUSH20 0xFFFFFFFFFFFFFFFFFFFFFFFFFFFFFFFFFFFFFFFF AND PUSH32 0xC811233D8689F13B04A6F0AC04BEF0B0C01C08026A2DB0B4B33E7CEAF541D05E DUP7 DUP7 PUSH1 0x40 MLOAD PUSH2 0xE42 SWAP3 SWAP2 SWAP1 PUSH2 0x1CC8 JUMP JUMPDEST PUSH1 0x40 MLOAD DUP1 SWAP2 SUB SWAP1 LOG3 POP POP POP POP POP JUMP JUMPDEST PUSH1 0x1 PUSH1 0x0 CALLER PUSH20 0xFFFFFFFFFFFFFFFFFFFFFFFFFFFFFFFFFFFFFFFF AND PUSH20 0xFFFFFFFFFFFFFFFFFFFFFFFFFFFFFFFFFFFFFFFF AND DUP2 MSTORE PUSH1 0x20 ADD SWAP1 DUP2 MSTORE PUSH1 0x20 ADD PUSH1 0x0 KECCAK256 PUSH1 0x7 ADD PUSH1 0x1 SWAP1 SLOAD SWAP1 PUSH2 0x100 EXP SWAP1 DIV PUSH1 0xFF AND PUSH2 0xEE0 JUMPI PUSH1 0x40 MLOAD PUSH32 0x8C379A000000000000000000000000000000000000000000000000000000000 DUP2 MSTORE PUSH1 0x4 ADD PUSH2 0xED7 SWAP1 PUSH2 0x1E18 JUMP JUMPDEST PUSH1 0x40 MLOAD DUP1 SWAP2 SUB SWAP1 REVERT JUMPDEST PUSH1 0x0 DUP2 GT PUSH2 0xF23 JUMPI PUSH1 0x40 MLOAD PUSH32 0x8C379A000000000000000000000000000000000000000000000000000000000 DUP2 MSTORE PUSH1 0x4 ADD PUSH2 0xF1A SWAP1 PUSH2 0x1D18 JUMP JUMPDEST PUSH1 0x40 MLOAD DUP1 SWAP2 SUB SWAP1 REVERT JUMPDEST PUSH1 0x0 PUSH1 0x1 PUSH1 0x0 CALLER PUSH20 0xFFFFFFFFFFFFFFFFFFFFFFFFFFFFFFFFFFFFFFFF AND PUSH20 0xFFFFFFFFFFFFFFFFFFFFFFFFFFFFFFFFFFFFFFFF AND DUP2 MSTORE PUSH1 0x20 ADD SWAP1 DUP2 MSTORE PUSH1 0x20 ADD PUSH1 0x0 KECCAK256 SWAP1 POP PUSH1 0x40 MLOAD PUSH1 0x20 ADD PUSH2 0xF75 SWAP1 PUSH2 0x1C98 JUMP JUMPDEST PUSH1 0x40 MLOAD PUSH1 0x20 DUP2 DUP4 SUB SUB DUP2 MSTORE SWAP1 PUSH1 0x40 MSTORE DUP1 MLOAD SWAP1 PUSH1 0x20 ADD KECCAK256 DUP4 PUSH1 0x40 MLOAD PUSH1 0x20 ADD PUSH2 0xF9C SWAP2 SWAP1 PUSH2 0x1C18 JUMP JUMPDEST PUSH1 0x40 MLOAD PUSH1 0x20 DUP2 DUP4 SUB SUB DUP2 MSTORE SWAP1 PUSH1 0x40 MSTORE DUP1 MLOAD SWAP1 PUSH1 0x20 ADD KECCAK256 EQ ISZERO PUSH2 0xFD8 JUMPI DUP2 DUP2 PUSH1 0x1 ADD PUSH1 0x0 DUP3 DUP3 SLOAD PUSH2 0xFCC SWAP2 SWAP1 PUSH2 0x1FC4 JUMP JUMPDEST SWAP3 POP POP DUP2 SWAP1 SSTORE POP PUSH2 0x1252 JUMP JUMPDEST PUSH1 0x40 MLOAD PUSH1 0x20 ADD PUSH2 0xFE7 SWAP1 PUSH2 0x1C6E JUMP JUMPDEST PUSH1 0x40 MLOAD PUSH1 0x20 DUP2 DUP4 SUB SUB DUP2 MSTORE SWAP1 PUSH1 0x40 MSTORE DUP1 MLOAD SWAP1 PUSH1 0x20 ADD KECCAK256 DUP4 PUSH1 0x40 MLOAD PUSH1 0x20 ADD PUSH2 0x100E SWAP2 SWAP1 PUSH2 0x1C18 JUMP JUMPDEST PUSH1 0x40 MLOAD PUSH1 0x20 DUP2 DUP4 SUB SUB DUP2 MSTORE SWAP1 PUSH1 0x40 MSTORE DUP1 MLOAD SWAP1 PUSH1 0x20 ADD KECCAK256 EQ ISZERO PUSH2 0x104A JUMPI DUP2 DUP2 PUSH1 0x2 ADD PUSH1 0x0 DUP3 DUP3 SLOAD PUSH2 0x103E SWAP2 SWAP1 PUSH2 0x1FC4 JUMP JUMPDEST SWAP3 POP POP DUP2 SWAP1 SSTORE POP PUSH2 0x1251 JUMP JUMPDEST PUSH1 0x40 MLOAD PUSH1 0x20 ADD PUSH2 0x1059 SWAP1 PUSH2 0x1C2F JUMP JUMPDEST PUSH1 0x40 MLOAD PUSH1 0x20 DUP2 DUP4 SUB SUB DUP2 MSTORE SWAP1 PUSH1 0x40 MSTORE DUP1 MLOAD SWAP1 PUSH1 0x20 ADD KECCAK256 DUP4 PUSH1 0x40 MLOAD PUSH1 0x20 ADD PUSH2 0x1080 SWAP2 SWAP1 PUSH2 0x1C18 JUMP JUMPDEST PUSH1 0x40 MLOAD PUSH1 0x20 DUP2 DUP4 SUB SUB DUP2 MSTORE SWAP1 PUSH1 0x40 MSTORE DUP1 MLOAD SWAP1 PUSH1 0x20 ADD KECCAK256 EQ ISZERO PUSH2 0x10BC JUMPI DUP2 DUP2 PUSH1 0x3 ADD PUSH1 0x0 DUP3 DUP3 SLOAD PUSH2 0x10B0 SWAP2 SWAP1 PUSH2 0x1FC4 JUMP JUMPDEST SWAP3 POP POP DUP2 SWAP1 SSTORE POP PUSH2 0x1250 JUMP JUMPDEST PUSH1 0x40 MLOAD PUSH1 0x20 ADD PUSH2 0x10CB SWAP1 PUSH2 0x1C59 JUMP JUMPDEST PUSH1 0x40 MLOAD PUSH1 0x20 DUP2 DUP4 SUB SUB DUP2 MSTORE SWAP1 PUSH1 0x40 MSTORE DUP1 MLOAD SWAP1 PUSH1 0x20 ADD KECCAK256 DUP4 PUSH1 0x40 MLOAD PUSH1 0x20 ADD PUSH2 0x10F2 SWAP2 SWAP1 PUSH2 0x1C18 JUMP JUMPDEST PUSH1 0x40 MLOAD PUSH1 0x20 DUP2 DUP4 SUB SUB DUP2 MSTORE SWAP1 PUSH1 0x40 MSTORE DUP1 MLOAD SWAP1 PUSH1 0x20 ADD KECCAK256 EQ ISZERO PUSH2 0x112E JUMPI DUP2 DUP2 PUSH1 0x4 ADD PUSH1 0x0 DUP3 DUP3 SLOAD PUSH2 0x1122 SWAP2 SWAP1 PUSH2 0x1FC4 JUMP JUMPDEST SWAP3 POP POP DUP2 SWAP1 SSTORE POP PUSH2 0x124F JUMP JUMPDEST PUSH1 0x40 MLOAD PUSH1 0x20 ADD PUSH2 0x113D SWAP1 PUSH2 0x1C83 JUMP JUMPDEST PUSH1 0x40 MLOAD PUSH1 0x20 DUP2 DUP4 SUB SUB DUP2 MSTORE SWAP1 PUSH1 0x40 MSTORE DUP1 MLOAD SWAP1 PUSH1 0x20 ADD KECCAK256 DUP4 PUSH1 0x40 MLOAD PUSH1 0x20 ADD PUSH2 0x1164 SWAP2 SWAP1 PUSH2 0x1C18 JUMP JUMPDEST PUSH1 0x40 MLOAD PUSH1 0x20 DUP2 DUP4 SUB SUB DUP2 MSTORE SWAP1 PUSH1 0x40 MSTORE DUP1 MLOAD SWAP1 PUSH1 0x20 ADD KECCAK256 EQ ISZERO PUSH2 0x11A0 JUMPI DUP2 DUP2 PUSH1 0x5 ADD PUSH1 0x0 DUP3 DUP3 SLOAD PUSH2 0x1194 SWAP2 SWAP1 PUSH2 0x1FC4 JUMP JUMPDEST SWAP3 POP POP DUP2 SWAP1 SSTORE POP PUSH2 0x124E JUMP JUMPDEST PUSH1 0x40 MLOAD PUSH1 0x20 ADD PUSH2 0x11AF SWAP1 PUSH2 0x1C44 JUMP JUMPDEST PUSH1 0x40 MLOAD PUSH1 0x20 DUP2 DUP4 SUB SUB DUP2 MSTORE SWAP1 PUSH1 0x40 MSTORE DUP1 MLOAD SWAP1 PUSH1 0x20 ADD KECCAK256 DUP4 PUSH1 0x40 MLOAD PUSH1 0x20 ADD PUSH2 0x11D6 SWAP2 SWAP1 PUSH2 0x1C18 JUMP JUMPDEST PUSH1 0x40 MLOAD PUSH1 0x20 DUP2 DUP4 SUB SUB DUP2 MSTORE SWAP1 PUSH1 0x40 MSTORE DUP1 MLOAD SWAP1 PUSH1 0x20 ADD KECCAK256 EQ ISZERO PUSH2 0x1212 JUMPI DUP2 DUP2 PUSH1 0x6 ADD PUSH1 0x0 DUP3 DUP3 SLOAD PUSH2 0x1206 SWAP2 SWAP1 PUSH2 0x1FC4 JUMP JUMPDEST SWAP3 POP POP DUP2 SWAP1 SSTORE POP PUSH2 0x124D JUMP JUMPDEST PUSH1 0x40 MLOAD PUSH32 0x8C379A000000000000000000000000000000000000000000000000000000000 DUP2 MSTORE PUSH1 0x4 ADD PUSH2 0x1244 SWAP1 PUSH2 0x1D58 JUMP JUMPDEST PUSH1 0x40 MLOAD DUP1 SWAP2 SUB SWAP1 REVERT JUMPDEST JUMPDEST JUMPDEST JUMPDEST JUMPDEST JUMPDEST CALLER PUSH20 0xFFFFFFFFFFFFFFFFFFFFFFFFFFFFFFFFFFFFFFFF AND PUSH32 0xC16E1E417F4C60FB9E214E8EA73831F7D3F7C87DE1DB8AEBA31987E4D47763CC DUP5 DUP5 PUSH1 0x40 MLOAD PUSH2 0x129A SWAP3 SWAP2 SWAP1 PUSH2 0x1CC8 JUMP JUMPDEST PUSH1 0x40 MLOAD DUP1 SWAP2 SUB SWAP1 LOG2 POP POP POP JUMP JUMPDEST PUSH1 0x1 PUSH1 0x0 CALLER PUSH20 0xFFFFFFFFFFFFFFFFFFFFFFFFFFFFFFFFFFFFFFFF AND PUSH20 0xFFFFFFFFFFFFFFFFFFFFFFFFFFFFFFFFFFFFFFFF AND DUP2 MSTORE PUSH1 0x20 ADD SWAP1 DUP2 MSTORE PUSH1 0x20 ADD PUSH1 0x0 KECCAK256 PUSH1 0x7 ADD PUSH1 0x1 SWAP1 SLOAD SWAP1 PUSH2 0x100 EXP SWAP1 DIV PUSH1 0xFF AND PUSH2 0x1336 JUMPI PUSH1 0x40 MLOAD PUSH32 0x8C379A000000000000000000000000000000000000000000000000000000000 DUP2 MSTORE PUSH1 0x4 ADD PUSH2 0x132D SWAP1 PUSH2 0x1E18 JUMP JUMPDEST PUSH1 0x40 MLOAD DUP1 SWAP2 SUB SWAP1 REVERT JUMPDEST PUSH1 0x1 DUP1 PUSH1 0x0 CALLER PUSH20 0xFFFFFFFFFFFFFFFFFFFFFFFFFFFFFFFFFFFFFFFF AND PUSH20 0xFFFFFFFFFFFFFFFFFFFFFFFFFFFFFFFFFFFFFFFF AND DUP2 MSTORE PUSH1 0x20 ADD SWAP1 DUP2 MSTORE PUSH1 0x20 ADD PUSH1 0x0 KECCAK256 PUSH1 0x7 ADD PUSH1 0x0 PUSH2 0x100 EXP DUP2 SLOAD DUP2 PUSH1 0xFF MUL NOT AND SWAP1 DUP4 ISZERO ISZERO MUL OR SWAP1 SSTORE POP CALLER PUSH20 0xFFFFFFFFFFFFFFFFFFFFFFFFFFFFFFFFFFFFFFFF AND PUSH32 0x5FAEEA7B4BE271B047391ACE93D7FC0B9C7873623609011165B0EB6009C307EE PUSH1 0x40 MLOAD PUSH1 0x40 MLOAD DUP1 SWAP2 SUB SWAP1 LOG2 JUMP JUMPDEST PUSH1 0x1 PUSH1 0x20 MSTORE DUP1 PUSH1 0x0 MSTORE PUSH1 0x40 PUSH1 0x0 KECCAK256 PUSH1 0x0 SWAP2 POP SWAP1 POP DUP1 PUSH1 0x0 ADD SLOAD SWAP1 DUP1 PUSH1 0x1 ADD SLOAD SWAP1 DUP1 PUSH1 0x2 ADD SLOAD SWAP1 DUP1 PUSH1 0x3 ADD SLOAD SWAP1 DUP1 PUSH1 0x4 ADD SLOAD SWAP1 DUP1 PUSH1 0x5 ADD SLOAD SWAP1 DUP1 PUSH1 0x6 ADD SLOAD SWAP1 DUP1 PUSH1 0x7 ADD PUSH1 0x0 SWAP1 SLOAD SWAP1 PUSH2 0x100 EXP SWAP1 DIV PUSH1 0xFF AND SWAP1 DUP1 PUSH1 0x7 ADD PUSH1 0x1 SWAP1 SLOAD SWAP1 PUSH2 0x100 EXP SWAP1 DIV PUSH1 0xFF AND SWAP1 POP DUP10 JUMP JUMPDEST PUSH1 0x40 MLOAD DUP1 PUSH2 0x120 ADD PUSH1 0x40 MSTORE DUP1 PUSH1 0x0 DUP2 MSTORE PUSH1 0x20 ADD PUSH1 0x0 DUP2 MSTORE PUSH1 0x20 ADD PUSH1 0x0 DUP2 MSTORE PUSH1 0x20 ADD PUSH1 0x0 DUP2 MSTORE PUSH1 0x20 ADD PUSH1 0x0 DUP2 MSTORE PUSH1 0x20 ADD PUSH1 0x0 DUP2 MSTORE PUSH1 0x20 ADD PUSH1 0x0 DUP2 MSTORE PUSH1 0x20 ADD PUSH1 0x0 ISZERO ISZERO DUP2 MSTORE PUSH1 0x20 ADD PUSH1 0x0 ISZERO ISZERO DUP2 MSTORE POP SWAP1 JUMP JUMPDEST PUSH1 0x0 PUSH2 0x14A0 PUSH2 0x149B DUP5 PUSH2 0x1F6D JUMP JUMPDEST PUSH2 0x1F3C JUMP JUMPDEST SWAP1 POP DUP3 DUP2 MSTORE PUSH1 0x20 DUP2 ADD DUP5 DUP5 DUP5 ADD GT ISZERO PUSH2 0x14B8 JUMPI PUSH1 0x0 DUP1 REVERT JUMPDEST PUSH2 0x14C3 DUP5 DUP3 DUP6 PUSH2 0x2096 JUMP JUMPDEST POP SWAP4 SWAP3 POP POP POP JUMP JUMPDEST PUSH1 0x0 DUP2 CALLDATALOAD SWAP1 POP PUSH2 0x14DA DUP2 PUSH2 0x2190 JUMP JUMPDEST SWAP3 SWAP2 POP POP JUMP JUMPDEST PUSH1 0x0 DUP3 PUSH1 0x1F DUP4 ADD SLT PUSH2 0x14F1 JUMPI PUSH1 0x0 DUP1 REVERT JUMPDEST DUP2 CALLDATALOAD PUSH2 0x1501 DUP5 DUP3 PUSH1 0x20 DUP7 ADD PUSH2 0x148D JUMP JUMPDEST SWAP2 POP POP SWAP3 SWAP2 POP POP JUMP JUMPDEST PUSH1 0x0 DUP2 CALLDATALOAD SWAP1 POP PUSH2 0x1519 DUP2 PUSH2 0x21A7 JUMP JUMPDEST SWAP3 SWAP2 POP POP JUMP JUMPDEST PUSH1 0x0 PUSH1 0x20 DUP3 DUP5 SUB SLT ISZERO PUSH2 0x1531 JUMPI PUSH1 0x0 DUP1 REVERT JUMPDEST PUSH1 0x0 PUSH2 0x153F DUP5 DUP3 DUP6 ADD PUSH2 0x14CB JUMP JUMPDEST SWAP2 POP POP SWAP3 SWAP2 POP POP JUMP JUMPDEST PUSH1 0x0 DUP1 PUSH1 0x0 PUSH1 0x60 DUP5 DUP7 SUB SLT ISZERO PUSH2 0x155D JUMPI PUSH1 0x0 DUP1 REVERT JUMPDEST PUSH1 0x0 PUSH2 0x156B DUP7 DUP3 DUP8 ADD PUSH2 0x14CB JUMP JUMPDEST SWAP4 POP POP PUSH1 0x20 DUP5 ADD CALLDATALOAD PUSH8 0xFFFFFFFFFFFFFFFF DUP2 GT ISZERO PUSH2 0x1588 JUMPI PUSH1 0x0 DUP1 REVERT JUMPDEST PUSH2 0x1594 DUP7 DUP3 DUP8 ADD PUSH2 0x14E0 JUMP JUMPDEST SWAP3 POP POP PUSH1 0x40 PUSH2 0x15A5 DUP7 DUP3 DUP8 ADD PUSH2 0x150A JUMP JUMPDEST SWAP2 POP POP SWAP3 POP SWAP3 POP SWAP3 JUMP JUMPDEST PUSH1 0x0 DUP1 PUSH1 0x40 DUP4 DUP6 SUB SLT ISZERO PUSH2 0x15C2 JUMPI PUSH1 0x0 DUP1 REVERT JUMPDEST PUSH1 0x0 DUP4 ADD CALLDATALOAD PUSH8 0xFFFFFFFFFFFFFFFF DUP2 GT ISZERO PUSH2 0x15DC JUMPI PUSH1 0x0 DUP1 REVERT JUMPDEST PUSH2 0x15E8 DUP6 DUP3 DUP7 ADD PUSH2 0x14E0 JUMP JUMPDEST SWAP3 POP POP PUSH1 0x20 PUSH2 0x15F9 DUP6 DUP3 DUP7 ADD PUSH2 0x150A JUMP JUMPDEST SWAP2 POP POP SWAP3 POP SWAP3 SWAP1 POP JUMP JUMPDEST PUSH1 0x0 PUSH1 0x20 DUP3 DUP5 SUB SLT ISZERO PUSH2 0x1615 JUMPI PUSH1 0x0 DUP1 REVERT JUMPDEST PUSH1 0x0 PUSH2 0x1623 DUP5 DUP3 DUP6 ADD PUSH2 0x150A JUMP JUMPDEST SWAP2 POP POP SWAP3 SWAP2 POP POP JUMP JUMPDEST PUSH2 0x1635 DUP2 PUSH2 0x204E JUMP JUMPDEST DUP3 MSTORE POP POP JUMP JUMPDEST PUSH2 0x1644 DUP2 PUSH2 0x2060 JUMP JUMPDEST DUP3 MSTORE POP POP JUMP JUMPDEST PUSH2 0x1653 DUP2 PUSH2 0x2060 JUMP JUMPDEST DUP3 MSTORE POP POP JUMP JUMPDEST PUSH1 0x0 PUSH2 0x1664 DUP3 PUSH2 0x1F9D JUMP JUMPDEST PUSH2 0x166E DUP2 DUP6 PUSH2 0x1FA8 JUMP JUMPDEST SWAP4 POP PUSH2 0x167E DUP2 DUP6 PUSH1 0x20 DUP7 ADD PUSH2 0x20A5 JUMP JUMPDEST PUSH2 0x1687 DUP2 PUSH2 0x217F JUMP JUMPDEST DUP5 ADD SWAP2 POP POP SWAP3 SWAP2 POP POP JUMP JUMPDEST PUSH1 0x0 PUSH2 0x169D DUP3 PUSH2 0x1F9D JUMP JUMPDEST PUSH2 0x16A7 DUP2 DUP6 PUSH2 0x1FB9 JUMP JUMPDEST SWAP4 POP PUSH2 0x16B7 DUP2 DUP6 PUSH1 0x20 DUP7 ADD PUSH2 0x20A5 JUMP JUMPDEST DUP1 DUP5 ADD SWAP2 POP POP SWAP3 SWAP2 POP POP JUMP JUMPDEST PUSH1 0x0 PUSH2 0x16D0 PUSH1 0x12 DUP4 PUSH2 0x1FA8 JUMP JUMPDEST SWAP2 POP PUSH32 0x4E6F7420656E6F756768206661726D6572730000000000000000000000000000 PUSH1 0x0 DUP4 ADD MSTORE PUSH1 0x20 DUP3 ADD SWAP1 POP SWAP2 SWAP1 POP JUMP JUMPDEST PUSH1 0x0 PUSH2 0x1710 PUSH1 0x6 DUP4 PUSH2 0x1FB9 JUMP JUMPDEST SWAP2 POP PUSH32 0x776F6C7665730000000000000000000000000000000000000000000000000000 PUSH1 0x0 DUP4 ADD MSTORE PUSH1 0x6 DUP3 ADD SWAP1 POP SWAP2 SWAP1 POP JUMP JUMPDEST PUSH1 0x0 PUSH2 0x1750 PUSH1 0x20 DUP4 PUSH2 0x1FA8 JUMP JUMPDEST SWAP2 POP PUSH32 0x416D6F756E74206D7573742062652067726561746572207468616E207A65726F PUSH1 0x0 DUP4 ADD MSTORE PUSH1 0x20 DUP3 ADD SWAP1 POP SWAP2 SWAP1 POP JUMP JUMPDEST PUSH1 0x0 PUSH2 0x1790 PUSH1 0xF DUP4 PUSH2 0x1FA8 JUMP JUMPDEST SWAP2 POP PUSH32 0x4E6F7420656E6F756768206C616E640000000000000000000000000000000000 PUSH1 0x0 DUP4 ADD MSTORE PUSH1 0x20 DUP3 ADD SWAP1 POP SWAP2 SWAP1 POP JUMP JUMPDEST PUSH1 0x0 PUSH2 0x17D0 PUSH1 0x4 DUP4 PUSH2 0x1FB9 JUMP JUMPDEST SWAP2 POP PUSH32 0x6C616E6400000000000000000000000000000000000000000000000000000000 PUSH1 0x0 DUP4 ADD MSTORE PUSH1 0x4 DUP3 ADD SWAP1 POP SWAP2 SWAP1 POP JUMP JUMPDEST PUSH1 0x0 PUSH2 0x1810 PUSH1 0x15 DUP4 PUSH2 0x1FA8 JUMP JUMPDEST SWAP2 POP PUSH32 0x496E76616C6964207265736F7572636520747970650000000000000000000000 PUSH1 0x0 DUP4 ADD MSTORE PUSH1 0x20 DUP3 ADD SWAP1 POP SWAP2 SWAP1 POP JUMP JUMPDEST PUSH1 0x0 PUSH2 0x1850 PUSH1 0x5 DUP4 PUSH2 0x1FB9 JUMP JUMPDEST SWAP2 POP PUSH32 0x6772617373000000000000000000000000000000000000000000000000000000 PUSH1 0x0 DUP4 ADD MSTORE PUSH1 0x5 DUP3 ADD SWAP1 POP SWAP2 SWAP1 POP JUMP JUMPDEST PUSH1 0x0 PUSH2 0x1890 PUSH1 0x5 DUP4 PUSH2 0x1FB9 JUMP JUMPDEST SWAP2 POP PUSH32 0x7368656570000000000000000000000000000000000000000000000000000000 PUSH1 0x0 DUP4 ADD MSTORE PUSH1 0x5 DUP3 ADD SWAP1 POP SWAP2 SWAP1 POP JUMP JUMPDEST PUSH1 0x0 PUSH2 0x18D0 PUSH1 0x6 DUP4 PUSH2 0x1FB9 JUMP JUMPDEST SWAP2 POP PUSH32 0x6661726D65720000000000000000000000000000000000000000000000000000 PUSH1 0x0 DUP4 ADD MSTORE PUSH1 0x6 DUP3 ADD SWAP1 POP SWAP2 SWAP1 POP JUMP JUMPDEST PUSH1 0x0 PUSH2 0x1910 PUSH1 0x19 DUP4 PUSH2 0x1FA8 JUMP JUMPDEST SWAP2 POP PUSH32 0x506C6179657220616C7265616479207265676973746572656400000000000000 PUSH1 0x0 DUP4 ADD MSTORE PUSH1 0x20 DUP3 ADD SWAP1 POP SWAP2 SWAP1 POP JUMP JUMPDEST PUSH1 0x0 PUSH2 0x1950 PUSH1 0x19 DUP4 PUSH2 0x1FA8 JUMP JUMPDEST SWAP2 POP PUSH32 0x496E76616C696420726563697069656E74206164647265737300000000000000 PUSH1 0x0 DUP4 ADD MSTORE PUSH1 0x20 DUP3 ADD SWAP1 POP SWAP2 SWAP1 POP JUMP JUMPDEST PUSH1 0x0 PUSH2 0x1990 PUSH1 0x18 DUP4 PUSH2 0x1FA8 JUMP JUMPDEST SWAP2 POP PUSH32 0x526563697069656E74206E6F7420726567697374657265640000000000000000 PUSH1 0x0 DUP4 ADD MSTORE PUSH1 0x20 DUP3 ADD SWAP1 POP SWAP2 SWAP1 POP JUMP JUMPDEST PUSH1 0x0 PUSH2 0x19D0 PUSH1 0x4 DUP4 PUSH2 0x1FB9 JUMP JUMPDEST SWAP2 POP PUSH32 0x776F6F6C00000000000000000000000000000000000000000000000000000000 PUSH1 0x0 DUP4 ADD MSTORE PUSH1 0x4 DUP3 ADD SWAP1 POP SWAP2 SWAP1 POP JUMP JUMPDEST PUSH1 0x0 PUSH2 0x1A10 PUSH1 0x11 DUP4 PUSH2 0x1FA8 JUMP JUMPDEST SWAP2 POP PUSH32 0x4E6F7420656E6F75676820776F6C766573000000000000000000000000000000 PUSH1 0x0 DUP4 ADD MSTORE PUSH1 0x20 DUP3 ADD SWAP1 POP SWAP2 SWAP1 POP JUMP JUMPDEST PUSH1 0x0 PUSH2 0x1A50 PUSH1 0x10 DUP4 PUSH2 0x1FA8 JUMP JUMPDEST SWAP2 POP PUSH32 0x4E6F7420656E6F75676820677261737300000000000000000000000000000000 PUSH1 0x0 DUP4 ADD MSTORE PUSH1 0x20 DUP3 ADD SWAP1 POP SWAP2 SWAP1 POP JUMP JUMPDEST PUSH1 0x0 PUSH2 0x1A90 PUSH1 0x15 DUP4 PUSH2 0x1FA8 JUMP JUMPDEST SWAP2 POP PUSH32 0x506C61796572206E6F7420726567697374657265640000000000000000000000 PUSH1 0x0 DUP4 ADD MSTORE PUSH1 0x20 DUP3 ADD SWAP1 POP SWAP2 SWAP1 POP JUMP JUMPDEST PUSH1 0x0 PUSH2 0x1AD0 PUSH1 0xF DUP4 PUSH2 0x1FA8 JUMP JUMPDEST SWAP2 POP PUSH32 0x4E6F7420656E6F75676820776F6F6C0000000000000000000000000000000000 PUSH1 0x0 DUP4 ADD MSTORE PUSH1 0x20 DUP3 ADD SWAP1 POP SWAP2 SWAP1 POP JUMP JUMPDEST PUSH1 0x0 PUSH2 0x1B10 PUSH1 0x10 DUP4 PUSH2 0x1FA8 JUMP JUMPDEST SWAP2 POP PUSH32 0x4E6F7420656E6F75676820736865657000000000000000000000000000000000 PUSH1 0x0 DUP4 ADD MSTORE PUSH1 0x20 DUP3 ADD SWAP1 POP SWAP2 SWAP1 POP JUMP JUMPDEST PUSH2 0x120 DUP3 ADD PUSH1 0x0 DUP3 ADD MLOAD PUSH2 0x1B5A PUSH1 0x0 DUP6 ADD DUP3 PUSH2 0x1BFA JUMP JUMPDEST POP PUSH1 0x20 DUP3 ADD MLOAD PUSH2 0x1B6D PUSH1 0x20 DUP6 ADD DUP3 PUSH2 0x1BFA JUMP JUMPDEST POP PUSH1 0x40 DUP3 ADD MLOAD PUSH2 0x1B80 PUSH1 0x40 DUP6 ADD DUP3 PUSH2 0x1BFA JUMP JUMPDEST POP PUSH1 0x60 DUP3 ADD MLOAD PUSH2 0x1B93 PUSH1 0x60 DUP6 ADD DUP3 PUSH2 0x1BFA JUMP JUMPDEST POP PUSH1 0x80 DUP3 ADD MLOAD PUSH2 0x1BA6 PUSH1 0x80 DUP6 ADD DUP3 PUSH2 0x1BFA JUMP JUMPDEST POP PUSH1 0xA0 DUP3 ADD MLOAD PUSH2 0x1BB9 PUSH1 0xA0 DUP6 ADD DUP3 PUSH2 0x1BFA JUMP JUMPDEST POP PUSH1 0xC0 DUP3 ADD MLOAD PUSH2 0x1BCC PUSH1 0xC0 DUP6 ADD DUP3 PUSH2 0x1BFA JUMP JUMPDEST POP PUSH1 0xE0 DUP3 ADD MLOAD PUSH2 0x1BDF PUSH1 0xE0 DUP6 ADD DUP3 PUSH2 0x163B JUMP JUMPDEST POP PUSH2 0x100 DUP3 ADD MLOAD PUSH2 0x1BF4 PUSH2 0x100 DUP6 ADD DUP3 PUSH2 0x163B JUMP JUMPDEST POP POP POP POP JUMP JUMPDEST PUSH2 0x1C03 DUP2 PUSH2 0x208C JUMP JUMPDEST DUP3 MSTORE POP POP JUMP JUMPDEST PUSH2 0x1C12 DUP2 PUSH2 0x208C JUMP JUMPDEST DUP3 MSTORE POP POP JUMP JUMPDEST PUSH1 0x0 PUSH2 0x1C24 DUP3 DUP5 PUSH2 0x1692 JUMP JUMPDEST SWAP2 POP DUP2 SWAP1 POP SWAP3 SWAP2 POP POP JUMP JUMPDEST PUSH1 0x0 PUSH2 0x1C3A DUP3 PUSH2 0x1703 JUMP JUMPDEST SWAP2 POP DUP2 SWAP1 POP SWAP2 SWAP1 POP JUMP JUMPDEST PUSH1 0x0 PUSH2 0x1C4F DUP3 PUSH2 0x17C3 JUMP JUMPDEST SWAP2 POP DUP2 SWAP1 POP SWAP2 SWAP1 POP JUMP JUMPDEST PUSH1 0x0 PUSH2 0x1C64 DUP3 PUSH2 0x1843 JUMP JUMPDEST SWAP2 POP DUP2 SWAP1 POP SWAP2 SWAP1 POP JUMP JUMPDEST PUSH1 0x0 PUSH2 0x1C79 DUP3 PUSH2 0x1883 JUMP JUMPDEST SWAP2 POP DUP2 SWAP1 POP SWAP2 SWAP1 POP JUMP JUMPDEST PUSH1 0x0 PUSH2 0x1C8E DUP3 PUSH2 0x18C3 JUMP JUMPDEST SWAP2 POP DUP2 SWAP1 POP SWAP2 SWAP1 POP JUMP JUMPDEST PUSH1 0x0 PUSH2 0x1CA3 DUP3 PUSH2 0x19C3 JUMP JUMPDEST SWAP2 POP DUP2 SWAP1 POP SWAP2 SWAP1 POP JUMP JUMPDEST PUSH1 0x0 PUSH1 0x20 DUP3 ADD SWAP1 POP PUSH2 0x1CC2 PUSH1 0x0 DUP4 ADD DUP5 PUSH2 0x162C JUMP JUMPDEST SWAP3 SWAP2 POP POP JUMP JUMPDEST PUSH1 0x0 PUSH1 0x40 DUP3 ADD SWAP1 POP DUP2 DUP2 SUB PUSH1 0x0 DUP4 ADD MSTORE PUSH2 0x1CE2 DUP2 DUP6 PUSH2 0x1659 JUMP JUMPDEST SWAP1 POP PUSH2 0x1CF1 PUSH1 0x20 DUP4 ADD DUP5 PUSH2 0x1C09 JUMP JUMPDEST SWAP4 SWAP3 POP POP POP JUMP JUMPDEST PUSH1 0x0 PUSH1 0x20 DUP3 ADD SWAP1 POP DUP2 DUP2 SUB PUSH1 0x0 DUP4 ADD MSTORE PUSH2 0x1D11 DUP2 PUSH2 0x16C3 JUMP JUMPDEST SWAP1 POP SWAP2 SWAP1 POP JUMP JUMPDEST PUSH1 0x0 PUSH1 0x20 DUP3 ADD SWAP1 POP DUP2 DUP2 SUB PUSH1 0x0 DUP4 ADD MSTORE PUSH2 0x1D31 DUP2 PUSH2 0x1743 JUMP JUMPDEST SWAP1 POP SWAP2 SWAP1 POP JUMP JUMPDEST PUSH1 0x0 PUSH1 0x20 DUP3 ADD SWAP1 POP DUP2 DUP2 SUB PUSH1 0x0 DUP4 ADD MSTORE PUSH2 0x1D51 DUP2 PUSH2 0x1783 JUMP JUMPDEST SWAP1 POP SWAP2 SWAP1 POP JUMP JUMPDEST PUSH1 0x0 PUSH1 0x20 DUP3 ADD SWAP1 POP DUP2 DUP2 SUB PUSH1 0x0 DUP4 ADD MSTORE PUSH2 0x1D71 DUP2 PUSH2 0x1803 JUMP JUMPDEST SWAP1 POP SWAP2 SWAP1 POP JUMP JUMPDEST PUSH1 0x0 PUSH1 0x20 DUP3 ADD SWAP1 POP DUP2 DUP2 SUB PUSH1 0x0 DUP4 ADD MSTORE PUSH2 0x1D91 DUP2 PUSH2 0x1903 JUMP JUMPDEST SWAP1 POP SWAP2 SWAP1 POP JUMP JUMPDEST PUSH1 0x0 PUSH1 0x20 DUP3 ADD SWAP1 POP DUP2 DUP2 SUB PUSH1 0x0 DUP4 ADD MSTORE PUSH2 0x1DB1 DUP2 PUSH2 0x1943 JUMP JUMPDEST SWAP1 POP SWAP2 SWAP1 POP JUMP JUMPDEST PUSH1 0x0 PUSH1 0x20 DUP3 ADD SWAP1 POP DUP2 DUP2 SUB PUSH1 0x0 DUP4 ADD MSTORE PUSH2 0x1DD1 DUP2 PUSH2 0x1983 JUMP JUMPDEST SWAP1 POP SWAP2 SWAP1 POP JUMP JUMPDEST PUSH1 0x0 PUSH1 0x20 DUP3 ADD SWAP1 POP DUP2 DUP2 SUB PUSH1 0x0 DUP4 ADD MSTORE PUSH2 0x1DF1 DUP2 PUSH2 0x1A03 JUMP JUMPDEST SWAP1 POP SWAP2 SWAP1 POP JUMP JUMPDEST PUSH1 0x0 PUSH1 0x20 DUP3 ADD SWAP1 POP DUP2 DUP2 SUB PUSH1 0x0 DUP4 ADD MSTORE PUSH2 0x1E11 DUP2 PUSH2 0x1A43 JUMP JUMPDEST SWAP1 POP SWAP2 SWAP1 POP JUMP JUMPDEST PUSH1 0x0 PUSH1 0x20 DUP3 ADD SWAP1 POP DUP2 DUP2 SUB PUSH1 0x0 DUP4 ADD MSTORE PUSH2 0x1E31 DUP2 PUSH2 0x1A83 JUMP JUMPDEST SWAP1 POP SWAP2 SWAP1 POP JUMP JUMPDEST PUSH1 0x0 PUSH1 0x20 DUP3 ADD SWAP1 POP DUP2 DUP2 SUB PUSH1 0x0 DUP4 ADD MSTORE PUSH2 0x1E51 DUP2 PUSH2 0x1AC3 JUMP JUMPDEST SWAP1 POP SWAP2 SWAP1 POP JUMP JUMPDEST PUSH1 0x0 PUSH1 0x20 DUP3 ADD SWAP1 POP DUP2 DUP2 SUB PUSH1 0x0 DUP4 ADD MSTORE PUSH2 0x1E71 DUP2 PUSH2 0x1B03 JUMP JUMPDEST SWAP1 POP SWAP2 SWAP1 POP JUMP JUMPDEST PUSH1 0x0 PUSH2 0x120 DUP3 ADD SWAP1 POP PUSH2 0x1E8E PUSH1 0x0 DUP4 ADD DUP5 PUSH2 0x1B43 JUMP JUMPDEST SWAP3 SWAP2 POP POP JUMP JUMPDEST PUSH1 0x0 PUSH1 0x20 DUP3 ADD SWAP1 POP PUSH2 0x1EA9 PUSH1 0x0 DUP4 ADD DUP5 PUSH2 0x1C09 JUMP JUMPDEST SWAP3 SWAP2 POP POP JUMP JUMPDEST PUSH1 0x0 PUSH2 0x120 DUP3 ADD SWAP1 POP PUSH2 0x1EC5 PUSH1 0x0 DUP4 ADD DUP13 PUSH2 0x1C09 JUMP JUMPDEST PUSH2 0x1ED2 PUSH1 0x20 DUP4 ADD DUP12 PUSH2 0x1C09 JUMP JUMPDEST PUSH2 0x1EDF PUSH1 0x40 DUP4 ADD DUP11 PUSH2 0x1C09 JUMP JUMPDEST PUSH2 0x1EEC PUSH1 0x60 DUP4 ADD DUP10 PUSH2 0x1C09 JUMP JUMPDEST PUSH2 0x1EF9 PUSH1 0x80 DUP4 ADD DUP9 PUSH2 0x1C09 JUMP JUMPDEST PUSH2 0x1F06 PUSH1 0xA0 DUP4 ADD DUP8 PUSH2 0x1C09 JUMP JUMPDEST PUSH2 0x1F13 PUSH1 0xC0 DUP4 ADD DUP7 PUSH2 0x1C09 JUMP JUMPDEST PUSH2 0x1F20 PUSH1 0xE0 DUP4 ADD DUP6 PUSH2 0x164A JUMP JUMPDEST PUSH2 0x1F2E PUSH2 0x100 DUP4 ADD DUP5 PUSH2 0x164A JUMP JUMPDEST SWAP11 SWAP10 POP POP POP POP POP POP POP POP POP POP JUMP JUMPDEST PUSH1 0x0 PUSH1 0x40 MLOAD SWAP1 POP DUP2 DUP2 ADD DUP2 DUP2 LT PUSH8 0xFFFFFFFFFFFFFFFF DUP3 GT OR ISZERO PUSH2 0x1F63 JUMPI PUSH2 0x1F62 PUSH2 0x2150 JUMP JUMPDEST JUMPDEST DUP1 PUSH1 0x40 MSTORE POP SWAP2 SWAP1 POP JUMP JUMPDEST PUSH1 0x0 PUSH8 0xFFFFFFFFFFFFFFFF DUP3 GT ISZERO PUSH2 0x1F88 JUMPI PUSH2 0x1F87 PUSH2 0x2150 JUMP JUMPDEST JUMPDEST PUSH1 0x1F NOT PUSH1 0x1F DUP4 ADD AND SWAP1 POP PUSH1 0x20 DUP2 ADD SWAP1 POP SWAP2 SWAP1 POP JUMP JUMPDEST PUSH1 0x0 DUP2 MLOAD SWAP1 POP SWAP2 SWAP1 POP JUMP JUMPDEST PUSH1 0x0 DUP3 DUP3 MSTORE PUSH1 0x20 DUP3 ADD SWAP1 POP SWAP3 SWAP2 POP POP JUMP JUMPDEST PUSH1 0x0 DUP2 SWAP1 POP SWAP3 SWAP2 POP POP JUMP JUMPDEST PUSH1 0x0 PUSH2 0x1FCF DUP3 PUSH2 0x208C JUMP JUMPDEST SWAP2 POP PUSH2 0x1FDA DUP4 PUSH2 0x208C JUMP JUMPDEST SWAP3 POP DUP3 PUSH32 0xFFFFFFFFFFFFFFFFFFFFFFFFFFFFFFFFFFFFFFFFFFFFFFFFFFFFFFFFFFFFFFFF SUB DUP3 GT ISZERO PUSH2 0x200F JUMPI PUSH2 0x200E PUSH2 0x2121 JUMP JUMPDEST JUMPDEST DUP3 DUP3 ADD SWAP1 POP SWAP3 SWAP2 POP POP JUMP JUMPDEST PUSH1 0x0 PUSH2 0x2025 DUP3 PUSH2 0x208C JUMP JUMPDEST SWAP2 POP PUSH2 0x2030 DUP4 PUSH2 0x208C JUMP JUMPDEST SWAP3 POP DUP3 DUP3 LT ISZERO PUSH2 0x2043 JUMPI PUSH2 0x2042 PUSH2 0x2121 JUMP JUMPDEST JUMPDEST DUP3 DUP3 SUB SWAP1 POP SWAP3 SWAP2 POP POP JUMP JUMPDEST PUSH1 0x0 PUSH2 0x2059 DUP3 PUSH2 0x206C JUMP JUMPDEST SWAP1 POP SWAP2 SWAP1 POP JUMP JUMPDEST PUSH1 0x0 DUP2 ISZERO ISZERO SWAP1 POP SWAP2 SWAP1 POP JUMP JUMPDEST PUSH1 0x0 PUSH20 0xFFFFFFFFFFFFFFFFFFFFFFFFFFFFFFFFFFFFFFFF DUP3 AND SWAP1 POP SWAP2 SWAP1 POP JUMP JUMPDEST PUSH1 0x0 DUP2 SWAP1 POP SWAP2 SWAP1 POP JUMP JUMPDEST DUP3 DUP2 DUP4 CALLDATACOPY PUSH1 0x0 DUP4 DUP4 ADD MSTORE POP POP POP JUMP JUMPDEST PUSH1 0x0 JUMPDEST DUP4 DUP2 LT ISZERO PUSH2 0x20C3 JUMPI DUP1 DUP3 ADD MLOAD DUP2 DUP5 ADD MSTORE PUSH1 0x20 DUP2 ADD SWAP1 POP PUSH2 0x20A8 JUMP JUMPDEST DUP4 DUP2 GT ISZERO PUSH2 0x20D2 JUMPI PUSH1 0x0 DUP5 DUP5 ADD MSTORE JUMPDEST POP POP POP POP JUMP JUMPDEST PUSH1 0x0 PUSH2 0x20E3 DUP3 PUSH2 0x208C JUMP JUMPDEST SWAP2 POP PUSH32 0xFFFFFFFFFFFFFFFFFFFFFFFFFFFFFFFFFFFFFFFFFFFFFFFFFFFFFFFFFFFFFFFF DUP3 EQ ISZERO PUSH2 0x2116 JUMPI PUSH2 0x2115 PUSH2 0x2121 JUMP JUMPDEST JUMPDEST PUSH1 0x1 DUP3 ADD SWAP1 POP SWAP2 SWAP1 POP JUMP JUMPDEST PUSH32 0x4E487B7100000000000000000000000000000000000000000000000000000000 PUSH1 0x0 MSTORE PUSH1 0x11 PUSH1 0x4 MSTORE PUSH1 0x24 PUSH1 0x0 REVERT JUMPDEST PUSH32 0x4E487B7100000000000000000000000000000000000000000000000000000000 PUSH1 0x0 MSTORE PUSH1 0x41 PUSH1 0x4 MSTORE PUSH1 0x24 PUSH1 0x0 REVERT JUMPDEST PUSH1 0x0 PUSH1 0x1F NOT PUSH1 0x1F DUP4 ADD AND SWAP1 POP SWAP2 SWAP1 POP JUMP JUMPDEST PUSH2 0x2199 DUP2 PUSH2 0x204E JUMP JUMPDEST DUP2 EQ PUSH2 0x21A4 JUMPI PUSH1 0x0 DUP1 REVERT JUMPDEST POP JUMP JUMPDEST PUSH2 0x21B0 DUP2 PUSH2 0x208C JUMP JUMPDEST DUP2 EQ PUSH2 0x21BB JUMPI PUSH1 0x0 DUP1 REVERT JUMPDEST POP JUMP INVALID LOG2 PUSH5 0x6970667358 0x22 SLT KECCAK256 0xF9 JUMPDEST 0xD0 TIMESTAMP GASLIMIT 0x29 0xF6 SGT 0xF7 0xCD 0xA6 0x48 0xDC PUSH17 0xA17E28E434DD666FAA256C7915E576FAF PUSH29 0x64736F6C63430008000033000000000000000000000000000000000000 "},"methodIdentifiers":{"addResources(string,uint256)":"8a805d35","getPlayer(address)":"5c12cd4b","login()":"b34e97e8","logout()":"1f3c99c3","playerAddresses(uint256)":"15c6aee2","playerCount()":"302bcc57","players(address)":"e2eb41ff","registerPlayer()":"5c07a4b0","shareResources(address,string,uint256)":"7285bca9"}}}}}