{
  "_format": "hh-sol-artifact-1",
  "contractName": "ResourceSharingGame",
  "sourceName": "contracts/ResourceSharingGame.sol",
  "abi": [
    {
      "anonymous": false,
      "inputs": [
        {
          "indexed": true,
          "internalType": "address",
          "name": "player",
          "type": "address"
        }
      ],
      "name": "PlayerLoggedIn",
      "type": "event"
    },
    {
      "anonymous": false,
      "inputs": [
        {
          "indexed": true,
          "internalType": "address",
          "name": "player",
          "type": "address"
        }
      ],
      "name": "PlayerLoggedOut",
      "type": "event"
    },
    {
      "anonymous": false,
      "inputs": [
        {
          "indexed": true,
          "internalType": "address",
          "name": "player",
          "type": "address"
        }
      ],
      "name": "PlayerRegistered",
      "type": "event"
    },
    {
      "anonymous": false,
      "inputs": [
        {
          "indexed": true,
          "internalType": "address",
          "name": "from",
          "type": "address"
        },
        {
          "indexed": true,
          "internalType": "address",
          "name": "to",
          "type": "address"
        },
        {
          "indexed": false,
          "internalType": "string",
          "name": "resourceType",
          "type": "string"
        },
        {
          "indexed": false,
          "internalType": "uint256",
          "name": "amount",
          "type": "uint256"
        }
      ],
      "name": "ResourceShared",
      "type": "event"
    },
    {
      "anonymous": false,
      "inputs": [
        {
          "indexed": true,
          "internalType": "address",
          "name": "player",
          "type": "address"
        },
        {
          "indexed": false,
          "internalType": "string",
          "name": "resourceType",
          "type": "string"
        },
        {
          "indexed": false,
          "internalType": "uint256",
          "name": "amount",
          "type": "uint256"
        }
      ],
      "name": "ResourcesAdded",
      "type": "event"
    },
    {
      "inputs": [
        {
          "internalType": "string",
          "name": "resourceType",
          "type": "string"
        },
        {
          "internalType": "uint256",
          "name": "amount",
          "type": "uint256"
        }
      ],
      "name": "addResources",
      "outputs": [],
      "stateMutability": "nonpayable",
      "type": "function"
    },
    {
      "inputs": [
        {
          "internalType": "address",
          "name": "playerAddress",
          "type": "address"
        }
      ],
      "name": "getPlayer",
      "outputs": [
        {
          "components": [
            {
              "internalType": "uint256",
              "name": "id",
              "type": "uint256"
            },
            {
              "internalType": "uint256",
              "name": "wool",
              "type": "uint256"
            },
            {
              "internalType": "uint256",
              "name": "sheep",
              "type": "uint256"
            },
            {
              "internalType": "uint256",
              "name": "wolves",
              "type": "uint256"
            },
            {
              "internalType": "uint256",
              "name": "grass",
              "type": "uint256"
            },
            {
              "internalType": "uint256",
              "name": "farmer",
              "type": "uint256"
            },
            {
              "internalType": "uint256",
              "name": "land",
              "type": "uint256"
            },
            {
              "internalType": "bool",
              "name": "isLoggedIn",
              "type": "bool"
            },
            {
              "internalType": "bool",
              "name": "isRegistered",
              "type": "bool"
            }
          ],
          "internalType": "struct ResourceSharingGame.Player",
          "name": "",
          "type": "tuple"
        }
      ],
      "stateMutability": "view",
      "type": "function"
    },
    {
      "inputs": [],
      "name": "login",
      "outputs": [],
      "stateMutability": "nonpayable",
      "type": "function"
    },
    {
      "inputs": [],
      "name": "logout",
      "outputs": [],
      "stateMutability": "nonpayable",
      "type": "function"
    },
    {
      "inputs": [
        {
          "internalType": "uint256",
          "name": "",
          "type": "uint256"
        }
      ],
      "name": "playerAddresses",
      "outputs": [
        {
          "internalType": "address",
          "name": "",
          "type": "address"
        }
      ],
      "stateMutability": "view",
      "type": "function"
    },
    {
      "inputs": [],
      "name": "playerCount",
      "outputs": [
        {
          "internalType": "uint256",
          "name": "",
          "type": "uint256"
        }
      ],
      "stateMutability": "view",
      "type": "function"
    },
    {
      "inputs": [
        {
          "internalType": "address",
          "name": "",
          "type": "address"
        }
      ],
      "name": "players",
      "outputs": [
        {
          "internalType": "uint256",
          "name": "id",
          "type": "uint256"
        },
        {
          "internalType": "uint256",
          "name": "wool",
          "type": "uint256"
        },
        {
          "internalType": "uint256",
          "name": "sheep",
          "type": "uint256"
        },
        {
          "internalType": "uint256",
          "name": "wolves",
          "type": "uint256"
        },
        {
          "internalType": "uint256",
          "name": "grass",
          "type": "uint256"
        },
        {
          "internalType": "uint256",
          "name": "farmer",
          "type": "uint256"
        },
        {
          "internalType": "uint256",
          "name": "land",
          "type": "uint256"
        },
        {
          "internalType": "bool",
          "name": "isLoggedIn",
          "type": "bool"
        },
        {
          "internalType": "bool",
          "name": "isRegistered",
          "type": "bool"
        }
      ],
      "stateMutability": "view",
      "type": "function"
    },
    {
      "inputs": [],
      "name": "registerPlayer",
      "outputs": [],
      "stateMutability": "nonpayable",
      "type": "function"
    },
    {
      "inputs": [
        {
          "internalType": "address",
          "name": "to",
          "type": "address"
        },
        {
          "internalType": "string",
          "name": "resourceType",
          "type": "string"
        },
        {
          "internalType": "uint256",
          "name": "amount",
          "type": "uint256"
        }
      ],
      "name": "shareResources",
      "outputs": [],
      "stateMutability": "nonpayable",
      "type": "function"
    }
  ],
  "bytecode": "0x608060405234801561001057600080fd5b506121f4806100206000396000f3fe608060405234801561001057600080fd5b50600436106100935760003560e01c80635c12cd4b116100665780635c12cd4b146100fa5780637285bca91461012a5780638a805d3514610146578063b34e97e814610162578063e2eb41ff1461016c57610093565b806315c6aee2146100985780631f3c99c3146100c8578063302bcc57146100d25780635c07a4b0146100f0575b600080fd5b6100b260048036038101906100ad9190611603565b6101a4565b6040516100bf9190611cad565b60405180910390f35b6100d06101e3565b005b6100da610312565b6040516100e79190611e94565b60405180910390f35b6100f8610318565b005b610114600480360381019061010f919061151f565b61057e565b6040516101219190611e78565b60405180910390f35b610144600480360381019061013f9190611548565b610654565b005b610160600480360381019061015b91906115af565b610e51565b005b61016a6112a7565b005b6101866004803603810190610181919061151f565b6113d5565b60405161019b99989796959493929190611eaf565b60405180910390f35b600281815481106101b457600080fd5b906000526020600020016000915054906101000a900473ffffffffffffffffffffffffffffffffffffffff1681565b600160003373ffffffffffffffffffffffffffffffffffffffff1673ffffffffffffffffffffffffffffffffffffffff16815260200190815260200160002060070160019054906101000a900460ff16610272576040517f08c379a000000000000000000000000000000000000000000000000000000000815260040161026990611e18565b60405180910390fd5b6000600160003373ffffffffffffffffffffffffffffffffffffffff1673ffffffffffffffffffffffffffffffffffffffff16815260200190815260200160002060070160006101000a81548160ff0219169083151502179055503373ffffffffffffffffffffffffffffffffffffffff167fbc9bb1519929a287abb5d2804891a6eb91e80e365a0d6dbad73b835e14ba63fe60405160405180910390a2565b60005481565b600160003373ffffffffffffffffffffffffffffffffffffffff1673ffffffffffffffffffffffffffffffffffffffff16815260200190815260200160002060070160019054906101000a900460ff16156103a8576040517f08c379a000000000000000000000000000000000000000000000000000000000815260040161039f90611d78565b60405180910390fd5b6000808154809291906103ba906120d8565b9190505550604051806101200160405280600054815260200160648152602001600a81526020016005815260200160328152602001600181526020016014815260200160001515815260200160011515815250600160003373ffffffffffffffffffffffffffffffffffffffff1673ffffffffffffffffffffffffffffffffffffffff168152602001908152602001600020600082015181600001556020820151816001015560408201518160020155606082015181600301556080820151816004015560a0820151816005015560c0820151816006015560e08201518160070160006101000a81548160ff0219169083151502179055506101008201518160070160016101000a81548160ff0219169083151502179055509050506002339080600181540180825580915050600190039060005260206000200160009091909190916101000a81548173ffffffffffffffffffffffffffffffffffffffff021916908373ffffffffffffffffffffffffffffffffffffffff1602179055503373ffffffffffffffffffffffffffffffffffffffff167f8cd3331e32cec677d80b82cf0f71496605e7ed6ff864a3ccedc7d5d11d838c8360405160405180910390a2565b61058661143d565b600160008373ffffffffffffffffffffffffffffffffffffffff1673ffffffffffffffffffffffffffffffffffffffff16815260200190815260200160002060405180610120016040529081600082015481526020016001820154815260200160028201548152602001600382015481526020016004820154815260200160058201548152602001600682015481526020016007820160009054906101000a900460ff161515151581526020016007820160019054906101000a900460ff1615151515815250509050919050565b600160003373ffffffffffffffffffffffffffffffffffffffff1673ffffffffffffffffffffffffffffffffffffffff16815260200190815260200160002060070160019054906101000a900460ff166106e3576040517f08c379a00000000000000000000000000000000000000000000000000000000081526004016106da90611e18565b60405180910390fd5b600160008473ffffffffffffffffffffffffffffffffffffffff1673ffffffffffffffffffffffffffffffffffffffff16815260200190815260200160002060070160019054906101000a900460ff16610772576040517f08c379a000000000000000000000000000000000000000000000000000000000815260040161076990611db8565b60405180910390fd5b600081116107b5576040517f08c379a00000000000000000000000000000000000000000000000000000000081526004016107ac90611d18565b60405180910390fd5b600073ffffffffffffffffffffffffffffffffffffffff168373ffffffffffffffffffffffffffffffffffffffff161415610825576040517f08c379a000000000000000000000000000000000000000000000000000000000815260040161081c90611d98565b60405180910390fd5b6000600160003373ffffffffffffffffffffffffffffffffffffffff1673ffffffffffffffffffffffffffffffffffffffff16815260200190815260200160002090506000600160008673ffffffffffffffffffffffffffffffffffffffff1673ffffffffffffffffffffffffffffffffffffffff16815260200190815260200160002090506040516020016108ba90611c98565b60405160208183030381529060405280519060200120846040516020016108e19190611c18565b60405160208183030381529060405280519060200120141561097f578282600101541015610944576040517f08c379a000000000000000000000000000000000000000000000000000000000815260040161093b90611e38565b60405180910390fd5b82826001016000828254610958919061201a565b92505081905550828160010160008282546109739190611fc4565b92505081905550610de3565b60405160200161098e90611c6e565b60405160208183030381529060405280519060200120846040516020016109b59190611c18565b604051602081830303815290604052805190602001201415610a53578282600201541015610a18576040517f08c379a0000000000000000000000000000000000000000000000000000000008152600401610a0f90611e58565b60405180910390fd5b82826002016000828254610a2c919061201a565b9250508190555082816002016000828254610a479190611fc4565b92505081905550610de2565b604051602001610a6290611c2f565b6040516020818303038152906040528051906020012084604051602001610a899190611c18565b604051602081830303815290604052805190602001201415610b27578282600301541015610aec576040517f08c379a0000000000000000000000000000000000000000000000000000000008152600401610ae390611dd8565b60405180910390fd5b82826003016000828254610b00919061201a565b9250508190555082816003016000828254610b1b9190611fc4565b92505081905550610de1565b604051602001610b3690611c59565b6040516020818303038152906040528051906020012084604051602001610b5d9190611c18565b604051602081830303815290604052805190602001201415610bfb578282600401541015610bc0576040517f08c379a0000000000000000000000000000000000000000000000000000000008152600401610bb790611df8565b60405180910390fd5b82826004016000828254610bd4919061201a565b9250508190555082816004016000828254610bef9190611fc4565b92505081905550610de0565b604051602001610c0a90611c83565b6040516020818303038152906040528051906020012084604051602001610c319190611c18565b604051602081830303815290604052805190602001201415610ccf578282600501541015610c94576040517f08c379a0000000000000000000000000000000000000000000000000000000008152600401610c8b90611cf8565b60405180910390fd5b82826005016000828254610ca8919061201a565b9250508190555082816005016000828254610cc39190611fc4565b92505081905550610ddf565b604051602001610cde90611c44565b6040516020818303038152906040528051906020012084604051602001610d059190611c18565b604051602081830303815290604052805190602001201415610da3578282600601541015610d68576040517f08c379a0000000000000000000000000000000000000000000000000000000008152600401610d5f90611d38565b60405180910390fd5b82826006016000828254610d7c919061201a565b9250508190555082816006016000828254610d979190611fc4565b92505081905550610dde565b6040517f08c379a0000000000000000000000000000000000000000000000000000000008152600401610dd590611d58565b60405180910390fd5b5b5b5b5b5b8473ffffffffffffffffffffffffffffffffffffffff163373ffffffffffffffffffffffffffffffffffffffff167fc811233d8689f13b04a6f0ac04bef0b0c01c08026a2db0b4b33e7ceaf541d05e8686604051610e42929190611cc8565b60405180910390a35050505050565b600160003373ffffffffffffffffffffffffffffffffffffffff1673ffffffffffffffffffffffffffffffffffffffff16815260200190815260200160002060070160019054906101000a900460ff16610ee0576040517f08c379a0000000000000000000000000000000000000000000000000000000008152600401610ed790611e18565b60405180910390fd5b60008111610f23576040517f08c379a0000000000000000000000000000000000000000000000000000000008152600401610f1a90611d18565b60405180910390fd5b6000600160003373ffffffffffffffffffffffffffffffffffffffff1673ffffffffffffffffffffffffffffffffffffffff1681526020019081526020016000209050604051602001610f7590611c98565b6040516020818303038152906040528051906020012083604051602001610f9c9190611c18565b604051602081830303815290604052805190602001201415610fd85781816001016000828254610fcc9190611fc4565b92505081905550611252565b604051602001610fe790611c6e565b604051602081830303815290604052805190602001208360405160200161100e9190611c18565b60405160208183030381529060405280519060200120141561104a578181600201600082825461103e9190611fc4565b92505081905550611251565b60405160200161105990611c2f565b60405160208183030381529060405280519060200120836040516020016110809190611c18565b6040516020818303038152906040528051906020012014156110bc57818160030160008282546110b09190611fc4565b92505081905550611250565b6040516020016110cb90611c59565b60405160208183030381529060405280519060200120836040516020016110f29190611c18565b60405160208183030381529060405280519060200120141561112e57818160040160008282546111229190611fc4565b9250508190555061124f565b60405160200161113d90611c83565b60405160208183030381529060405280519060200120836040516020016111649190611c18565b6040516020818303038152906040528051906020012014156111a057818160050160008282546111949190611fc4565b9250508190555061124e565b6040516020016111af90611c44565b60405160208183030381529060405280519060200120836040516020016111d69190611c18565b60405160208183030381529060405280519060200120141561121257818160060160008282546112069190611fc4565b9250508190555061124d565b6040517f08c379a000000000000000000000000000000000000000000000000000000000815260040161124490611d58565b60405180910390fd5b5b5b5b5b5b3373ffffffffffffffffffffffffffffffffffffffff167fc16e1e417f4c60fb9e214e8ea73831f7d3f7c87de1db8aeba31987e4d47763cc848460405161129a929190611cc8565b60405180910390a2505050565b600160003373ffffffffffffffffffffffffffffffffffffffff1673ffffffffffffffffffffffffffffffffffffffff16815260200190815260200160002060070160019054906101000a900460ff16611336576040517f08c379a000000000000000000000000000000000000000000000000000000000815260040161132d90611e18565b60405180910390fd5b60018060003373ffffffffffffffffffffffffffffffffffffffff1673ffffffffffffffffffffffffffffffffffffffff16815260200190815260200160002060070160006101000a81548160ff0219169083151502179055503373ffffffffffffffffffffffffffffffffffffffff167f5faeea7b4be271b047391ace93d7fc0b9c7873623609011165b0eb6009c307ee60405160405180910390a2565b60016020528060005260406000206000915090508060000154908060010154908060020154908060030154908060040154908060050154908060060154908060070160009054906101000a900460ff16908060070160019054906101000a900460ff16905089565b604051806101200160405280600081526020016000815260200160008152602001600081526020016000815260200160008152602001600081526020016000151581526020016000151581525090565b60006114a061149b84611f6d565b611f3c565b9050828152602081018484840111156114b857600080fd5b6114c3848285612096565b509392505050565b6000813590506114da81612190565b92915050565b600082601f8301126114f157600080fd5b813561150184826020860161148d565b91505092915050565b600081359050611519816121a7565b92915050565b60006020828403121561153157600080fd5b600061153f848285016114cb565b91505092915050565b60008060006060848603121561155d57600080fd5b600061156b868287016114cb565b935050602084013567ffffffffffffffff81111561158857600080fd5b611594868287016114e0565b92505060406115a58682870161150a565b9150509250925092565b600080604083850312156115c257600080fd5b600083013567ffffffffffffffff8111156115dc57600080fd5b6115e8858286016114e0565b92505060206115f98582860161150a565b9150509250929050565b60006020828403121561161557600080fd5b60006116238482850161150a565b91505092915050565b6116358161204e565b82525050565b61164481612060565b82525050565b61165381612060565b82525050565b600061166482611f9d565b61166e8185611fa8565b935061167e8185602086016120a5565b6116878161217f565b840191505092915050565b600061169d82611f9d565b6116a78185611fb9565b93506116b78185602086016120a5565b80840191505092915050565b60006116d0601283611fa8565b91507f4e6f7420656e6f756768206661726d65727300000000000000000000000000006000830152602082019050919050565b6000611710600683611fb9565b91507f776f6c76657300000000000000000000000000000000000000000000000000006000830152600682019050919050565b6000611750602083611fa8565b91507f416d6f756e74206d7573742062652067726561746572207468616e207a65726f6000830152602082019050919050565b6000611790600f83611fa8565b91507f4e6f7420656e6f756768206c616e6400000000000000000000000000000000006000830152602082019050919050565b60006117d0600483611fb9565b91507f6c616e64000000000000000000000000000000000000000000000000000000006000830152600482019050919050565b6000611810601583611fa8565b91507f496e76616c6964207265736f75726365207479706500000000000000000000006000830152602082019050919050565b6000611850600583611fb9565b91507f67726173730000000000000000000000000000000000000000000000000000006000830152600582019050919050565b6000611890600583611fb9565b91507f73686565700000000000000000000000000000000000000000000000000000006000830152600582019050919050565b60006118d0600683611fb9565b91507f6661726d657200000000000000000000000000000000000000000000000000006000830152600682019050919050565b6000611910601983611fa8565b91507f506c6179657220616c72656164792072656769737465726564000000000000006000830152602082019050919050565b6000611950601983611fa8565b91507f496e76616c696420726563697069656e742061646472657373000000000000006000830152602082019050919050565b6000611990601883611fa8565b91507f526563697069656e74206e6f74207265676973746572656400000000000000006000830152602082019050919050565b60006119d0600483611fb9565b91507f776f6f6c000000000000000000000000000000000000000000000000000000006000830152600482019050919050565b6000611a10601183611fa8565b91507f4e6f7420656e6f75676820776f6c7665730000000000000000000000000000006000830152602082019050919050565b6000611a50601083611fa8565b91507f4e6f7420656e6f756768206772617373000000000000000000000000000000006000830152602082019050919050565b6000611a90601583611fa8565b91507f506c61796572206e6f74207265676973746572656400000000000000000000006000830152602082019050919050565b6000611ad0600f83611fa8565b91507f4e6f7420656e6f75676820776f6f6c00000000000000000000000000000000006000830152602082019050919050565b6000611b10601083611fa8565b91507f4e6f7420656e6f756768207368656570000000000000000000000000000000006000830152602082019050919050565b61012082016000820151611b5a6000850182611bfa565b506020820151611b6d6020850182611bfa565b506040820151611b806040850182611bfa565b506060820151611b936060850182611bfa565b506080820151611ba66080850182611bfa565b5060a0820151611bb960a0850182611bfa565b5060c0820151611bcc60c0850182611bfa565b5060e0820151611bdf60e085018261163b565b50610100820151611bf461010085018261163b565b50505050565b611c038161208c565b82525050565b611c128161208c565b82525050565b6000611c248284611692565b915081905092915050565b6000611c3a82611703565b9150819050919050565b6000611c4f826117c3565b9150819050919050565b6000611c6482611843565b9150819050919050565b6000611c7982611883565b9150819050919050565b6000611c8e826118c3565b9150819050919050565b6000611ca3826119c3565b9150819050919050565b6000602082019050611cc2600083018461162c565b92915050565b60006040820190508181036000830152611ce28185611659565b9050611cf16020830184611c09565b9392505050565b60006020820190508181036000830152611d11816116c3565b9050919050565b60006020820190508181036000830152611d3181611743565b9050919050565b60006020820190508181036000830152611d5181611783565b9050919050565b60006020820190508181036000830152611d7181611803565b9050919050565b60006020820190508181036000830152611d9181611903565b9050919050565b60006020820190508181036000830152611db181611943565b9050919050565b60006020820190508181036000830152611dd181611983565b9050919050565b60006020820190508181036000830152611df181611a03565b9050919050565b60006020820190508181036000830152611e1181611a43565b9050919050565b60006020820190508181036000830152611e3181611a83565b9050919050565b60006020820190508181036000830152611e5181611ac3565b9050919050565b60006020820190508181036000830152611e7181611b03565b9050919050565b600061012082019050611e8e6000830184611b43565b92915050565b6000602082019050611ea96000830184611c09565b92915050565b600061012082019050611ec5600083018c611c09565b611ed2602083018b611c09565b611edf604083018a611c09565b611eec6060830189611c09565b611ef96080830188611c09565b611f0660a0830187611c09565b611f1360c0830186611c09565b611f2060e083018561164a565b611f2e61010083018461164a565b9a9950505050505050505050565b6000604051905081810181811067ffffffffffffffff82111715611f6357611f62612150565b5b8060405250919050565b600067ffffffffffffffff821115611f8857611f87612150565b5b601f19601f8301169050602081019050919050565b600081519050919050565b600082825260208201905092915050565b600081905092915050565b6000611fcf8261208c565b9150611fda8361208c565b9250827fffffffffffffffffffffffffffffffffffffffffffffffffffffffffffffffff0382111561200f5761200e612121565b5b828201905092915050565b60006120258261208c565b91506120308361208c565b92508282101561204357612042612121565b5b828203905092915050565b60006120598261206c565b9050919050565b60008115159050919050565b600073ffffffffffffffffffffffffffffffffffffffff82169050919050565b6000819050919050565b82818337600083830152505050565b60005b838110156120c35780820151818401526020810190506120a8565b838111156120d2576000848401525b50505050565b60006120e38261208c565b91507fffffffffffffffffffffffffffffffffffffffffffffffffffffffffffffffff82141561211657612115612121565b5b600182019050919050565b7f4e487b7100000000000000000000000000000000000000000000000000000000600052601160045260246000fd5b7f4e487b7100000000000000000000000000000000000000000000000000000000600052604160045260246000fd5b6000601f19601f8301169050919050565b6121998161204e565b81146121a457600080fd5b50565b6121b08161208c565b81146121bb57600080fd5b5056fea2646970667358221220f95bd0424529f613f7cda648dc700a17e28e434dd666faa256c7915e576faf7c64736f6c63430008000033",
  "linkReferences": {},
  "deployedLinkReferences": {}
}