{
  "_format": "hh-sol-artifact-1",
  "contractName": "ResourceSharingGame",
  "sourceName": "contracts/ResourceSharingGame.sol",
  "abi": [
    {
      "anonymous": false,
      "inputs": [
        {
          "indexed": true,
          "internalType": "address",
          "name": "from",
          "type": "address"
        },
        {
          "indexed": true,
          "internalType": "address",
          "name": "to",
          "type": "address"
        },
        {
          "indexed": false,
          "internalType": "string",
          "name": "resourceType",
          "type": "string"
        },
        {
          "indexed": false,
          "internalType": "uint256",
          "name": "amount",
          "type": "uint256"
        }
      ],
      "name": "ResourceShared",
      "type": "event"
    },
    {
      "inputs": [],
      "name": "login",
      "outputs": [],
      "stateMutability": "nonpayable",
      "type": "function"
    },
    {
      "inputs": [],
      "name": "logout",
      "outputs": [],
      "stateMutability": "nonpayable",
      "type": "function"
    },
    {
      "inputs": [
        {
          "internalType": "uint256",
          "name": "",
          "type": "uint256"
        }
      ],
      "name": "playerAddresses",
      "outputs": [
        {
          "internalType": "address",
          "name": "",
          "type": "address"
        }
      ],
      "stateMutability": "view",
      "type": "function"
    },
    {
      "inputs": [
        {
          "internalType": "address",
          "name": "",
          "type": "address"
        }
      ],
      "name": "players",
      "outputs": [
        {
          "internalType": "uint256",
          "name": "wool",
          "type": "uint256"
        },
        {
          "internalType": "uint256",
          "name": "sheep",
          "type": "uint256"
        },
        {
          "internalType": "uint256",
          "name": "wolves",
          "type": "uint256"
        },
        {
          "internalType": "uint256",
          "name": "grass",
          "type": "uint256"
        },
        {
          "internalType": "uint256",
          "name": "farmer",
          "type": "uint256"
        },
        {
          "internalType": "uint256",
          "name": "land",
          "type": "uint256"
        },
        {
          "internalType": "bool",
          "name": "isLoggedIn",
          "type": "bool"
        }
      ],
      "stateMutability": "view",
      "type": "function"
    },
    {
      "inputs": [],
      "name": "registerPlayer",
      "outputs": [],
      "stateMutability": "nonpayable",
      "type": "function"
    },
    {
      "inputs": [
        {
          "internalType": "address",
          "name": "to",
          "type": "address"
        },
        {
          "internalType": "string",
          "name": "resourceType",
          "type": "string"
        },
        {
          "internalType": "uint256",
          "name": "amount",
          "type": "uint256"
        }
      ],
      "name": "shareResources",
      "outputs": [],
      "stateMutability": "nonpayable",
      "type": "function"
    }
  ],
  "bytecode": "0x608060405234801561001057600080fd5b506118a1806100206000396000f3fe608060405234801561001057600080fd5b50600436106100625760003560e01c806315c6aee2146100675780631f3c99c3146100975780635c07a4b0146100a15780637285bca9146100ab578063b34e97e8146100c7578063e2eb41ff146100d1575b600080fd5b610081600480360381019061007c9190610e83565b610107565b60405161008e9190611418565b60405180910390f35b61009f610146565b005b6100a96101a2565b005b6100c560048036038101906100c09190610e1c565b610364565b005b6100cf610c32565b005b6100eb60048036038101906100e69190610df3565b610d12565b6040516100fe97969594939291906115c3565b60405180910390f35b6001818154811061011757600080fd5b906000526020600020016000915054906101000a900473ffffffffffffffffffffffffffffffffffffffff1681565b60008060003373ffffffffffffffffffffffffffffffffffffffff1673ffffffffffffffffffffffffffffffffffffffff16815260200190815260200160002060060160006101000a81548160ff021916908315150217905550565b60008060003373ffffffffffffffffffffffffffffffffffffffff1673ffffffffffffffffffffffffffffffffffffffff1681526020019081526020016000206000015414610226576040517f08c379a000000000000000000000000000000000000000000000000000000000815260040161021d906114e3565b60405180910390fd5b6040518060e0016040528060648152602001600a815260200160058152602001603281526020016001815260200160148152602001600015158152506000803373ffffffffffffffffffffffffffffffffffffffff1673ffffffffffffffffffffffffffffffffffffffff168152602001908152602001600020600082015181600001556020820151816001015560408201518160020155606082015181600301556080820151816004015560a0820151816005015560c08201518160060160006101000a81548160ff0219169083151502179055509050506001339080600181540180825580915050600190039060005260206000200160009091909190916101000a81548173ffffffffffffffffffffffffffffffffffffffff021916908373ffffffffffffffffffffffffffffffffffffffff160217905550565b600081116103a7576040517f08c379a000000000000000000000000000000000000000000000000000000000815260040161039e90611483565b60405180910390fd5b600073ffffffffffffffffffffffffffffffffffffffff168373ffffffffffffffffffffffffffffffffffffffff161415610417576040517f08c379a000000000000000000000000000000000000000000000000000000000815260040161040e90611503565b60405180910390fd5b60405160200161042690611403565b604051602081830303815290604052805190602001208260405160200161044d9190611383565b6040516020818303038152906040528051906020012014806104b85750604051602001610479906113d9565b60405160208183030381529060405280519060200120826040516020016104a09190611383565b60405160208183030381529060405280519060200120145b8061050c57506040516020016104cd9061139a565b60405160208183030381529060405280519060200120826040516020016104f49190611383565b60405160208183030381529060405280519060200120145b806105605750604051602001610521906113c4565b60405160208183030381529060405280519060200120826040516020016105489190611383565b60405160208183030381529060405280519060200120145b806105b45750604051602001610575906113ee565b604051602081830303815290604052805190602001208260405160200161059c9190611383565b60405160208183030381529060405280519060200120145b8061060857506040516020016105c9906113af565b60405160208183030381529060405280519060200120826040516020016105f09190611383565b60405160208183030381529060405280519060200120145b610647576040517f08c379a000000000000000000000000000000000000000000000000000000000815260040161063e906114c3565b60405180910390fd5b60008060003373ffffffffffffffffffffffffffffffffffffffff1673ffffffffffffffffffffffffffffffffffffffff168152602001908152602001600020905060008060008673ffffffffffffffffffffffffffffffffffffffff1673ffffffffffffffffffffffffffffffffffffffff16815260200190815260200160002090506040516020016106da90611403565b60405160208183030381529060405280519060200120846040516020016107019190611383565b60405160208183030381529060405280519060200120141561079f578282600001541015610764576040517f08c379a000000000000000000000000000000000000000000000000000000000815260040161075b90611583565b60405180910390fd5b828260000160008282546107789190611710565b925050819055508281600001600082825461079391906116ba565b92505081905550610bc4565b6040516020016107ae906113d9565b60405160208183030381529060405280519060200120846040516020016107d59190611383565b604051602081830303815290604052805190602001201415610873578282600101541015610838576040517f08c379a000000000000000000000000000000000000000000000000000000000815260040161082f906115a3565b60405180910390fd5b8282600101600082825461084c9190611710565b925050819055508281600101600082825461086791906116ba565b92505081905550610bc3565b6040516020016108829061139a565b60405160208183030381529060405280519060200120846040516020016108a99190611383565b60405160208183030381529060405280519060200120141561094757828260020154101561090c576040517f08c379a000000000000000000000000000000000000000000000000000000000815260040161090390611523565b60405180910390fd5b828260020160008282546109209190611710565b925050819055508281600201600082825461093b91906116ba565b92505081905550610bc2565b604051602001610956906113c4565b604051602081830303815290604052805190602001208460405160200161097d9190611383565b604051602081830303815290604052805190602001201415610a1b5782826003015410156109e0576040517f08c379a00000000000000000000000000000000000000000000000000000000081526004016109d790611543565b60405180910390fd5b828260030160008282546109f49190611710565b9250508190555082816003016000828254610a0f91906116ba565b92505081905550610bc1565b604051602001610a2a906113ee565b6040516020818303038152906040528051906020012084604051602001610a519190611383565b604051602081830303815290604052805190602001201415610aef578282600401541015610ab4576040517f08c379a0000000000000000000000000000000000000000000000000000000008152600401610aab90611463565b60405180910390fd5b82826004016000828254610ac89190611710565b9250508190555082816004016000828254610ae391906116ba565b92505081905550610bc0565b604051602001610afe906113af565b6040516020818303038152906040528051906020012084604051602001610b259190611383565b604051602081830303815290604052805190602001201415610bbf578282600501541015610b88576040517f08c379a0000000000000000000000000000000000000000000000000000000008152600401610b7f906114a3565b60405180910390fd5b82826005016000828254610b9c9190611710565b9250508190555082816005016000828254610bb791906116ba565b925050819055505b5b5b5b5b5b8473ffffffffffffffffffffffffffffffffffffffff163373ffffffffffffffffffffffffffffffffffffffff167fc811233d8689f13b04a6f0ac04bef0b0c01c08026a2db0b4b33e7ceaf541d05e8686604051610c23929190611433565b60405180910390a35050505050565b60008060003373ffffffffffffffffffffffffffffffffffffffff1673ffffffffffffffffffffffffffffffffffffffff1681526020019081526020016000206000015411610cb6576040517f08c379a0000000000000000000000000000000000000000000000000000000008152600401610cad90611563565b60405180910390fd5b60016000803373ffffffffffffffffffffffffffffffffffffffff1673ffffffffffffffffffffffffffffffffffffffff16815260200190815260200160002060060160006101000a81548160ff021916908315150217905550565b60006020528060005260406000206000915090508060000154908060010154908060020154908060030154908060040154908060050154908060060160009054906101000a900460ff16905087565b6000610d74610d6f84611663565b611632565b905082815260208101848484011115610d8c57600080fd5b610d9784828561178c565b509392505050565b600081359050610dae8161183d565b92915050565b600082601f830112610dc557600080fd5b8135610dd5848260208601610d61565b91505092915050565b600081359050610ded81611854565b92915050565b600060208284031215610e0557600080fd5b6000610e1384828501610d9f565b91505092915050565b600080600060608486031215610e3157600080fd5b6000610e3f86828701610d9f565b935050602084013567ffffffffffffffff811115610e5c57600080fd5b610e6886828701610db4565b9250506040610e7986828701610dde565b9150509250925092565b600060208284031215610e9557600080fd5b6000610ea384828501610dde565b91505092915050565b610eb581611744565b82525050565b610ec481611756565b82525050565b6000610ed582611693565b610edf818561169e565b9350610eef81856020860161179b565b610ef88161182c565b840191505092915050565b6000610f0e82611693565b610f1881856116af565b9350610f2881856020860161179b565b80840191505092915050565b6000610f4160128361169e565b91507f4e6f7420656e6f756768206661726d65727300000000000000000000000000006000830152602082019050919050565b6000610f816006836116af565b91507f776f6c76657300000000000000000000000000000000000000000000000000006000830152600682019050919050565b6000610fc160208361169e565b91507f416d6f756e74206d7573742062652067726561746572207468616e207a65726f6000830152602082019050919050565b6000611001600f8361169e565b91507f4e6f7420656e6f756768206c616e6400000000000000000000000000000000006000830152602082019050919050565b60006110416004836116af565b91507f6c616e64000000000000000000000000000000000000000000000000000000006000830152600482019050919050565b600061108160158361169e565b91507f496e76616c6964207265736f75726365207479706500000000000000000000006000830152602082019050919050565b60006110c16005836116af565b91507f67726173730000000000000000000000000000000000000000000000000000006000830152600582019050919050565b60006111016005836116af565b91507f73686565700000000000000000000000000000000000000000000000000000006000830152600582019050919050565b60006111416006836116af565b91507f6661726d657200000000000000000000000000000000000000000000000000006000830152600682019050919050565b600061118160198361169e565b91507f506c6179657220616c72656164792072656769737465726564000000000000006000830152602082019050919050565b60006111c160198361169e565b91507f496e76616c696420726563697069656e742061646472657373000000000000006000830152602082019050919050565b60006112016004836116af565b91507f776f6f6c000000000000000000000000000000000000000000000000000000006000830152600482019050919050565b600061124160118361169e565b91507f4e6f7420656e6f75676820776f6c7665730000000000000000000000000000006000830152602082019050919050565b600061128160108361169e565b91507f4e6f7420656e6f756768206772617373000000000000000000000000000000006000830152602082019050919050565b60006112c160158361169e565b91507f506c61796572206e6f74207265676973746572656400000000000000000000006000830152602082019050919050565b6000611301600f8361169e565b91507f4e6f7420656e6f75676820776f6f6c00000000000000000000000000000000006000830152602082019050919050565b600061134160108361169e565b91507f4e6f7420656e6f756768207368656570000000000000000000000000000000006000830152602082019050919050565b61137d81611782565b82525050565b600061138f8284610f03565b915081905092915050565b60006113a582610f74565b9150819050919050565b60006113ba82611034565b9150819050919050565b60006113cf826110b4565b9150819050919050565b60006113e4826110f4565b9150819050919050565b60006113f982611134565b9150819050919050565b600061140e826111f4565b9150819050919050565b600060208201905061142d6000830184610eac565b92915050565b6000604082019050818103600083015261144d8185610eca565b905061145c6020830184611374565b9392505050565b6000602082019050818103600083015261147c81610f34565b9050919050565b6000602082019050818103600083015261149c81610fb4565b9050919050565b600060208201905081810360008301526114bc81610ff4565b9050919050565b600060208201905081810360008301526114dc81611074565b9050919050565b600060208201905081810360008301526114fc81611174565b9050919050565b6000602082019050818103600083015261151c816111b4565b9050919050565b6000602082019050818103600083015261153c81611234565b9050919050565b6000602082019050818103600083015261155c81611274565b9050919050565b6000602082019050818103600083015261157c816112b4565b9050919050565b6000602082019050818103600083015261159c816112f4565b9050919050565b600060208201905081810360008301526115bc81611334565b9050919050565b600060e0820190506115d8600083018a611374565b6115e56020830189611374565b6115f26040830188611374565b6115ff6060830187611374565b61160c6080830186611374565b61161960a0830185611374565b61162660c0830184610ebb565b98975050505050505050565b6000604051905081810181811067ffffffffffffffff82111715611659576116586117fd565b5b8060405250919050565b600067ffffffffffffffff82111561167e5761167d6117fd565b5b601f19601f8301169050602081019050919050565b600081519050919050565b600082825260208201905092915050565b600081905092915050565b60006116c582611782565b91506116d083611782565b9250827fffffffffffffffffffffffffffffffffffffffffffffffffffffffffffffffff03821115611705576117046117ce565b5b828201905092915050565b600061171b82611782565b915061172683611782565b925082821015611739576117386117ce565b5b828203905092915050565b600061174f82611762565b9050919050565b60008115159050919050565b600073ffffffffffffffffffffffffffffffffffffffff82169050919050565b6000819050919050565b82818337600083830152505050565b60005b838110156117b957808201518184015260208101905061179e565b838111156117c8576000848401525b50505050565b7f4e487b7100000000000000000000000000000000000000000000000000000000600052601160045260246000fd5b7f4e487b7100000000000000000000000000000000000000000000000000000000600052604160045260246000fd5b6000601f19601f8301169050919050565b61184681611744565b811461185157600080fd5b50565b61185d81611782565b811461186857600080fd5b5056fea26469706673582212201c90ae9cd523d906bce7e886a84ca72570d7e636a274f3f385c42e987263e61764736f6c63430008000033",
  "linkReferences": {},
  "deployedLinkReferences": {}
}